:020000040800F2
:100000000050002049170008651400086B14000810
:1000100071140008771400087D1400080000000027
:100020000000000000000000000000008314000831
:100030008F140008000000009B140008A71400089B
:1000400091170008911700089117000891170008F0
:1000500091170008911700089117000891170008E0
:10006000911700089117000891170008B5140008AF
:1000700091170008911700089117000891170008C0
:1000800091170008911700089117000891170008B0
:1000900091170008911700089117000891170008A0
:1000A0009117000891170008911700089117000890
:1000B000C91400089117000891170008911700084B
:1000C0009117000891170008911700089117000870
:1000D00091170008DD140008911700089117000817
:1000E0009117000891170008911700080000000000
:1000F0000000000000000000000000000000000000
:0C01000000000000000000005FF808F1A3
:10010C0010B5054C237833B9044B13B10448AFF345
:10011C0000800123237010BD70000020000000003F
:10012C002051000808B5034B1BB103490348AFF33A
:10013C00008008BD00000000740000202051000861
:10014C0081F0004102E000BF83F0004330B54FEA7C
:10015C0041044FEA430594EA050F08BF90EA020FE9
:10016C001FBF54EA000C55EA020C7FEA645C7FEA7C
:10017C00655C00F0E2804FEA5454D4EB5555B8BF9F
:10018C006D420CDD2C4480EA020281EA030382EA10
:10019C00000083EA010180EA020281EA0303362DA2
:1001AC0088BF30BD11F0004F4FEA01314FF4801C75
:1001BC004CEA113102D0404261EB410113F0004F87
:1001CC004FEA03334CEA133302D0524263EB43033E
:1001DC0094EA050F00F0A780A4F10104D5F1200EDC
:1001EC000DDB02FA0EFC22FA05F2801841F1000137
:1001FC0003FA0EF2801843FA05F359410EE0A5F10B
:10020C0020050EF1200E012A03FA0EFC28BF4CF03B
:10021C00020C43FA05F3C01851EBE37101F00045F1
:10022C0007D54FF0000EDCF1000C7EEB00006EEBFE
:10023C000101B1F5801F1BD3B1F5001F0CD3490888
:10024C005FEA30004FEA3C0C04F101044FEA4452DF
:10025C0012F5800F80F09A80BCF1004F08BF5FEA66
:10026C00500C50F1000041EB045141EA050130BD46
:10027C005FEA4C0C404141EB0101013C28BFB1F558
:10028C00801FE9D291F0000F04BF01460020B1FAA3
:10029C0081F308BF2033A3F10B03B3F120020CDA76
:1002AC000C3208DD02F1140CC2F10C0201FA0CF054
:1002BC0021FA02F10CE002F11402D8BFC2F1200CB9
:1002CC0001FA02F120FA0CFCDCBF41EA0C0190406F
:1002DC00E41AA2BF01EB0451294330BD6FEA0404B8
:1002EC001F3C1CDA0C340EDC04F11404C4F12002A3
:1002FC0020FA04F001FA02F340EA030021FA04F3B5
:10030C0045EA030130BDC4F10C04C4F1200220FA0B
:10031C0002F001FA04F340EA0300294630BD21FA49
:10032C0004F0294630BD94F0000F83F4801306BF0F
:10033C0081F480110134013D4EE77FEA645C18BF03
:10034C007FEA655C29D094EA050F08BF90EA020F9A
:10035C0005D054EA000C04BF1946104630BD91EA92
:10036C00030F1EBF0021002030BD5FEA545C05D195
:10037C004000494128BF41F0004130BD14F58004D4
:10038C003CBF01F5801130BD01F0004545F0FE4148
:10039C0041F470014FF0000030BD7FEA645C1ABF7D
:1003AC00194610467FEA655C1CBF0B46024650EAB4
:1003BC00013406BF52EA033591EA030F41F40021E0
:1003CC0030BD00BF90F0000F04BF0021704730B566
:1003DC004FF4806404F132044FF000054FF000013B
:1003EC0050E700BF90F0000F04BF0021704730B5FC
:1003FC004FF4806404F1320410F0004548BF4042D1
:10040C004FF000013EE700BF42004FEAE2014FEA25
:10041C0031014FEA02701FBF12F07F4393F07F4F00
:10042C0081F06051704732F07F4208BF704793F003
:10043C007F4F04BF41F40021704730B54FF4607416
:10044C0001F0004521F000411CE700BF50EA010219
:10045C0008BF704730B54FF000050AE050EA0102C2
:10046C0008BF704730B511F0004502D5404261EB32
:10047C0041014FF4806404F132045FEA915C3FF473
:10048C00D8AE4FF003025FEADC0C18BF03325FEA10
:10049C00DC0C18BF033202EBDC02C2F1200300FAC1
:1004AC0003FC20FA02F001FA03FE40EA0E0021FAE6
:1004BC0002F11444BDE600BF70B54FF0FF0C4CF4D4
:1004CC00E06C1CEA11541DBF1CEA135594EA0C0F86
:1004DC0095EA0C0F00F0DEF82C4481EA030621EAC1
:1004EC004C5123EA4C5350EA013518BF52EA0335FC
:1004FC0041F4801143F4801338D0A0FB02CE4FF0AE
:10050C000005E1FB02E506F00042E0FB03E54FF0DD
:10051C000006E1FB03569CF0000F18BF4EF0010ED5
:10052C00A4F1FF04B6F5007F64F5407404D25FEAD1
:10053C004E0E6D4146EB060642EAC62141EA555184
:10054C004FEAC52040EA5E504FEACE2EB4F1FD0CC6
:10055C0088BFBCF5E06F1ED8BEF1004F08BF5FEA44
:10056C00500E50F1000041EB045170BD06F00046F6
:10057C0046EA010140EA020081EA0301B4EB5C04A3
:10058C00C2BFD4EB0C0541EA045170BD41F480119B
:10059C004FF0000E013C00F3AB8014F1360FDEBFC0
:1005AC00002001F0004170BDC4F10004203C35DA9C
:1005BC000C341BDC04F11404C4F1200500FA05F31F
:1005CC0020FA04F001FA05F240EA020001F00042C0
:1005DC0021F0004110EBD37021FA04F642EB060136
:1005EC005EEA430E08BF20EAD37070BDC4F10C0460
:1005FC00C4F1200500FA04F320FA05F001FA04F224
:10060C0040EA020001F0004110EBD37041F100010F
:10061C005EEA430E08BF20EAD37070BDC4F120051A
:10062C0000FA05F24EEA020E20FA04F301FA05F282
:10063C0043EA020321FA04F001F0004121FA04F22A
:10064C0020EA020000EBD3705EEA430E08BF20EAFA
:10065C00D37070BD94F0000F0FD101F00046400034
:10066C0041EB010111F4801F08BF013CF7D041EAB6
:10067C00060195F0000F18BF704703F000465200BA
:10068C0043EB030313F4801F08BF013DF7D043EA8B
:10069C000603704794EA0C0F0CEA135518BF95EA41
:1006AC000C0F0CD050EA410618BF52EA4306D1D1C8
:1006BC0081EA030101F000414FF0000070BD50EAE7
:1006CC00410606BF1046194652EA430619D094EA71
:1006DC000C0F02D150EA013613D195EA0C0F05D15B
:1006EC0052EA03361CBF104619460AD181EA0301AF
:1006FC0001F0004141F0FE4141F470014FF0000067
:10070C0070BD41F0FE4141F4780170BD70B54FF001
:10071C00FF0C4CF4E06C1CEA11541DBF1CEA135581
:10072C0094EA0C0F95EA0C0F00F0A7F8A4EB050463
:10073C0081EA030E52EA03354FEA013100F088805A
:10074C004FEA03334FF0805545EA131343EA126323
:10075C004FEA022245EA111545EA10654FEA0026D8
:10076C000EF000419D4208BF964244F1FD0404F591
:10077C00407402D25B084FEA3202B61A65EB0305ED
:10078C005B084FEA32024FF480104FF4002CB6EBAA
:10079C00020E75EB030E22BFB61A754640EA0C002A
:1007AC005B084FEA3202B6EB020E75EB030E22BF6A
:1007BC00B61A754640EA5C005B084FEA3202B6EBAB
:1007CC00020E75EB030E22BFB61A754640EA9C006A
:1007DC005B084FEA3202B6EB020E75EB030E22BF3A
:1007EC00B61A754640EADC0055EA060E18D04FEAF8
:1007FC00051545EA16754FEA06164FEAC30343EA98
:10080C0052734FEAC2025FEA1C1CC0D111F4801F64
:10081C000BD141EA00014FF000004FF0004CB6E75D
:10082C0011F4801F04BF01430020B4F1FD0C88BFFC
:10083C00BCF5E06F3FF6AFAEB5EB030C04BFB6EB07
:10084C00020C5FEA500C50F1000041EB045170BDFA
:10085C000EF0004E4EEA113114EB5C04C2BFD4EB27
:10086C000C0541EA045170BD41F480114FF0000EAB
:10087C00013C90E645EA060E8DE60CEA135594EA27
:10088C000C0F08BF95EA0C0F3FF43BAF94EA0C0F2A
:10089C000AD150EA01347FF434AF95EA0C0F7FF49F
:1008AC0025AF104619462CE795EA0C0F06D152EAF3
:1008BC0003353FF4FDAE1046194622E750EA4106D7
:1008CC0018BF52EA43067FF4C5AE50EA41047FF4E8
:1008DC000DAF52EA43057FF4EBAE12E74A0011D29A
:1008EC0012F5001211D20DD56FF47873B3EB62527E
:1008FC000ED44FEAC12343F0004343EA505323FA8A
:10090C0002F070474FF00000704750EA013002D1FE
:10091C004FF0FF3070474FF00000704780B483B049
:10092C0000AF1423FB7100BFFB795A1EFA71002B28
:10093C00FAD100BF00BF0C37BD4680BC7047000029
:10094C0080B500AF002240210B4802F03EF9012295
:10095C008021094802F039F9FFF7E0FF012240211C
:10096C00054802F032F900228021034802F02DF9EB
:10097C00FFF7D4FF00BF80BD000C014080B500AF75
:10098C00002240210B4802F020F900228021094866
:10099C0002F01BF901224021064802F016F9FFF77C
:1009AC00BDFF01228021034802F00FF9FFF7B6FFCB
:1009BC0000BF80BD000C014080B584B000AF034681
:1009CC00FB710023FB7324E000224021174802F046
:1009DC00FCF8FFF7A3FF97F90730002B05DA01228B
:1009EC008021124802F0F1F804E0002280210F4827
:1009FC0002F0EBF8FFF792FF012240210B4802F0C6
:100A0C00E4F8FB795B00FB71FFF788FFFB7B01339C
:100A1C00FB73FB7B072BD7D900224021034802F044
:100A2C00D4F800BF1037BD4680BD00BF000C01409C
:100A3C0080B582B000AF01228021114802F0C5F8C8
:100A4C00FFF76CFF012240210D4802F0BEF8FFF7C2
:100A5C0065FF80210A4802F0A1F80346FB71FB797F
:100A6C00002B01D0FFF78AFF00224021044802F03E
:100A7C00ACF8FFF753FF00BF0837BD4680BD00BF81
:100A8C00000C014080B582B000AF0346FB71FFF74C
:100A9C0057FF7820FFF790FFFFF7CAFF0020FFF702
:100AAC008BFFFFF7C5FFFB791846FFF785FFFFF7B4
:100ABC00BFFFFFF763FF00BF0837BD4680BD80B5A1
:100ACC0082B000AF0346FB71FFF73AFF7820FFF7C7
:100ADC0073FFFFF7ADFF4020FFF76EFFFFF7A8FF96
:100AEC00FB791846FFF768FFFFF7A2FFFFF746FFF9
:100AFC0000BF0837BD4680BD80B582B000AF002373
:100B0C00FB7108E0FB79084AD35C1846FFF7BAFF83
:100B1C00FB790133FB71FB79182BF3D900BF00BFB4
:100B2C000837BD4680BD00BF6057000880B582B055
:100B3C0000AF0346FB71FB790233FB71FB791B0998
:100B4C00DBB243F01003DBB21846FFF79BFFFB79D7
:100B5C0003F00F03DBB21846FFF794FF00BF083712
:100B6C00BD4680BD80B582B000AF0346FB71FB79FA
:100B7C00503BDBB21846FFF785FF00BF0837BD4678
:100B8C0080BD80B582B000AF0023FB7116E0FB790D
:100B9C001846FFF7E7FF0020FFF7C8FF0023BB71E3
:100BAC0005E00020FFF78BFFBB790133BB7197F990
:100BBC000630002BF5DAFB790133FB71FB79072B3F
:100BCC00E5D900BF00BF0837BD4680BD80B582B0F7
:100BDC0000AF0023FB711DE0FB791846FFF7C2FF45
:100BEC000020FFF7A3FF0023BB710CE0FA79BB795F
:100BFC000C49D2010A4413441B781846FFF75FFFD7
:100C0C00BB790133BB7197F90630002BEEDAFB7917
:100C1C000133FB71FB79072BDED900BF00BF08370E
:100C2C00BD4680BD8C00002080B485B000AF03466B
:100C3C00FB710B46BB7113467B717B79203B7B713F
:100C4C000023FB7316E07B791A01FB7BD118FB792F
:100C5C00013B5A00F87BBB79013BDB0003441A488B
:100C6C00405C1A49D2010A44134402461A70FB7BB9
:100C7C000133FB73FB7B072BE5D90023FB7319E0D6
:100C8C007B791A01FB7B134403F10801FB79013BCF
:100C9C005B005A1CF87BBB79013BDB0003440A4820
:100CAC00405C0A49D2010A44134402461A70FB7B89
:100CBC000133FB73FB7B072BE2D900BF00BF14375A
:100CCC00BD4680BC704700BF705100088C000020EE
:100CDC0080B582B000AF03463A60FB710B46BB7126
:100CEC0010E03B681A78B979FB791846FFF79CFF3E
:100CFC003B6801333B60BB790133BB71BB7903F0BB
:100D0C000F03BB713B681B78002BEAD100BF00BFFF
:100D1C000837BD4680BD000080B584B000AF3B1DD8
:100D2C0000221A605A609A604A4B4B4A1A60494B2F
:100D3C004FF480729A60474B01221A73454B002284
:100D4C001A75444B4FF46022DA61424B00225A6010
:100D5C00404B08221A613F4800F078FD0346002BF7
:100D6C0001D000F042FB00237B600123BB60022317
:100D7C00FB603B1D1946374800F03AFF0346002B39
:100D8C0001D000F032FB01237B600223BB603B1DD2
:100D9C001946304800F02CFF0346002B01D000F020
:100DAC0024FB02237B600323BB603B1D19462948AF
:100DBC0000F01EFF0346002B01D000F016FB0323AE
:100DCC007B600423BB603B1D1946224800F010FFDA
:100DDC000346002B01D000F008FB04237B600523A5
:100DEC00BB603B1D19461B4800F002FF0346002B5D
:100DFC0001D000F0FAFA05237B600623BB603B1D93
:100E0C001946144800F0F4FE0346002B01D000F004
:100E1C00ECFA06237B600723BB603B1D19460D488B
:100E2C0000F0E6FE0346002B01D000F0DEFA0723AB
:100E3C007B600823BB603B1D1946064800F0D8FEBA
:100E4C000346002B01D000F0D0FA00BF1037BD468E
:100E5C0080BD00BF8C0400200024014080B588B008
:100E6C0000AF786007F1100300221A605A609A6094
:100E7C00DA607B681B68294A93424AD1284B9B69EC
:100E8C00274A43F400739361254B9B6903F4007369
:100E9C00FB60FB68224B9B69214A43F0040393617E
:100EAC001F4B9B6903F00403BB60BB68FF233B61D2
:100EBC0003237B6107F1100319461A4801F0EAFC81
:100ECC00194B1A4A1A60184B00225A60164B002212
:100EDC009A60154B8022DA60134B4FF400721A6142
:100EEC00114B4FF400625A610F4B20229A610E4B4A
:100EFC004FF44052DA610C4801F02EFA0346002BF5
:100F0C0001D000F072FA7B68074A1A62064A7B68C5
:100F1C00536200BF2037BD4680BD00BF0024014096
:100F2C000010024000080140BC04002008000240F0
:100F3C0080B582B000AF0C4B5B690B4A43F00103E8
:100F4C005361094B5B6903F001037B607B680022F2
:100F5C0000210B2001F0C9F90B2001F0E2F900BFD0
:100F6C000837BD4680BD00BF0010024080B588B078
:100F7C0000AF07F1100300221A605A609A60DA6021
:100F8C00234B9B69224A43F010039361204B9B69CE
:100F9C0003F01003FB60FB681D4B9B691C4A43F07C
:100FAC00200393611A4B9B6903F02003BB60BB6861
:100FBC00174B9B69164A43F004039361144B9B69CE
:100FCC0003F004037B607B68114B9B69104A43F070
:100FDC00080393610E4B9B6903F008033B603B686D
:100FEC000122C0210B4801F0F0FDC0233B6111230D
:100FFC007B610123BB610323FB6107F110031946DD
:10100C00044801F047FC00BF2037BD4680BD00BF3F
:10101C0000100240000C014080B485B000AF786035
:10102C000B467B8013463B800023BB813B88FB81B6
:10103C000DE0B7F90E309B007A6813441B689AB226
:10104C00BB891344BB81FB8908339BB2FB81B7F985
:10105C000E207B889A42ECDBBB89054AA2FB03235A
:10106C009B089BB218461437BD4680BC704700BF26
:10107C00CDCCCCCC80B582B000AF78607B681B68DF
:10108C000D4A93420ED10D4B1B78312B05D11022FA
:10109C000B490C4802F03FFF04E007220A490948BB
:1010AC0002F039FF05220549064802F078FF00BF1F
:1010BC000837BD4680BD00BF00380140A0050020A8
:1010CC00E80500206C060020385100082DE9B04FCF
:1010DC008AB002AF00F058FB00F02CF9FFF746FF86
:1010EC00FFF726FF00F03AFAFFF716FE00F0A8FA19
:1010FC0005228549854802F052FF854800F072FFB1
:10110C0028228449824800F079FCFFF7F5FCFFF7B0
:10111C0038FDFFF75BFD0023FB6116E0FB699BB21A
:10112C001A4628217B48FFF777FF03469BB2002223
:10113C00BB60FA60784AFB69DB001344D7E9021202
:10114C00C3E90012FB690133FB61FB69072BE5DD89
:10115C000023BB6145E0704ABB69DB001344D3E953
:10116C00004522462B464FF000004FF0000199003D
:10117C0041EA9271900002460B4612EB040843EBD5
:10118C0005094FF000024FF000034FEA491343EA00
:10119C00D8634FEA481218EB020A49EB030B1AEB1F
:1011AC000A033B604BEB0B037B60D7E900AB524669
:1011BC005B4610461946FFF749F94FF00002574BB2
:1011CC00FFF7A4FA02460B4610461946FFF786FBBA
:1011DC00034699B2524ABB6922F81310BB6901331A
:1011EC00BB61BB69072BB6DD00237B613EE04C4A3B
:1011FC007B6932F813304B4AA2FB03235B099BB289
:10120C001C46474A7B6932F81330464AA2FB03124C
:10121C005209642101FB02F29B1A9BB2424AA2FBC7
:10122C000323DB089BB218463D4A7B6932F8132036
:10123C003D4BA3FB0213D9080B469B000B445B00F0
:10124C00D31A9BB20193009023467A6937493848E8
:10125C0003F0E6FA7B69DBB20133DBB2344A0121DD
:10126C001846FFF735FD7B6901337B617B69032BE6
:10127C00BDDD00233B6143E03B69181D3B69043332
:10128C00274A32F81330274AA2FB03235B099BB28F
:10129C001D463B690433224A32F81330214AA2FB23
:1012AC0003125209642101FB02F29B1A9BB21E4AE3
:1012BC00A2FB0323DB089BB21C463B690433184A90
:1012CC0032F81320184BA3FB0213D9080B469B00D2
:1012DC000B445B00D31A9BB2019300942B4602463D
:1012EC001249134803F09CFA3B69DBB20133DBB2C1
:1012FC000F4A09211846FFF7EBFC3B6901333B61B0
:10130C003B69032BB8DD04E7A00500206C06002028
:10131C008C04002000050020A80500200000B0402F
:10132C00E80500201F85EB51CDCCCCCC40510008FA
:10133C00F805002080B594B000AF07F128032822EF
:10134C000021184603F064FA07F1140300221A6016
:10135C005A609A60DA601A613B1D00221A605A606A
:10136C009A60DA600123BB624FF48033FB62002386
:10137C003B630123BB6302237B644FF48033BB6468
:10138C004FF4E013FB6407F12803184601F036FC18
:10139C000346002B01D000F028F80F237B610223B9
:1013AC00BB610023FB614FF480633B6200237B62D3
:1013BC0007F114030221184601F0A2FE0346002B8C
:1013CC0001D000F012F802237B604FF40043FB6065
:1013DC003B1D184602F02CF80346002B01D000F000
:1013EC0004F800BF5037BD4680BD80B400AF72B664
:1013FC0000BFFEE780B485B000AF154B9B69144A63
:10140C0043F001039361124B9B6903F00103BB6032
:10141C00BB680F4BDB690E4A43F08053D3610C4B16
:10142C00DB6903F080537B607B680A4B5B68FB6075
:10143C00FB6823F0E063FB60FB6843F00073FB6028
:10144C00044AFB68536000BF1437BD4680BC70472C
:10145C00001002400000014080B400AFFEE780B4F1
:10146C0000AFFEE780B400AFFEE780B400AFFEE74C
:10147C0080B400AFFEE780B400AF00BFBD4680BCB7
:10148C00704780B400AF00BFBD4680BC704780B4CD
:10149C0000AF00BFBD4680BC704780B500AF00F008
:1014AC00B9F900BF80BD000080B500AF024801F063
:1014BC00BDF800BF80BD00BFBC04002080B500AFEC
:1014CC00024802F07AF900BF80BD00BF240600205C
:1014DC0080B500AF024802F093FD00BF80BD00BF95
:1014EC006C06002080B586B000AF7860144A154BAE
:1014FC00D31A7B617B693B61134B1B68002B02D1B8
:10150C00114B124A1A60104B1A687B6813443A69E3
:10151C009A4207D203F052F903460C221A604FF09C
:10152C00FF3309E0084B1B68FB60074B1A687B68AC
:10153C001344054A1360FB6818461837BD4680BD36
:10154C00005000200004000020060020C8060020E7
:10155C0080B400AF00BFBD4680BC704780B586B07C
:10156C0000AF07F1080300221A605A609A60DA6033
:10157C003B4600221A605A601E4B4FF080421A60A4
:10158C001C4B40F60F625A601A4B00229A60194BA2
:10159C0041F28732DA60174B00221A61154B802218
:1015AC009A61144802F0BAF80346002B01D0FFF7F9
:1015BC001CFF4FF48053BB6007F1080319460D481C
:1015CC0002F003FA0346002B01D0FFF70EFF0023B5
:1015DC003B6000237B603B461946064802F0DEFB6D
:1015EC000346002B01D0FFF700FF00BF1837BD46A4
:1015FC0080BD00BF2406002080B584B000AF7860A9
:10160C007B681B68B3F1804F13D10C4BDB690B4A21
:10161C0043F00103D361094BDB6903F00103FB6069
:10162C00FB68002200211C2000F05FFE1C2000F053
:10163C0078FE00BF1037BD4680BD00BF00100240D1
:10164C0080B500AF114B124A1A60104B4FF4165272
:10165C005A600E4B00229A600C4B0022DA600B4B46
:10166C0000221A61094B0C225A61084B00229A6124
:10167C00064B0022DA61054802F000FC0346002B01
:10168C0001D0FFF7B2FE00BF80BD00BF6C0600208A
:10169C000038014080B588B000AF786007F11003C6
:1016AC0000221A605A609A60DA607B681B68204AD4
:1016BC00934239D11F4B9B691E4A43F4804393617B
:1016CC001C4B9B6903F48043FB60FB68194B9B69C3
:1016DC00184A43F004039361164B9B6903F004030F
:1016EC00BB60BB684FF400733B6102237B61032337
:1016FC00FB6107F1100319460F4801F0CBF84FF4CA
:10170C0080633B6100237B610023BB6107F1100305
:10171C001946094801F0BEF800220021252000F0EE
:10172C00E4FD252000F0FDFD00BF2037BD4680BD47
:10173C000038014000100240000801400C480D49DF
:10174C000D4A002302E0D458C4500433C4188C4210
:10175C00F9D30A4A0A4C002301E013600432A24276
:10176C00FBD3FFF7F5FE03F02FF8FFF7AFFC704744
:10177C000000002070000020D057000870000020EE
:10178C00C4060020FEE7000080B500AF084B1B68C4
:10179C00074A43F010031360032000F09BFD0F2059
:1017AC0000F008F8FFF726FE0023184680BD00BFA6
:1017BC000020024080B582B000AF7860124B1A68EE
:1017CC00124B1B7819464FF47A73B3FBF1F3B2FB4F
:1017DC00F3F3184600F0B3FD0346002B01D00123B0
:1017EC000EE07B680F2B0AD8002279684FF0FF308F
:1017FC0000F07BFD064A7B681360002300E00123A8
:10180C0018460837BD4680BD0000002008000020A7
:10181C000400002080B400AF054B1B781A46054B22
:10182C001B681344034A136000BFBD4680BC70475D
:10183C0008000020B006002080B400AF024B1B68EB
:10184C001846BD4680BC7047B006002080B586B0F7
:10185C0000AF78600023FB7500233B610023BB6065
:10186C000023FB607B68002B01D10123BEE07B6869
:10187C009B68002B7B689B6A002B09D17B6800223C
:10188C00DA627B68002283F824207868FFF7E6FA96
:10189C00786800F0FFFA0346FB757B689B6A03F0DF
:1018AC001003002B40F09980FB7D002B40F09580BD
:1018BC007B689B6A23F4885323F0020343F00202F3
:1018CC007B689A627B685A687B68DB691A437B6821
:1018DC001B7B5B001343BA681343BB607B689B683C
:1018EC00B3F5807F03D07B689B68012B02D14FF44A
:1018FC00807300E000233A6913433B617B681B7DD6
:10190C00012B19D17B681B7B002B09D17B689B6950
:10191C00013B5A033B69134343F400633B610BE007
:10192C007B689B6A43F020027B689A627B68DB6A67
:10193C0043F001027B68DA627B681B685B6823F406
:10194C0069417B681B683A690A435A607B681B686B
:10195C009A68284B13407A681268B9680B439360F5
:10196C007B689B68B3F5807F03D07B689B68012BF9
:10197C0004D17B681B69013B1B05FB607B681B6802
:10198C00DB6A23F470017B681B68FA680A43DA622D
:10199C007B681B689A68184B1340BA689A420BD143
:1019AC007B680022DA627B689B6A23F0030343F0B6
:1019BC0001027B689A6218E07B689B6A23F0120331
:1019CC0043F010027B689A627B68DB6A43F0010289
:1019DC007B68DA620123FB7507E07B689B6A43F046
:1019EC0010027B689A620123FB75FB7D1846183741
:1019FC00BD4680BDFDF7E1FFFE0E1FFF80B586B032
:101A0C0000AFF860B9607A600023FB75FB681B6857
:101A1C00644A934204D0FB681B68634A934206D124
:101A2C00604B5B6803F47023002B40F0B380FB68C1
:101A3C0093F82430012B01D10223AEE0FB68012284
:101A4C0083F82420F86800F0CBF90346FB75FB7D86
:101A5C00002B40F09A80FB689B6A23F4706323F0A0
:101A6C00010343F48072FB689A62FB681B684E4A60
:101A7C00934205D14B4B5B6803F47023002B15D1BB
:101A8C00FB689B6A23F48012FB689A62FB681B68F4
:101A9C005B6803F48063002B26D0FB689B6A23F4FD
:101AAC00405343F48052FB689A621DE0FB689B6ACA
:101ABC0043F48012FB689A62FB681B68394A9342B4
:101ACC0004D0FB681B68384A93420DD1354B5B68D8
:101ADC0003F48063002B07D0FB689B6A23F440530C
:101AEC0043F48052FB689A62FB689B6A03F4805350
:101AFC00002B06D0FB68DB6A23F00602FB68DA6277
:101B0C0002E0FB680022DA62FB68002283F82420E2
:101B1C00FB681B6A254A9A62FB681B6A244ADA62D4
:101B2C00FB681B6A234A1A63FB681B686FF002028E
:101B3C001A60FB681B689A68FB681B6842F4807229
:101B4C009A60FB68186AFB681B684C331946BA68C4
:101B5C007B6800F05BFCFB681B689B6803F46023EC
:101B6C00B3F5602F08D1FB681B689A68FB681B688B
:101B7C0042F4A0029A600FE0FB681B689A68FB684D
:101B8C001B6842F480129A6006E0FB68002283F81E
:101B9C00242001E00123FB75FB7D18461837BD4658
:101BAC0080BD00BF0024014000280140231F000815
:101BBC009F1F0008BB1F000880B483B000AF786083
:101BCC0000BF0C37BD4680BC704780B483B000AFFB
:101BDC00786000BF0C37BD4680BC704780B483B0C2
:101BEC0000AF786000BF0C37BD4680BC704700006A
:101BFC0080B485B000AF786039600023FB7300239C
:101C0C00BB607B6893F82430012B01D10223DCE00C
:101C1C007B68012283F824203B685B68062B1CD868
:101C2C007B681B68596B3B685A6813469B001344CE
:101C3C00053B1F2202FA03F3DB4319403B6818688B
:101C4C003B685A6813469B001344053B00FA03F2A9
:101C5C007B681B680A435A633CE03B685B680C2B4F
:101C6C001CD87B681B68196B3B685A6813469B0031
:101C7C001344233B1F2202FA03F3DB4319403B6856
:101C8C0018683B685A6813469B001344233B00FAC0
:101C9C0003F27B681B680A431A631BE07B681B68B2
:101CAC00D96A3B685A6813469B001344413B1F2278
:101CBC0002FA03F3DB4319403B6818683B685A6827
:101CCC0013469B001344413B00FA03F27B681B68EC
:101CDC000A43DA623B681B68092B1CD97B681B68BA
:101CEC00D9683B681A6813465B0013441E3B0722F5
:101CFC0002FA03F3DB4319403B6898683B681A68A7
:101D0C0013465B0013441E3B00FA03F27B681B680E
:101D1C000A43DA6019E07B681B6819693B681A682A
:101D2C0013465B001344072202FA03F3DB4319400A
:101D3C003B6898683B681A6813465B00134400FACA
:101D4C0003F27B681B680A431A613B681B68102B03
:101D5C0003D03B681B68112B32D17B681B681D4A72
:101D6C00934225D17B681B689B6803F40003002B0E
:101D7C0026D17B681B689A687B681B6842F400025A
:101D8C009A603B681B68102B1AD1134B1B68134AC3
:101D9C00A2FB03239A0C13469B0013445B00BB600D
:101DAC0002E0BB68013BBB60BB68002BF9D107E0CC
:101DBC007B689B6A43F020027B689A620123FB7369
:101DCC007B68002283F82420FB7B18461437BD4621
:101DDC0080BC7047002401400000002083DE1B43C0
:101DEC0080B584B000AF78600023FB600023BB603B
:101DFC007B681B689B6803F00103012B40D07B6858
:101E0C001B689A687B681B6842F001029A601F4B42
:101E1C001B681F4AA2FB03239B0CBB6002E0BB6840
:101E2C00013BBB60BB68002BF9D1FFF705FDF860E7
:101E3C001FE0FFF701FD0246FB68D31A022B18D9ED
:101E4C007B681B689B6803F00103012B11D07B6836
:101E5C009B6A43F010027B689A627B68DB6A43F0F2
:101E6C0001027B68DA627B68002283F8242001235C
:101E7C0007E07B681B689B6803F00103012BD8D13A
:101E8C00002318461037BD4680BD00BF000000205F
:101E9C0083DE1B4380B584B000AF78600023FB6009
:101EAC007B681B689B6803F00103012B2ED17B68B8
:101EBC001B689A687B681B6822F001029A60FFF726
:101ECC00BBFCF8601BE0FFF7B7FC0246FB68D31ABB
:101EDC00022B14D97B681B689B6803F00103012B50
:101EEC000DD17B689B6A43F010027B689A627B6819
:101EFC00DB6A43F001027B68DA62012307E07B684E
:101F0C001B689B6803F00103012BDCD000231846EF
:101F1C001037BD4680BD80B584B000AF78607B685B
:101F2C005B6AFB60FB689B6A03F05003002B27D1B4
:101F3C00FB689B6A43F40072FB689A62FB681B683F
:101F4C009B6803F46023B3F5602F15D1FB681B7BF2
:101F5C00002B11D1FB689B6A23F48072FB689A6298
:101F6C00FB689B6A03F48053002B05D1FB689B6ACA
:101F7C0043F00102FB689A62F868FFF71DFE04E06B
:101F8C00FB681B6A1B6B7868984700BF1037BD460F
:101F9C0080BD80B584B000AF78607B685B6AFB6005
:101FAC00F868FFF712FE00BF1037BD4680BD80B544
:101FBC0084B000AF78607B685B6AFB60FB689B6AEF
:101FCC0043F04002FB689A62FB68DB6A43F0040250
:101FDC00FB68DA62F868FFF701FE00BF1037BD46F8
:101FEC0080BD000090B587B000AF78600023FB7512
:101FFC000023FB607B6893F82430012B01D1022372
:10200C0095E07B68012283F824207868FFF742FF73
:10201C000346FB75FB7D002B40F084807B689B6A3C
:10202C0023F4885323F0020343F002027B689A6284
:10203C00414B1C68022001F0B1FA0346B4FBF3F3E8
:10204C005B00FB6002E0FB68013BFB60FB68002B64
:10205C00F9D17868FFF7C4FE7B681B689A687B68C7
:10206C001B6842F008029A60FFF7E6FB38611BE040
:10207C00FFF7E2FB02463B69D31A0A2B14D97B68A3
:10208C001B689B6803F00803002B0DD07B689B6AD0
:10209C0023F0120343F010027B689A627B680022E3
:1020AC0083F82420012342E07B681B689B6803F0C3
:1020BC000803002BDCD17B681B689A687B681B6863
:1020CC0042F004029A60FFF7B7FB38611BE0FFF7A0
:1020DC00B3FB02463B69D31A0A2B14D97B681B68E5
:1020EC009B6803F00403002B0DD07B689B6A23F0E4
:1020FC00120343F010027B689A627B68002283F81B
:10210C002420012313E07B681B689B6803F0040305
:10211C00002BDCD17B689B6A23F0030343F00102A4
:10212C007B689A627B68002283F82420FB7D18462A
:10213C001C37BD4690BD00BF0000002080B485B0A8
:10214C0000AF78607B6803F00703FB600C4BDB6827
:10215C00BB60BA684FF6FF031340BB60FB681A0202
:10216C00BB68134343F0BF6343F40033BB60044AC2
:10217C00BB68D36000BF1437BD4680BC704700BF3E
:10218C0000ED00E080B400AF044BDB681B0A03F0E9
:10219C0007031846BD4680BC704700BF00ED00E049
:1021AC0080B483B000AF0346FB7197F90730002B66
:1021BC000BDBFB7903F01F02064997F907305B092B
:1021CC00012000FA02F241F8232000BF0C37BD4673
:1021DC0080BC704700E100E080B483B000AF0346E0
:1021EC003960FB7197F90730002B0ADB3B68DAB2D8
:1021FC000C4997F907301201D2B20B4483F8002333
:10220C000AE03B68DAB20849FB7903F00F03043BA0
:10221C001201D2B20B441A7600BF0C37BD4680BCFB
:10222C00704700BF00E100E000ED00E080B489B031
:10223C0000AFF860B9607A60FB6803F00703FB61DC
:10224C00FB69C3F10703042B28BF0423BB61FB69A3
:10225C000433062B02D9FB69033B00E000237B61AE
:10226C004FF0FF32BB6902FA03F3DA43BB681A4042
:10227C007B699A404FF0FF317B6901FA03F3D94334
:10228C007B680B40134318462437BD4680BC70470F
:10229C0080B582B000AF78607B68013BB3F1807F82
:1022AC0001D301230FE00A4A7B68013B53600F21E5
:1022BC004FF0FF30FFF790FF054B00229A60044B64
:1022CC0007221A60002318460837BD4680BD00BFA0
:1022DC0010E000E080B582B000AF78607868FFF75E
:1022EC002DFF00BF0837BD4680BD80B586B000AF5E
:1022FC000346B9607A60FB7300237B61FFF742FFF2
:10230C0078617A68B9687869FFF790FF024697F9A7
:10231C000F3011461846FFF75FFF00BF1837BD4658
:10232C0080BD80B582B000AF0346FB7197F90730D2
:10233C001846FFF735FF00BF0837BD4680BD80B596
:10234C0082B000AF78607868FFF7A2FF03461846AA
:10235C000837BD4680BD000080B485B000AF786002
:10236C000023FB607B68002B01D1012343E07B68D9
:10237C001B681A46224B1344224AA2FB03231B0957
:10238C009A007B681A647B681F4ADA637B680222B6
:10239C0083F821207B681B681B68FB60FB6823F4B7
:1023AC007F5323F03003FB607B685A687B689B6823
:1023BC001A437B68DB681A437B681B691A437B688A
:1023CC005B691A437B689B691A437B68DB6913431F
:1023DC00FA681343FB607B681B68FA681A607B68B9
:1023EC0000229A637B68012283F821207B680022FB
:1023FC0083F82020002318461437BD4680BC704754
:10240C00F8FFFDBFCDCCCCCC0000024080B586B02F
:10241C0000AFF860B9607A603B600023FB75FB6825
:10242C0093F82030012B01D102234AE0FB680122F2
:10243C0083F82020FB6893F82130012B3AD1FB68FC
:10244C00022283F82120FB6800229A63FB681B6838
:10245C001A68FB681B6822F001021A603B687A68F4
:10246C00B968F86800F0E8F9FB68DB6A002B08D063
:10247C00FB681B681A68FB681B6842F00E021A6046
:10248C000FE0FB681B681A68FB681B6822F00402EB
:10249C001A60FB681B681A68FB681B6842F00A022A
:1024AC001A60FB681B681A68FB681B6842F0010223
:1024BC001A6005E0FB68002283F820200223FB75DC
:1024CC00FB7D18461837BD4680BD80B485B000AF83
:1024DC0078600023FB737B6893F82130022B08D0C3
:1024EC007B6804229A637B68002283F820200123F6
:1024FC0020E07B681B681A687B681B6822F00E0260
:10250C001A607B681B681A687B681B6822F00102E2
:10251C001A607B681A6C7B68DB6B012101FA02F292
:10252C005A607B68012283F821207B68002283F8A3
:10253C002020FB7B18461437BD4680BC704700003A
:10254C0080B584B000AF78600023FB737B6893F890
:10255C002130022B05D07B6804229A630123FB7384
:10256C0051E07B681B681A687B681B6822F00E02BE
:10257C001A607B681B681A687B681B6822F0010272
:10258C001A607B681B68224A934229D07B681B68BF
:10259C00204A934222D07B681B681F4A93421AD070
:1025AC007B681B681D4A934212D07B681B681C4ACF
:1025BC0093420AD07B681B681A4A934202D14FF4AB
:1025CC0080130EE04FF080730BE04FF4803308E083
:1025DC004FF4805305E04FF4807302E0102300E0C9
:1025EC000123114A53607B68012283F821207B6808
:1025FC00002283F820207B685B6B002B03D07B6868
:10260C005B6B78689847FB7B18461037BD4680BDDE
:10261C00080002401C00024030000240440002400E
:10262C00580002406C0002400000024080B584B0AB
:10263C0000AF78607B68DB6B1B68FB607B681B689A
:10264C001B68BB607B681B6C04229A40FB681340C0
:10265C00002B4FD0BB6803F00403002B4AD07B68DF
:10266C001B681B6803F02003002B07D17B681B68D9
:10267C001A687B681B6822F004021A607B681B686E
:10268C00664A934229D07B681B68654A934222D0E4
:10269C007B681B68634A93421AD07B681B68624A4A
:1026AC00934212D07B681B68604A93420AD07B68C5
:1026BC001B685F4A934202D14FF480030EE04FF047
:1026CC0080630BE04FF4802308E04FF4804305E077
:1026DC004FF4806302E0402300E00423554A53602A
:1026EC007B68DB6A002B00F094807B68DB6A78687F
:1026FC0098478EE07B681B6C02229A40FB68134063
:10270C00002B56D0BB6803F00203002B51D07B6822
:10271C001B681B6803F02003002B0BD17B681B6824
:10272C001A687B681B6822F00A021A607B68012217
:10273C0083F821207B681B68384A934229D07B6838
:10274C001B68374A934222D07B681B68354A9342F8
:10275C001AD07B681B68344A934212D07B681B6882
:10276C00324A93420AD07B681B68314A934202D1A9
:10277C004FF400130EE04FF000730BE04FF40033F6
:10278C0008E04FF4005305E04FF4007302E02023FF
:10279C0000E00223274A53607B68002283F8202044
:1027AC007B689B6A002B34D07B689B6A786898475F
:1027BC002FE07B681B6C08229A40FB681340002BAF
:1027CC0028D0BB6803F00803002B23D07B681B6860
:1027DC001A687B681B6822F00E021A607B681A6C00
:1027EC007B68DB6B012101FA02F25A607B680122E3
:1027FC009A637B68012283F821207B68002283F88E
:10280C0020207B681B6B002B04D07B681B6B7868CB
:10281C00984700BF00BF1037BD4680BD080002407E
:10282C001C000240300002404400024058000240AC
:10283C006C0002400000024080B485B000AFF8602C
:10284C00B9607A603B60FB681A6CFB68DB6B01213A
:10285C0001FA02F25A60FB681B683A685A60FB681E
:10286C005B68102B08D1FB681B687A689A60FB6860
:10287C001B68BA68DA6007E0FB681B68BA689A6084
:10288C00FB681B687A68DA6000BF1437BD4680BCF1
:10289C007047000080B48BB000AF786039600023C3
:1028AC007B6200233B6269E101227B6A02FA03F33B
:1028BC00FB613B681B68FA691340BB61BA69FB6931
:1028CC009A4240F058813B685B689A4A93425ED0CA
:1028DC00984A934275D8984A934258D0964A934254
:1028EC006FD8964A934252D0944A934269D8944AEC
:1028FC0093424CD0924A934263D8924A934246D028
:10290C00904A93425DD8122B2AD8122B59D801A287
:10291C0052F823F09B290008752900088729000824
:10292C00C9290008CF290008CF290008CF290008A1
:10293C00CF290008CF290008CF290008CF2900088B
:10294C00CF290008CF290008CF290008CF2900087B
:10295C00CF290008CF2900087D29000891290008FB
:10296C00794A934213D02CE03B68DB683B6229E048
:10297C003B68DB6804333B6224E03B68DB6808336C
:10298C003B621FE03B68DB680C333B621AE03B6840
:10299C009B68002B02D104233B6213E03B689B68CD
:1029AC00012B05D108233B627B68FA691A6109E0A7
:1029BC0008233B627B68FA695A6103E000233B629F
:1029CC0000E000BFBB69FF2B01D87B6801E07B688E
:1029DC0004337B61BB69FF2B02D87B6A9B0002E04E
:1029EC007B6A083B9B003B617B691A680F213B6942
:1029FC0001FA03F3DB431A40396A3B6901FA03F32A
:102A0C001A437B691A603B685B6803F08053002BA8
:102A1C0000F0B1804D4B9B694C4A43F0010393612C
:102A2C004A4B9B6903F00103BB60BB68484A7B6A55
:102A3C009B08023352F82330FB607B6A03F00303DC
:102A4C009B000F2202FA03F3DB43FA681340FB608E
:102A5C007B68404A934213D07B683F4A93420DD027
:102A6C007B683E4A934207D07B683D4A934201D132
:102A7C00032306E0042304E0022302E0012300E028
:102A8C0000237A6A02F0030292009340FA6813431F
:102A9C00FB602F497B6A9B080233FA6841F82320BC
:102AAC003B685B6803F48033002B06D02D4B1A680F
:102ABC002C49BB6913430B6006E02A4B1A68BB69AF
:102ACC00DB43284913400B603B685B6803F400331D
:102ADC00002B06D0234B5A682249BB6913434B6029
:102AEC0006E0204B5A68BB69DB431E4913404B6020
:102AFC003B685B6803F48013002B06D0194B9A6873
:102B0C001849BB6913438B6006E0164B9A68BB6986
:102B1C00DB43144913408B603B685B6803F4001380
:102B2C00002B21D00F4BDA680E49BB691343CB60E5
:102B3C0021E000BF00003210000031100000221014
:102B4C0000002110000012100000111000100240B3
:102B5C000000014000080140000C01400010014041
:102B6C0000140140000401400B4BDA68BB69DB43E5
:102B7C0009491340CB607B6A01337B623B681A685E
:102B8C007B6A22FA03F3002B7FF48EAE00BF00BFEA
:102B9C002C37BD4680BC70470004014080B485B022
:102BAC0000AF78600B467B807B689A687B8813400B
:102BBC00002B02D00123FB7301E00023FB73FB7B92
:102BCC0018461437BD4680BC704780B483B000AF44
:102BDC0078600B467B8013467B707B78002B03D090
:102BEC007A887B681A6103E07B881A047B681A6117
:102BFC0000BF0C37BD4680BC7047000080B586B066
:102C0C0000AF78607B68002B01D1012372E27B68F6
:102C1C001B6803F00103002B00F08780924B5B686C
:102C2C0003F00C03042B0CD08F4B5B6803F00C03EC
:102C3C00082B12D18C4B5B6803F48033B3F5803FC7
:102C4C000BD1894B1B6803F40033002B6CD07B68D1
:102C5C005B68002B68D101234CE27B685B68B3F5A1
:102C6C00803F06D1804B1B687F4A43F4803313604E
:102C7C002EE07B685B68002B0CD17B4B1B687A4A7F
:102C8C0023F480331360784B1B68774A23F480233A
:102C9C0013601DE07B685B68B3F5A02F0CD1724B01
:102CAC001B68714A43F4802313606F4B1B686E4A98
:102CBC0043F4803313600BE06B4B1B686A4A23F4BC
:102CCC0080331360684B1B68674A23F480231360BE
:102CDC007B685B68002B13D0FEF7AEFD386108E013
:102CEC00FEF7AAFD02463B69D31A642B01D90323D4
:102CFC0000E25D4B1B6803F40033002BF0D014E0B2
:102D0C00FEF79AFD386108E0FEF796FD02463B6936
:102D1C00D31A642B01D90323ECE1534B1B6803F446
:102D2C000033002BF0D100E000BF7B681B6803F080
:102D3C000203002B63D04C4B5B6803F00C03002B9D
:102D4C000BD0494B5B6803F00C03082B1CD1464B92
:102D5C005B6803F48033002B16D1434B1B6803F0E4
:102D6C000203002B05D07B681B69012B01D00123CA
:102D7C00C0E13D4B1B6823F0F8027B685B69DB000C
:102D8C00394913430B603AE07B681B69002B20D058
:102D9C00364B01221A60FEF74FFD386108E0FEF752
:102DAC004BFD02463B69D31A022B01D90323A1E147
:102DBC002D4B1B6803F00203002BF0D02A4B1B6831
:102DCC0023F0F8027B685B69DB00274913430B6037
:102DDC0015E0264B00221A60FEF72EFD386108E044
:102DEC00FEF72AFD02463B69D31A022B01D90323B5
:102DFC0080E11D4B1B6803F00203002BF0D17B68B4
:102E0C001B6803F00803002B3AD07B689B69002BEE
:102E1C0019D0174B01221A60FEF70EFD386108E03D
:102E2C00FEF70AFD02463B69D31A022B01D9032394
:102E3C0060E10D4B5B6A03F00203002BF0D0012024
:102E4C0000F0D8FA1CE00A4B00221A60FEF7F4FCE2
:102E5C0038610FE0FEF7F0FC02463B69D31A022BF7
:102E6C0008D9032346E100BF001002400000424293
:102E7C0080044242924B5B6A03F00203002BE9D1BF
:102E8C007B681B6803F00403002B00F0A680002372
:102E9C00FB758B4BDB6903F08053002B0DD1884BFA
:102EAC00DB69874A43F08053D361854BDB6903F0C0
:102EBC008053BB60BB680123FB75824B1B6803F41A
:102ECC008073002B18D17F4B1B687E4A43F48073B0
:102EDC001360FEF7B1FC386108E0FEF7ADFC02466A
:102EEC003B69D31A642B01D9032303E1754B1B688F
:102EFC0003F48073002BF0D07B68DB68012B06D1C8
:102F0C006F4B1B6A6E4A43F0010313622DE07B6822
:102F1C00DB68002B0CD16A4B1B6A694A23F0010356
:102F2C001362674B1B6A664A23F0040313621CE0AE
:102F3C007B68DB68052B0CD1614B1B6A604A43F044
:102F4C00040313625E4B1B6A5D4A43F00103136278
:102F5C000BE05B4B1B6A5A4A23F001031362584B7C
:102F6C001B6A574A23F0040313627B68DB68002B4F
:102F7C0015D0FEF761FC38610AE0FEF75DFC0246F5
:102F8C003B69D31A41F28832934201D90323B1E051
:102F9C004B4B1B6A03F00203002BEED014E0FEF740
:102FAC004BFC38610AE0FEF747FC02463B69D31A3A
:102FBC0041F28832934201D903239BE0404B1B6AB8
:102FCC0003F00203002BEED1FB7D012B05D13C4B12
:102FDC00DB693B4A23F08053D3617B68DB69002BB0
:102FEC0000F08780364B5B6803F00C03082B61D034
:102FFC007B68DB69022B46D1334B00221A60FEF74B
:10300C001BFC386108E0FEF717FC02463B69D31A3B
:10301C00022B01D903236DE0294B1B6803F00073CD
:10302C00002BF0D17B681B6AB3F5803F08D1244B91
:10303C005B6823F400327B689B68214913434B6027
:10304C001F4B5B6823F474127B68196A7B685B6A9C
:10305C000B431B4913434B601B4B01221A60FEF7B9
:10306C00EBFB386108E0FEF7E7FB02463B69D31A3D
:10307C00022B01D903233DE0114B1B6803F00073B5
:10308C00002BF0D035E0104B00221A60FEF7D4FB79
:10309C00386108E0FEF7D0FB02463B69D31A022BDD
:1030AC0001D9032326E0064B1B6803F00073002BA9
:1030BC00F0D11EE07B68DB69012B07D1012319E0FD
:1030CC000010024000700040600042420B4B5B68F5
:1030DC00FB60FB6803F480327B681B6A9A4206D162
:1030EC00FB6803F470127B685B6A9A4201D001237F
:1030FC0000E0002318461837BD4680BD0010024082
:10310C0080B584B000AF786039607B68002B01D14A
:10311C000123D0E06A4B1B6803F007033A689A421C
:10312C0010D9674B1B6823F0070265493B681343B2
:10313C000B60634B1B6803F007033A689A4201D09B
:10314C000123B8E07B681B6803F00203002B20D03E
:10315C007B681B6803F00403002B05D0594B5B689C
:10316C00584A43F4E06353607B681B6803F0080320
:10317C00002B05D0534B5B68524A43F460535360A9
:10318C00504B5B6823F0F0027B689B684D491343FE
:10319C004B607B681B6803F00103002B40D07B68FD
:1031AC005B68012B07D1474B1B6803F40033002BE2
:1031BC0015D101237FE07B685B68022B07D1414B63
:1031CC001B6803F00073002B09D1012373E03D4B06
:1031DC001B6803F00203002B01D101236BE0394B78
:1031EC005B6823F003027B685B68364913434B60D2
:1031FC00FEF722FBF8600AE0FEF71EFB0246FB68B6
:10320C00D31A41F28832934201D9032353E02D4B58
:10321C005B6803F00C027B685B689B009A42EBD105
:10322C00274B1B6803F007033A689A4210D2244BD1
:10323C001B6823F0070222493B6813430B60204BA9
:10324C001B6803F007033A689A4201D0012332E06D
:10325C007B681B6803F00403002B08D0194B5B68D8
:10326C0023F4E0627B68DB68164913434B607B6890
:10327C001B6803F00803002B09D0124B5B6823F486
:10328C0060527B681B69DB000E4913434B6000F0F6
:10329C0021F802460B4B5B681B0903F00F030A492C
:1032AC00CB5C22FA03F3094A1360094B1B681846DE
:1032BC00FEF780FA002318461037BD4680BD00BFCC
:1032CC0000200240001002407C5700080000002043
:1032DC000400002090B48AB000AF294B3C1D0FCBEA
:1032EC0084E80F0040F201233B800023FB610023A4
:1032FC00BB6100237B6200237B6100233B62214B7B
:10330C005B68FB61FB6903F00C03042B02D0082BF8
:10331C0003D02BE01C4B3B622BE0FB699B0C03F0B6
:10332C000F0328333B4413F8243C7B61FB6903F403
:10333C008033002B12D0134B5B685B0C03F0010342
:10334C0028333B4413F8283CBB617B690E4A03FBD2
:10335C0002F2BB69B2FBF3F37B6204E07B690B4ABC
:10336C0002FB03F37B627B6A3B6202E0064B3B622F
:10337C0000BF3B6A18462837BD4690BC704700BF5B
:10338C00505100080010024000127A0000093D0064
:10339C0080B400AF024B1B681846BD4680BC70471A
:1033AC000000002080B500AFFFF7F2FF0246054B8E
:1033BC005B681B0A03F007030349CB5C22FA03F397
:1033CC00184680BD001002408C57000880B500AF35
:1033DC00FFF7DEFF0246054B5B68DB0A03F00703D1
:1033EC000349CB5C22FA03F3184680BD001002405F
:1033FC008C57000880B485B000AF78600A4B1B680E
:10340C000A4AA2FB03235B0A7A6802FB03F3FB6004
:10341C0000BFFB685A1EFA60002BF9D100BF00BF39
:10342C001437BD4680BC704700000020D34D62109D
:10343C0080B586B000AF786000233B610023FB6051
:10344C007B681B6803F00103002B7DD00023FB7508
:10345C004F4BDB6903F08053002B0DD14C4BDB69D8
:10346C004B4A43F08053D361494BDB6903F08053E3
:10347C00BB60BB680123FB75464B1B6803F4807370
:10348C00002B18D1434B1B68424A43F480731360E2
:10349C00FEF7D2F9386108E0FEF7CEF902463B6937
:1034AC00D31A642B01D903236DE03A4B1B6803F448
:1034BC008073002BF0D0364B1B6A03F44073FB6017
:1034CC00FB68002B2ED07B685B6803F44073FA68B2
:1034DC009A4227D02E4B1B6A23F44073FB602E4B71
:1034EC0001221A602C4B00221A60294AFB681362D5
:1034FC00FB6803F00103002B14D0FEF79DF9386133
:10350C000AE0FEF799F902463B69D31A41F2883278
:10351C00934201D9032336E01D4B1B6A03F00203CF
:10352C00002BEED01A4B1B6A23F440727B685B684D
:10353C00174913430B62FB7D012B05D1144BDB693F
:10354C00134A23F08053D3617B681B6803F002039A
:10355C00002B08D00E4B5B6823F440427B689B68C1
:10356C000B4913434B607B681B6803F01003002B63
:10357C0008D0074B5B6823F480027B68DB68044946
:10358C0013434B60002318461837BD4680BD00BF5F
:10359C0000100240007000404004424290B58DB0D3
:1035AC0000AF7860584B07F10C040FCB84E80F0088
:1035BC0040F201233B8100237B620023FB6200234A
:1035CC003B620023FB610023BB627B68102B0AD09B
:1035DC007B68102B00F28E807B68012B49D07B68B6
:1035EC00022B79D086E0494B5B68FB61474B1B682B
:1035FC0003F08073002B7FD0FB699B0C03F00F034F
:10360C0030333B4413F8243C3B62FB6903F48033B6
:10361C00002B17D03D4B5B685B0C03F00103303380
:10362C003B4413F8283C7B62FB6903F48033002B8A
:10363C000DD0374A7B6AB2FBF3F23B6A02FB03F311
:10364C00FB6204E03B6A334A02FB03F3FB622F4B41
:10365C005B6803F48003B3F5800F02D1FB6ABB6295
:10366C004AE0FB6A5B002C4AA2FB03235B08BB62AB
:10367C0042E0264B1B6AFB61FB6903F44073B3F514
:10368C00807F08D1FB6903F00203002B03D04FF4B9
:10369C000043BB621FE0FB6903F44073B3F5007F8A
:1036AC0009D11A4B5B6A03F00203002B03D049F6D5
:1036BC004043BB620FE0FB6903F44073B3F5407FFA
:1036CC001CD1124B1B6803F40033002B16D04FF2A5
:1036DC002443BB6212E011E0FFF778FE02460B4B6D
:1036EC005B689B0B03F0030301335B00B2FBF3F34A
:1036FC00BB6204E000BF02E000BF00E000BFBB6A99
:10370C0018463437BD4690BD605100080010024089
:10371C0000127A0000093D00ABAAAAAA80B582B0BB
:10372C0000AF78607B68002B01D1012341E07B68FE
:10373C0093F83D30DBB2002B06D17B68002283F876
:10374C003C207868FDF758FF7B68022283F83D2007
:10375C007B681A687B6804331946104600F026FA19
:10376C007B68012283F846207B68012283F83E2087
:10377C007B68012283F83F207B68012283F840207C
:10378C007B68012283F841207B68012283F8422068
:10379C007B68012283F843207B68012283F8442054
:1037AC007B68012283F845207B68012283F83D2049
:1037BC00002318460837BD4680BD80B582B000AFE7
:1037CC0078607B681B681B6903F00203022B22D113
:1037DC007B681B68DB6803F00203022B1BD17B6840
:1037EC001B686FF002021A617B6801221A777B68F2
:1037FC001B689B6903F00303002B03D0786800F06F
:10380C00BAF905E0786800F0ADF9786800F0BCF919
:10381C007B6800221A777B681B681B6903F0040322
:10382C00042B22D17B681B68DB6803F00403042B98
:10383C001BD17B681B686FF004021A617B68022243
:10384C001A777B681B689B6903F44073002B03D0C9
:10385C00786800F090F905E0786800F083F97868F2
:10386C0000F092F97B6800221A777B681B681B6951
:10387C0003F00803082B22D17B681B68DB6803F07C
:10388C000803082B1BD17B681B686FF008021A61B8
:10389C007B6804221A777B681B68DB6903F00303DF
:1038AC00002B03D0786800F066F905E0786800F02A
:1038BC0059F9786800F068F97B6800221A777B6800
:1038CC001B681B6903F01003102B22D17B681B684B
:1038DC00DB6803F01003102B1BD17B681B686FF0A7
:1038EC0010021A617B6808221A777B681B68DB69F7
:1038FC0003F44073002B03D0786800F03CF905E02A
:10390C00786800F02FF9786800F03EF97B680022A7
:10391C001A777B681B681B6903F00103012B0ED11E
:10392C007B681B68DB6803F00103012B07D17B6804
:10393C001B686FF001021A61786800F00AF97B6865
:10394C001B681B6903F08003802B0ED17B681B68FE
:10395C00DB6803F08003802B07D17B681B686FF05A
:10396C0080021A61786800F080FA7B681B681B691A
:10397C0003F04003402B0ED17B681B68DB6803F01F
:10398C004003402B07D17B681B686FF040021A6123
:10399C00786800F002F97B681B681B6903F0200350
:1039AC00202B0ED17B681B68DB6803F02003202BD7
:1039BC0007D17B681B686FF020021A61786800F0F1
:1039CC004BFA00BF0837BD4680BD80B584B000AF50
:1039DC00786039607B6893F83C30012B01D102236D
:1039EC00B3E07B68012283F83C207B68022283F8D9
:1039FC003D207B681B689B68FB60FB6823F07703AA
:103A0C00FB60FB6823F47F43FB607B681B68FA68F0
:103A1C009A603B681B68B3F5005F3ED0B3F5005F5E
:103A2C0000F28780B3F5805F00F08580B3F5805F8E
:103A3C007FD8702B1AD0702B7BD8602B50D0602B7A
:103A4C0077D8502B3CD0502B73D8402B58D0402BD0
:103A5C006FD8302B64D0302B6BD8202B60D0202B20
:103A6C0067D8002B5CD0102B5AD062E07B681868AA
:103A7C003B6899683B685A683B68DB6800F06FF9F3
:103A8C007B681B689B68FB60FB6843F07703FB60FB
:103A9C007B681B68FA689A604EE07B6818683B6824
:103AAC0099683B685A683B68DB6800F058F97B689A
:103ABC001B689A687B681B6842F480429A603BE002
:103ACC007B6818683B6859683B68DB681A4600F0ED
:103ADC00CFF87B681B685021184600F026F92BE0C4
:103AEC007B6818683B6859683B68DB681A4600F0CD
:103AFC00EDF87B681B686021184600F016F91BE096
:103B0C007B6818683B6859683B68DB681A4600F0AC
:103B1C00AFF87B681B684021184600F006F90BE0F3
:103B2C007B681A683B681B681946104600F0FDF864
:103B3C0002E000BF00E000BF7B68012283F83D205B
:103B4C007B68002283F83C20002318461037BD46C2
:103B5C0080BD80B483B000AF786000BF0C37BD4629
:103B6C0080BC704780B483B000AF786000BF0C3766
:103B7C00BD4680BC704780B483B000AF786000BF96
:103B8C000C37BD4680BC704780B483B000AF786002
:103B9C0000BF0C37BD4680BC704780B483B000AF0B
:103BAC00786000BF0C37BD4680BC704780B485B0D0
:103BBC0000AF786039607B681B68FB607B68294AC2
:103BCC0093420BD07B68B3F1804F07D07B68264AB9
:103BDC00934203D07B68254A934208D1FB6823F0BB
:103BEC007003FB603B685B68FA681343FB607B689F
:103BFC001C4A93420BD07B68B3F1804F07D07B6893
:103C0C00194A934203D07B68184A934208D1FB6847
:103C1C0023F44073FB603B68DB68FA681343FB607A
:103C2C00FB6823F080023B685B691343FB607B6895
:103C3C00FA681A603B689A687B68DA623B681A68B3
:103C4C007B689A627B68074A934203D13B681A6986
:103C5C007B681A637B6801225A6100BF1437BD462A
:103C6C0080BC7047002C014000040040000800405C
:103C7C0080B487B000AFF860B9607A60FB681B6AEB
:103C8C007B61FB681B6A23F00102FB681A62FB680C
:103C9C009B693B613B6923F0F0033B617B681B0133
:103CAC003A6913433B617B6923F00A037B617A69B0
:103CBC00BB6813437B61FB683A699A61FB687A695C
:103CCC001A6200BF1C37BD4680BC704780B487B0F9
:103CDC0000AFF860B9607A60FB681B6A23F01002D1
:103CEC00FB681A62FB689B697B61FB681B6A3B6122
:103CFC007B6923F470437B617B681B037A691343F4
:103D0C007B613B6923F0A0033B61BB681B013A69F3
:103D1C0013433B61FB687A699A61FB683A691A62E2
:103D2C0000BF1C37BD4680BC704780B485B000AF67
:103D3C00786039607B689B68FB60FB6823F07003DC
:103D4C00FB603A68FB68134343F00703FB607B6836
:103D5C00FA689A6000BF1437BD4680BC704780B4C7
:103D6C0087B000AFF860B9607A603B60FB689B6815
:103D7C007B617B6923F47F437B613B681A027B6820
:103D8C001A43BB6813437A6913437B61FB687A69F6
:103D9C009A6000BF1C37BD4680BC704780B485B0AC
:103DAC0000AF786039607B6893F83C30012B01D10F
:103DBC00022346E07B68012283F83C207B680222C8
:103DCC0083F83D207B681B685B68FB607B681B6825
:103DDC009B68BB60FB6823F07003FB603B681B684F
:103DEC00FA681343FB607B681B68FA685A607B684F
:103DFC001B68164A93420ED07B681B68B3F1804F48
:103E0C0009D07B681B68124A934204D07B681B68FC
:103E1C00104A93420CD1BB6823F08003BB603B6813
:103E2C005B68BA681343BB607B681B68BA689A60AE
:103E3C007B68012283F83D207B68002283F83C20BC
:103E4C00002318461437BD4680BC7047002C014037
:103E5C00000400400008004080B483B000AF7860DC
:103E6C0000BF0C37BD4680BC704780B483B000AF38
:103E7C00786000BF0C37BD4680BC704780B582B0FF
:103E8C0000AF78607B68002B01D101233FE07B6899
:103E9C0093F83D30DBB2002B06D17B68002283F80F
:103EAC003C207868FDF7F6FB7B68242283F83D20E4
:103EBC007B681B68DA687B681B6822F40052DA6046
:103ECC00786800F0EDFB7B681B681A697B681B68DF
:103EDC0022F490421A617B681B685A697B681B68E4
:103EEC0022F02A025A617B681B68DA687B681B68BF
:103EFC0042F40052DA607B6800221A647B6820224C
:103F0C0083F83D207B68202283F83E20002318464E
:103F1C000837BD4680BD80B485B000AFF860B9608D
:103F2C001346FB80FB6893F83D30DBB2202B30D17D
:103F3C00BB68002B02D0FB88002B01D1012329E0A8
:103F4C00FB6893F83C30012B01D1022322E0FB6883
:103F5C00012283F83C20FB68BA681A62FB68FA8875
:103F6C009A84FB68FA88DA84FB6800221A64FB687E
:103F7C00212283F83D20FB68002283F83C20FB685B
:103F8C001B68DA68FB681B6842F08002DA60002369
:103F9C0000E0022318461437BD4680BC704780B53C
:103FAC0084B000AFF860B9601346FB80FB6893F8EF
:103FBC003E30DBB2202B1DD1BB68002B02D0FB881E
:103FCC00002B01D1012316E0FB6893F83C30012B48
:103FDC0001D102230FE0FB68012283F83C20FB682F
:103FEC0000221A63FB881A46B968F86800F0CFF90A
:103FFC00034600E0022318461037BD4680BD000082
:10400C0080B58AB000AF78607B681B681B687B62E8
:10401C007B681B68DB683B627B681B685B69FB61C8
:10402C000023BB6100237B617B6A03F00F03BB6140
:10403C00BB69002B0DD17B6A03F02003002B08D049
:10404C003B6A03F02003002B03D0786800F07FFA62
:10405C007BE1BB69002B00F0B180FB6903F001032D
:10406C00002B05D13B6A03F49073002B00F0A68063
:10407C007B6A03F00103002B0AD03B6A03F48073C4
:10408C00002B05D07B681B6C43F001027B681A6423
:10409C007B6A03F00403002B0AD0FB6903F00103D5
:1040AC00002B05D07B681B6C43F002027B681A6402
:1040BC007B6A03F00203002B0AD0FB6903F00103B7
:1040CC00002B05D07B681B6C43F004027B681A64E0
:1040DC007B6A03F00803002B0FD03B6A03F020032C
:1040EC00002B04D1FB6903F00103002B05D07B6886
:1040FC001B6C43F008027B681A647B681B6C002BFA
:10410C0000F01E817B6A03F02003002B07D03B6A72
:10411C0003F02003002B02D0786800F018FA7B68BB
:10412C001B685B6903F04003002B14BF01230023C1
:10413C00DBB27B617B681B6C03F00803002B02D1A4
:10414C007B69002B31D0786800F05AF97B681B68CA
:10415C005B6903F04003002B23D07B681B685A6912
:10416C007B681B6822F040025A617B689B6B002BBA
:10417C0013D07B689B6B764A5A637B689B6B1846A3
:10418C00FEF7DEF90346002B16D07B689B6B5B6B4E
:10419C007A68926B104698470EE0786800F0E3F866
:1041AC000AE0786800F0DFF806E0786800F0DBF8E9
:1041BC007B6800221A64C3E000BFC1E07B681B6B04
:1041CC00012B40F0A1807B6A03F01003002B00F060
:1041DC009B803B6A03F01003002B00F095800023BA
:1041EC00FB607B681B681B68FB607B681B685B68FB
:1041FC00FB60FB687B681B685B6903F04003002B6A
:10420C004ED07B689B6B1B685B683B823B8A002BA8
:10421C0000F098807B689B8D3A8A9A4280F092805D
:10422C007B683A8ADA857B689B6B9B69202B2BD049
:10423C007B681B68DA687B681B6822F48072DA6022
:10424C007B681B685A697B681B6822F001025A6103
:10425C007B681B685A697B681B6822F040025A61B4
:10426C007B68202283F83E207B6800221A637B68DF
:10427C001B68DA687B681B6822F01002DA607B68C6
:10428C009B6B1846FEF721F97B689A8D7B68DB8D5A
:10429C009BB2D31A9BB21946786800F06DF851E0C6
:1042AC007B689A8D7B68DB8D9BB2D31A7B827B6893
:1042BC00DB8D9BB2002B47D07B8A002B44D07B68D4
:1042CC001B68DA687B681B6822F49072DA607B6882
:1042DC001B685A697B681B6822F001025A617B6873
:1042EC00202283F83E207B6800221A637B681B68BF
:1042FC00DA687B681B6822F01002DA607B8A194648
:10430C00786800F039F81FE07B6A03F08003002B1B
:10431C0008D03B6A03F08003002B03D0786800F0D0
:10432C00AFF812E07B6A03F04003002B0DD03B6A20
:10433C0003F04003002B08D0786800F0F0F804E09C
:10434C0000BF02E000BF00E000BF2837BD4680BDC3
:10435C006544000880B483B000AF786000BF0C37B0
:10436C00BD4680BC704780B483B000AF786000BF9E
:10437C000C37BD4680BC704780B483B000AF78600A
:10438C000B467B8000BF0C37BD4680BC704780B4A9
:10439C0085B000AFF860B9601346FB80FB68BA6863
:1043AC009A62FB68FA889A85FB68FA88DA85FB685A
:1043BC0000221A64FB68222283F83E20FB6800224C
:1043CC0083F83C20FB681B68DA68FB681B6842F4C6
:1043DC008072DA60FB681B685A69FB681B6842F0E4
:1043EC0001025A61FB681B68DA68FB681B6842F0C3
:1043FC002002DA60002318461437BD4680BC704793
:10440C0080B483B000AF78607B681B68DA687B6827
:10441C001B6822F49072DA607B681B685A697B68AF
:10442C001B6822F001025A617B681B6B012B07D1C0
:10443C007B681B68DA687B681B6822F01002DA6004
:10444C007B68202283F83E207B6800221A6300BF21
:10445C000C37BD4680BC704780B584B000AF786027
:10446C007B685B6AFB60FB680022DA85FB680022D4
:10447C00DA84F868FFF777FF00BF1037BD4680BDC0
:10448C0080B485B000AF78607B6893F83D30DBB2C8
:10449C00212B3ED17B689B68B3F5805F14D17B6880
:1044AC001B69002B10D17B681B6AFB60FB681B88A7
:1044BC001A467B681B68C2F308025A607B681B6A49
:1044CC009A1C7B681A6208E07B681B6A591C7A6824
:1044DC0011621A787B681B685A607B68DB8C9BB214
:1044EC00013B9BB27A681946D184002B0FD17B68B3
:1044FC001B68DA687B681B6822F08002DA607B68D4
:10450C001B68DA687B681B6842F04002DA600023A3
:10451C0000E0022318461437BD4680BC704780B5B6
:10452C0082B000AF78607B681B68DA687B681B68B8
:10453C0022F04002DA607B68202283F83D20786804
:10454C00FFF708FF002318460837BD4680BD80B52D
:10455C0086B000AF78607B6893F83E30DBB2222BDC
:10456C0040F099807B689B68B3F5805F17D17B68BE
:10457C001B69002B13D100237B617B689B6A3B6119
:10458C007B681B685B689BB2C3F308039AB23B69F8
:10459C001A807B689B6A9A1C7B689A6226E07B680F
:1045AC009B6A7B6100233B617B689B68B3F5805FF2
:1045BC0007D07B689B68002B0AD17B681B69002B9A
:1045CC0006D17B681B685B68DAB27B691A7008E0FD
:1045DC007B681B685B68DBB203F07F03DAB27B6934
:1045EC001A707B689B6A5A1C7B689A627B68DB8DAD
:1045FC009BB2013B9BB27A681946D185002B48D1FE
:10460C007B681B68DA687B681B6822F02002DA6022
:10461C007B681B68DA687B681B6822F48072DA603E
:10462C007B681B685A697B681B6822F001025A611F
:10463C007B68202283F83E207B681B6B012B23D1E7
:10464C007B6800221A637B681B68DA687B681B68CE
:10465C0022F01002DA607B681B681B6803F0100301
:10466C00102B0AD10023FB607B681B681B68FB6066
:10467C007B681B685B68FB60FB687B689B8D1946DD
:10468C007868FFF779FE02E07868FCF7F3FC00230A
:10469C0002E0002300E0022318461837BD4680BD17
:1046AC0080B584B000AF78607B681B681B6923F40D
:1046BC0040517B68DA687B681B680A431A617B6827
:1046CC009A687B681B691A437B685B691343BB6000
:1046DC007B681B68DB6823F4B05323F00C037A6807
:1046EC001268B9680B43D3607B681B685B6923F461
:1046FC0040717B689A697B681B680A435A617B68C6
:10470C001B682C4A934203D1FEF760FEF86002E06E
:10471C00FEF748FEF860FA6813469B0013449A00B3
:10472C001A447B685B689B00B2FBF3F3224AA2FB42
:10473C0003235B091901FA6813469B0013449A0082
:10474C001A447B685B689B00B2FBF3F21A4BA3FB29
:10475C0002035B09642000FB03F3D31A1B01323301
:10476C00154AA2FB03235B0903F0F0031944FA6812
:10477C0013469B0013449A001A447B685B689B00A9
:10478C00B2FBF3F20C4BA3FB02035B09642000FBAE
:10479C0003F3D31A1B013233074AA2FB03235B0931
:1047AC0003F00F027B681B680A449A6000BF103745
:1047BC00BD4680BD003801401F85EB51014B186888
:1047CC00704700BF0C00002070B500260C4D0D4C3E
:1047DC00641BA410A64209D100F09CFC00260A4DD3
:1047EC000A4C641BA410A64205D170BD55F8043BBD
:1047FC0098470136EEE755F8043B98470136F2E747
:10480C00C8570008C8570008C8570008CC570008FC
:10481C0003460244934200D1704703F8011BF9E7A9
:10482C000EB46FF0004100B59CB01DAB0290069029
:10483C00079104910848094953F8042B0591006825
:10484C0002A9019300F068F80022029B1A701CB0B8
:10485C005DF804EB03B070470C0000200802FFFF6A
:10486C002DE9F0478E6882469E420C4690461F46C4
:10487C0038D88A8912F4906F32D0256809690133CF
:10488C00A5EB010965694B4405EB450505EBD575B1
:10489C006D109D4238BF1D46530531D5294600F099
:1048AC006FFB064650B90C234FF0FF30CAF80030AE
:1048BC00A38943F04003A381BDE8F0874A462169F0
:1048CC0000F0CEFAA38923F4906343F08003A38114
:1048DC0026614E4426603E466561A5EB0905A56040
:1048EC00BE4200D93E4632464146206800F0C6FA28
:1048FC00A36800209B1BA360236833442360DBE781
:10490C002A4600F0B1FB06460028E1D15046216949
:10491C0000F0CEFAC7E700002DE9F04F98468B89DE
:10492C0007461B060D4614469DB00ED50B6963B9A0
:10493C00402100F025FB2860286120B90C233B6046
:10494C004FF0FF30D1E040236B610023099320230B
:10495C008DF8293030234FF00109CDF80C80DFF8A9
:10496C00A4818DF82A3023469A4613F8012B0AB1FC
:10497C00252AF9D1BAEB040B0BD05B46224629460B
:10498C003846FFF76DFF013000F0AA80099A5A44AF
:10499C0009929AF80030002B00F0A28000234FF00F
:1049AC00FF32CDE905230AF1010A049307938DF830
:1049BC0053301A935446052214F8011B514800F049
:1049CC0041FA049AD8B9D00644BF20238DF853304D
:1049DC00110744BF2B238DF853309AF800302A2B43
:1049EC0015D0544600204FF00A0C079A214611F8B6
:1049FC00013B303B092B4ED9B0B1079214E0A0EB30
:104A0C00080309FA03F31343A2460493D2E7039B6A
:104A1C00191D1B680391002BBBBF5B4242F00202C5
:104A2C0007930793B8BF049223782E2B0CD163788D
:104A3C002A2B35D1039B02341A1D1B680392002BC1
:104A4C00B8BF4FF0FF330593DFF8BCA003225046EC
:104A5C00217800F0F7F940B14023A0EB0A0003FAEB
:104A6C0000F0049B01340343049314F8011B062249
:104A7C0026488DF8281000F0E5F9002838D0244B92
:104A8C001BBB039B073323F0070308330393099BDA
:104A9C003344099367E70C4601200CFB0232A5E76F
:104AAC0000234FF00A0C194601340593204610F8E8
:104ABC00012B303A092A03D9002BC5D00591C3E745
:104ACC00044601230CFB0121F0E703AB00932A46BB
:104ADC003846104B04A9AFF30080421C0646D6D1D1
:104AEC00AB895B063FF52CAF09981DB0BDE8F08F84
:104AFC0003AB00932A463846064B04A900F07CF819
:104B0C00EBE700BF945700089A5700089E5700081F
:104B1C00000000006D4800082DE9F0471646994644
:104B2C008A680B6907469342B8BF1346336091F805
:104B3C0043200C46DDF820800AB101333360236832
:104B4C00990642BF336802333360256815F00605B9
:104B5C0006D104F1190AE36832689B1AAB4228DCCF
:104B6C0094F84320131E226818BF012392062DD4FB
:104B7C004946384604F14302C047013020D023682F
:104B8C00E56803F00603042B18BF002532684FF0CC
:104B9C000006A36808BFAD1A226908BF25EAE575AF
:104BAC009342C4BF9B1AED181A34B5421AD1002097
:104BBC0008E00123524649463846C047013003D12C
:104BCC004FF0FF30BDE8F0870135C4E73020E11825
:104BDC0081F843005A1C94F845102244023382F8A1
:104BEC004310C5E70123224649463846C0470130E9
:104BFC00E6D00136D9E700002DE9FF470F7E91463C
:104C0C00782F80460C469A460C9D01F1430207D83A
:104C1C00622F0AD8002F00F0D980582F00F0A48002
:104C2C0004F1420584F842703AE0A7F16303152BB6
:104C3C00F6D801A151F823F09D4C0008B14C0008A6
:104C4C002D4C00082D4C00082D4C00082D4C000854
:104C5C00B14C00082D4C00082D4C00082D4C0008C0
:104C6C002D4C0008BF4D0008E14C0008A14D000878
:104C7C002D4C00082D4C0008E14D00082D4C00086F
:104C8C00E14C00082D4C00082D4C0008A94D0008E3
:104C9C002B681A1D1B682A6004F1420584F8423007
:104CAC000123A4E020682968060601F104030AD553
:104CBC000E682B60002E03DA2D23764284F84330E5
:104CCC000A235E4819E00E6810F0400F2B6018BFE5
:104CDC0036B2EFE72B682068191D2960010601D553
:104CEC001E6802E04606FBD51E886F2F0CBF0823FA
:104CFC000A235248002184F843106568002DA8BF90
:104D0C002168A560A4BF21F0040121600EB9002D1B
:104D1C004DD01546B6FBF3F103FB1167C75D05F8E3
:104D2C00017D3746BB420E46F4D9082B0BD12368C4
:104D3C00DE0708D5236961689942DEBF302305F888
:104D4C00013C05F1FF35521B22614B462146404682
:104D5C00CDF800A003AAFFF7DFFE01304CD14FF0D5
:104D6C00FF3004B0BDE8F087344881F845702968FD
:104D7C00236851F8046B29601D0614D5DF0744BF66
:104D8C0043F0200323601EB9236823F02003236023
:104D9C001023AFE7236843F02003236078232848CF
:104DAC0084F84530E3E7590648BFB6B2E6E7154646
:104DBC00BBE72B682668181D6169286035061B68DF
:104DCC0001D5196002E07006FBD519800023154649
:104DDC002361BAE72B6800211A1D2A601D686268DE
:104DEC00284600F02FF808B1401B6060636823610F
:104DFC00002384F84330A8E72A46494640462369F5
:104E0C00D0470130ABD023689B0713D4E068039BD9
:104E1C009842B8BF1846A4E701233246494640469B
:104E2C00D04701309BD00135E36803995B1AAB4244
:104E3C00F2DCEBE7002504F11906F5E7A5570008AD
:104E4C00B6570008034610B5C9B20244934218463F
:104E5C0001D1002003E0047801338C42F6D110BD5F
:104E6C000A44914200F1FF3300D1704710B511F89C
:104E7C00014B914203F8014FF9D110BD884210B596
:104E8C0001EB020402D98442234607D8431EA142F7
:104E9C0008D011F8012B03F8012FF8E70146024462
:104EAC008A4200D110BD13F8014D02F8014DF7E70D
:104EBC0038B50546002940D051F8043C0C1F002B96
:104ECC00B8BFE41800F010F91C4A136833B96360DA
:104EDC0014602846BDE8384000F00CB9A34208D94C
:104EEC00206821188B4201BF19685B680918216082
:104EFC00EDE71A465B680BB1A342FAD9116850185A
:104F0C00A0420BD120680144501883421160E0D1BB
:104F1C0018685B68014411605360DAE702D90C230E
:104F2C002B60D6E7206821188B4201BF19685B689B
:104F3C000918216063605460CBE738BDB4060020CB
:104F4C0070B50E4E0C463168054611B900F0BCF830
:104F5C0030602146284600F0B7F8431C0AD0C41C28
:104F6C0024F00304A04207D0211A284600F0ACF824
:104F7C00013001D14FF0FF34204670BDB80600203F
:104F8C002DE9F041CD1C25F0030508350C2D38BF5B
:104F9C000C25002D074601DBA94205D90C23002660
:104FAC003B603046BDE8F0812E4E00F09DF8336832
:104FBC001C4634BB29463846FFF7C2FF431C044647
:104FCC004DD134682646002E40D1236831463846F0
:104FDC0004EB030800F078F880453AD121680335DA
:104FEC006D1A25F0030508350C2D38BF0C253846F5
:104FFC002946FFF7A5FF01302BD023682B442360F3
:10500C000EE02268521B1ED40B2A16D96119A3423A
:10501C00256018BF5960636808BF316062514B60EE
:10502C00384604F10B0600F065F826F00706231D40
:10503C00F21AB6D09B1BA350B3E76268A3420CBF15
:10504C0032605A60ECE723466468B2E7344676680F
:10505C00B9E70C2338463B6000F04CF8A1E725601B
:10506C00DEE700BFB40600202DE9F041804614466F
:10507C000E4621B91146BDE8F041FFF781BF2AB9B0
:10508C00FFF716FF25462846BDE8F08100F038F8FA
:10509C008442074602D8B4EB500F12D82146404642
:1050AC00FFF76EFF05460028EDD0BC422246314684
:1050BC0028BF3A46FFF7D4FE31464046FFF7F8FECC
:1050CC00E1E73546DFE7000038B50023054D04461F
:1050DC0008462B60FCF706FA431C02D12B6803B17F
:1050EC00236038BDBC060020014800F011B800BF99
:1050FC00C0060020014800F00CB800BFC00600201C
:10510C0051F8043C181F002BBCBF0B58C01870473B
:10511C0070477047F8B500BFF8BC08BC9E46704796
:0C512C00F8B500BFF8BC08BC9E467047F8
:105138004572726F722100005625643A2531642E3B
:105148002564256400000000020304050607080919
:105158000A0B0C0D0E0F10100203040506070809B0
:105168000A0B0C0D0E0F10100000000000000000CC
:105178000000000000000000000000F8000000002F
:10518800000000333000000000100C06100C060070
:10519800000000000000000040C07840C0784000D7
:1051A800043F04043F040400007088FC0830000039
:1051B800001820FF211E0000F008F000E018000091
:1051C80000211C031E211E0000F00888700000004A
:1051D8001E2123241927211010160E00000000009C
:1051E8000000000000000000000000E018040200B9
:1051F800000000071820400000020418E00000002A
:105208000040201807000000404080F08040400027
:105218000202010F01020200000000F0000000007D
:105228000101011F01010100000000000000000051
:1052380080B07000000000000000000000000000C6
:10524800000101010101010100000000000000004F
:1052580000303000000000000000000080601804EA
:10526800006018060100000000E010080810E000C7
:10527800000F102020100F00001010F80000000090
:105288000020203F202000000070080808887000D7
:105298000030282422213000003008888848300057
:1052A8000018202020110E000000C02010F8000077
:1052B80000070424243F240000F808888808080010
:1052C8000019212020110E0000E010888818000025
:1052D800000F112020110E0000380808C8380800F7
:1052E8000000003F00000000007088080888700077
:1052F800001C222121221C0000E010080810E000F8
:105308000000312222110F00000000C0C000000080
:1053180000000030300000000000008000000000A5
:10532800000080600000000000008040201008009D
:105338000001020408102000404040404040400066
:105348000404040404040400000810204080000041
:105358000020100804020100007048080808F00046
:105368000000003036010000C030C828E810E00016
:105378000718272423140B000000C038E0000000A1
:10538800203C23020227382008F88888887000000B
:10539800203F202020110E00C030080808083800DF
:1053A800071820202010080008F808080810E00056
:1053B800203F202020100F0008F88888E8081000F7
:1053C800203F20202320180008F88888E8081000CB
:1053D800203F200003000000C03008080838000003
:1053E80007182020221E020008F808000008F80804
:1053F800203F210101213F20000808F8080800008B
:105408000020203F2020000000000808F8080800BD
:10541800C08080807F00000008F888C02818080035
:10542800203F20012638200008F80800000000006E
:10543800203F20202020300008F8F800F8F8080065
:10544800203F003F003F200008F830C00008F8085F
:10545800203F200007183F00E01008080810E0006F
:105468000F10202020100F0008F808080808F00086
:10547800203F210101010000E01008080810E000A9
:105488000F18242438504F0008F88888888870003E
:10549800203F2000030C30200070880808083800DE
:1054A8000038202121221C00180808F808081800D4
:1054B8000000203F2000000008F808000008F80855
:1054C800001F202020201F000878880000C8380806
:1054D800000007380E010000F80800F80008F8007E
:1054E800033C0700073C0300081868808068180818
:1054F80020302C03032C30200838C800C838080096
:105508000000203F2000000010080808C8380800E4
:105518002038262120201800000000FE0202020088
:105528000000007F40404000000C30C00000000038
:10553800000000010638C00000020202FE00000060
:10554800004040407F000000000004020202040006
:105558000000000000000000000000000000000043
:10556800808080808080808000020204000000002B
:105578000000000000000000000080808080000023
:105588000019242222223F2008F800808000000011
:10559800003F112020110E000000008080800000D4
:1055A800000E112020201100000000808088F800E3
:1055B800000E112020103F20000080808080000015
:1055C800001F222222221300008080F08888881879
:1055D8000020203F20200000000080808080800084
:1055E800006B94949493600008F800808080000019
:1055F800203F210000203F200080989800000000F4
:105608000020203F20200000000000809898000023
:1056180000C08080807F000008F800008080800043
:10562800203F24022D302000000808F80000000068
:105638000020203F20200000808080808080800023
:10564800203F20003F20003F8080008080800000B5
:10565800203F210000203F20000080808080000043
:10566800001F202020201F00808000808000000074
:1056780080FFA12020110E000000008080808000A3
:10568800000E112020A0FF80808080008080800094
:1056980020203F21200001000000808080808000C1
:1056A8000033242424241900008080E08080000036
:1056B8000000001F20200000808000000080800083
:1056C800001F202020103F208080800000808080E4
:1056D80000010E3008060100808000800080808074
:1056E8000F300C030C300F00008080008080800099
:1056F8000020312E0E3120008080800000808080C4
:1057080080818E7018060100008080808080800073
:105718000021302C2221300000000000807C020291
:1057280000000000003F404000000000FF000000B3
:1057380000000000FF0000000002027C8000000062
:105748000040403F0000000000060101020204047E
:105758000000000000000000AED5B0A83FD3004014
:105768008D142002A1C8DA1281EFD9F1DB30A4A68A
:10577800AF00000000000000000000000102030468
:10578800060708090000000001020304232D302B3E
:105798002000686C4C00656667454647003031322A
:1057A8003334353637383941424344454600303181
:1057B80032333435363738396162636465660000E0
:0457C80031010008A3
:0457CC000D010008C3
:1057D0000024F40010000000010000001000002070
:1057E00000000000000000000000000000000000B9
:1057F00000000000000000000000000000000000A9
:105800000000000000000000000000000000000098
:105810000000000000000000000000000000000088
:105820000000000000000000000000000000000078
:105830000000000000000000000000000000000068
:04000005080017498F
:00000001FF
