:020000040800F2
:10000000005000203D140008210F0008270F0008B1
:100010002D0F0008330F0008390F00080000000002
:100020000000000000000000000000003F0F00087A
:100030004B0F000800000000570F0008630F000876
:10004000851400088514000885140008851400082C
:10005000851400088514000885140008851400081C
:10006000851400088514000885140008710F000825
:1000700085140008851400088514000885140008FC
:100080008514000885140008850F000885140008F1
:1000900085140008851400088514000885140008DC
:1000A00085140008851400088514000885140008CC
:1000B00085140008851400088514000885140008BC
:1000C00085140008851400088514000885140008AC
:1000D00085140008990F000885140008851400088D
:1000E000851400088514000885140008000000002D
:1000F0000000000000000000000000000000000000
:0C01000000000000000000005FF808F1A3
:10010C0010B5054C237833B9044B13B10448AFF345
:10011C0000800123237010BD7C0000200000000033
:10012C00A04D000808B5034B1BB103490348AFF3BE
:10013C00008008BD0000000080000020A04D0008D9
:10014C0070B54FF0FF0C4CF4E06C1CEA11541DBF61
:10015C001CEA135594EA0C0F95EA0C0F00F0DEF82C
:10016C002C4481EA030621EA4C5123EA4C5350EA11
:10017C00013518BF52EA033541F4801143F4801362
:10018C0038D0A0FB02CE4FF00005E1FB02E506F0F3
:10019C000042E0FB03E54FF00006E1FB03569CF048
:1001AC00000F18BF4EF0010EA4F1FF04B6F5007F4E
:1001BC0064F5407404D25FEA4E0E6D4146EB0606C0
:1001CC0042EAC62141EA55514FEAC52040EA5E5049
:1001DC004FEACE2EB4F1FD0C88BFBCF5E06F1ED8F3
:1001EC00BEF1004F08BF5FEA500E50F1000041EB2A
:1001FC00045170BD06F0004646EA010140EA0200D7
:10020C0081EA0301B4EB5C04C2BFD4EB0C0541EAF8
:10021C00045170BD41F480114FF0000E013C00F30D
:10022C00AB8014F1360FDEBF002001F0004170BD31
:10023C00C4F10004203C35DA0C341BDC04F114044A
:10024C00C4F1200500FA05F320FA04F001FA05F2D6
:10025C0040EA020001F0004221F0004110EBD370A3
:10026C0021FA04F642EB06015EEA430E08BF20EACF
:10027C00D37070BDC4F10C04C4F1200500FA04F372
:10028C0020FA05F001FA04F240EA020001F0004104
:10029C0010EBD37041F100015EEA430E08BF20EA77
:1002AC00D37070BDC4F1200500FA05F24EEA020EBF
:1002BC0020FA04F301FA05F243EA020321FA04F0EE
:1002CC0001F0004121FA04F220EA020000EBD370A5
:1002DC005EEA430E08BF20EAD37070BD94F0000FA5
:1002EC000FD101F00046400041EB010111F4801FD9
:1002FC0008BF013CF7D041EA060195F0000F18BF8A
:10030C00704703F00046520043EB030313F4801FC5
:10031C0008BF013DF7D043EA0603704794EA0C0F7F
:10032C000CEA135518BF95EA0C0F0CD050EA410695
:10033C0018BF52EA4306D1D181EA030101F0004112
:10034C004FF0000070BD50EA410606BF104619463A
:10035C0052EA430619D094EA0C0F02D150EA013646
:10036C0013D195EA0C0F05D152EA03361CBF104687
:10037C0019460AD181EA030101F0004141F0FE4126
:10038C0041F470014FF0000070BD41F0FE4141F4AA
:10039C00780170BD81F0004102E000BF83F00043A2
:1003AC0030B54FEA41044FEA430594EA050F08BF04
:1003BC0090EA020F1FBF54EA000C55EA020C7FEAC8
:1003CC00645C7FEA655C00F0E2804FEA5454D4EB45
:1003DC005555B8BF6D420CDD2C4480EA020281EA0F
:1003EC00030382EA000083EA010180EA020281EA47
:1003FC000303362D88BF30BD11F0004F4FEA013199
:10040C004FF4801C4CEA113102D0404261EB4101A7
:10041C0013F0004F4FEA03334CEA133302D052422D
:10042C0063EB430394EA050F00F0A780A4F10104E9
:10043C00D5F1200E0DDB02FA0EFC22FA05F2801823
:10044C0041F1000103FA0EF2801843FA05F3594109
:10045C000EE0A5F120050EF1200E012A03FA0EFC88
:10046C0028BF4CF0020C43FA05F3C01851EBE371B2
:10047C0001F0004507D54FF0000EDCF1000C7EEBCF
:10048C0000006EEB0101B1F5801F1BD3B1F5001F0D
:10049C000CD349085FEA30004FEA3C0C04F101042C
:1004AC004FEA445212F5800F80F09A80BCF1004F55
:1004BC0008BF5FEA500C50F1000041EB045141EAD7
:1004CC00050130BD5FEA4C0C404141EB0101013CA0
:1004DC0028BFB1F5801FE9D291F0000F04BF01468F
:1004EC000020B1FA81F308BF2033A3F10B03B3F161
:1004FC0020020CDA0C3208DD02F1140CC2F10C02F1
:10050C0001FA0CF021FA02F10CE002F11402D8BF4E
:10051C00C2F1200C01FA02F120FA0CFCDCBF41EA1A
:10052C000C019040E41AA2BF01EB0451294330BDE9
:10053C006FEA04041F3C1CDA0C340EDC04F11404C6
:10054C00C4F1200220FA04F001FA02F340EA03009D
:10055C0021FA04F345EA030130BDC4F10C04C4F1E3
:10056C00200220FA02F001FA04F340EA03002946C3
:10057C0030BD21FA04F0294630BD94F0000F83F40D
:10058C00801306BF81F480110134013D4EE77FEAF0
:10059C00645C18BF7FEA655C29D094EA050F08BF3C
:1005AC0090EA020F05D054EA000C04BF194610461D
:1005BC0030BD91EA030F1EBF0021002030BD5FEA61
:1005CC00545C05D14000494128BF41F0004130BD89
:1005DC0014F580043CBF01F5801130BD01F00045DD
:1005EC0045F0FE4141F470014FF0000030BD7FEA50
:1005FC00645C1ABF194610467FEA655C1CBF0B464B
:10060C00024650EA013406BF52EA033591EA030F61
:10061C0041F4002130BD00BF90F0000F04BF002159
:10062C00704730B54FF4806404F132044FF000058C
:10063C004FF0000150E700BF90F0000F04BF002105
:10064C00704730B54FF4806404F1320410F000456B
:10065C0048BF40424FF000013EE700BF42004FEA66
:10066C00E2014FEA31014FEA02701FBF12F07F43E3
:10067C0093F07F4F81F06051704732F07F4208BF9A
:10068C00704793F07F4F04BF41F40021704730B5A1
:10069C004FF4607401F0004521F000411CE700BFED
:1006AC0050EA010208BF704730B54FF000050AE070
:1006BC0050EA010208BF704730B511F0004502D571
:1006CC00404261EB41014FF4806404F132045FEA73
:1006DC00915C3FF4D8AE4FF003025FEADC0C18BF1C
:1006EC0003325FEADC0C18BF033202EBDC02C2F10E
:1006FC00200300FA03FC20FA02F001FA03FE40EAA0
:10070C000E0021FA02F11444BDE600BF4A0011D2DA
:10071C0012F5001211D20DD56FF47873B3EB62524F
:10072C000ED44FEAC12343F0004343EA505323FA5B
:10073C0002F070474FF00000704750EA013002D1D0
:10074C004FF0FF3070474FF00000704780B584B019
:10075C0000AF3B1D00221A605A609A60204B214A60
:10076C001A601F4B4FF480729A601D4B01221A7352
:10077C001B4B00221A751A4B4FF46022DA61184B8E
:10078C0000225A60164B02221A61154800F0D8FE5E
:10079C000346002B01D000F011FB02237B600123E8
:1007AC00BB600023FB603B1D19460D4801F066F948
:1007BC000346002B01D000F001FB09237B600223D0
:1007CC00BB603B1D1946064801F058F90346002B47
:1007DC0001D000F0F3FA00BF1037BD4680BD00BF5A
:1007EC00980000200024014080B58AB000AF7860EA
:1007FC0007F1180300221A605A609A60DA607B686D
:10080C001B68384A934268D1374B9B69364A43F48C
:10081C0000739361344B9B6903F400737B617B69B8
:10082C00314B9B69304A43F0040393612E4B9B6917
:10083C0003F004033B613B692B4B9B692A4A43F051
:10084C0008039361284B9B6903F00803FB60FB686A
:10085C000423BB610323FB6107F1180319462348EA
:10086C0001F068FF0223BB610323FB6107F118034E
:10087C0019461F4801F05EFF1E4B1F4A1A601D4BA4
:10088C0000225A601B4B00229A601A4B8022DA60BD
:10089C00184B4FF480721A61164B4FF480625A61F8
:1008AC00144B20229A61134B4FF40052DA61114819
:1008BC0001F0A2FC0346002B01D000F07FFA7B680C
:1008CC000C4A1A620B4A7B685362002200211220E8
:1008DC0001F05BFC122001F074FC00BF2837BD4610
:1008EC0080BD00BF00240140001002400008014000
:1008FC00000C0140C80000200800024080B483B006
:10090C0000AF084B5B69074A43F001035361054B89
:10091C005B6903F001037B607B6800BF0C37BD464D
:10092C0080BC70470010024080B588B000AF07F162
:10093C00100300221A605A609A60DA60384B9B6987
:10094C00374A43F010039361354B9B6903F0100356
:10095C00FB60FB68324B9B69314A43F02003936187
:10096C002F4B9B6903F02003BB60BB682C4B9B692E
:10097C002B4A43F004039361294B9B6903F0040356
:10098C007B607B68264B9B69254A43F00803936187
:10099C00234B9B6903F008033B603B6801224FF437
:1009AC000051204802F04AF8012258211E4802F05A
:1009BC0045F800224FF480611C4802F03FF84FF4D8
:1009CC0000533B6101237B610123BB610323FB616A
:1009DC0007F110031946134801F0ACFE58233B6194
:1009EC0001237B610123BB610323FB6107F110032E
:1009FC0019460D4801F09EFE4FF480633B610123C4
:100A0C007B610223BB610323FB6107F110031946D1
:100A1C00064801F08FFE00BF2037BD4680BD00BFE9
:100A2C00001002400010014000080140000C014081
:100A3C0080B485B000AF78600B467B8013463B805A
:100A4C000023BB813B88FB810CE0B7F90E305B00C7
:100A5C007A6813441A88BB891344BB81FB8902331F
:100A6C009BB2FB81B7F90E207B889A42EDDBBA89E9
:100A7C007B88B2FBF3F39BB218461437BD4680BC9F
:100A8C007047000090B583B002AF00F0F7FC00F0A7
:100A9C003BF9FFF749FFFFF731FF00F095F900F044
:100AAC00BBFAFFF753FE00224FF48061824801F03D
:100ABC00C5FF00F0EDFB00F0C5FB42F2107000F03A
:100ACC0099FC00F09AFB00224FF400517B4801F096
:100ADC00B5FF42F210730C2279497A4803F023F8DF
:100AEC0001224FF40051754801F0A8FF764801F03F
:100AFC00BFF932227549744800F0FAFD744A01219D
:100B0C00012000F039FC002214217048FFF790FFFF
:100B1C0003465B009AB26F4B1A80012214216B487A
:100B2C00FFF786FF03465B009AB26B4B1A80694B4A
:100B3C001B881846FFF780FD4FF00002674BFFF74C
:100B4C00FFFA02460B4610461946FFF7DFFD034637
:100B5C009AB2634B1A80642000F04CFC5E4B1B88ED
:100B6C001846FFF769FD4FF000025C4BFFF7E8FAFF
:100B7C0002460B4610461946FFF7C8FD03469AB2CB
:100B8C00584B1A80642000F035FC554B1B88564A94
:100B9C00A2FB03235B099BB21846514B1B88524A9C
:100BAC00A2FB03125209642101FB02F29B1A9BB2B5
:100BBC004E4AA2FB0323DB089BB21C46484B1A8807
:100BCC004A4BA3FB0213D9080B469B000B445B005A
:100BDC00D31A9BB20093234602464549454803F07D
:100BEC005FFC404B1B88404AA2FB03235B099BB272
:100BFC0018463C4B1B883C4AA2FB03125209642149
:100C0C0001FB02F29B1A9BB2384AA2FB0323DB08BE
:100C1C009BB21C46334B1A88344BA3FB0213D908E6
:100C2C000B469B000B445B00D31A9BB200932346EC
:100C3C0002463149314803F033FC41F288334022FB
:100C4C002C49204802F06FFF41F2883340222B4997
:100C5C001C4802F068FF274A0121022000F08CFB9F
:100C6C00264A0121032000F087FB1D4B1B88B3F59E
:100C7C00967F04D81B4B1B88B3F5967F0DD9204A61
:100C8C000121042000F078FB4FF480610A4801F048
:100C9C00EDFE642000F0AEFB0AE01A4A01210420AC
:100CAC0000F06AFB00224FF48061034801F0C6FE9D
:100CBC00012000F09FFB26E7000C014000100140D2
:100CCC0000000020180200209800002014010020D1
:100CDC00B84D00080C0100201001002000A0B43F0A
:100CEC000E010020120100201F85EB51CDCCCCCC85
:100CFC00C44D00083C010020D44D00087C010020AC
:100D0C00E84D0008F44D000880B594B000AF07F131
:100D1C00280328220021184603F0BAFB07F114031C
:100D2C0000221A605A609A60DA601A613B1D002238
:100D3C001A605A609A60DA600123BB624FF4803308
:100D4C00FB6200233B630123BB6302237B644FF4F0
:100D5C008033BB644FF40023FB6407F1280318466F
:100D6C0001F09EFE0346002B01D000F027F80F2364
:100D7C007B610223BB610023FB6100233B620023E8
:100D8C007B6207F114030121184602F00BF90346AC
:100D9C00002B01D000F012F802237B604FF480434B
:100DAC00FB603B1D184602F095FA0346002B01D060
:100DBC0000F004F800BF5037BD4680BD80B400AFD2
:100DCC0072B600BFFEE7000080B500AF174B184AA3
:100DDC001A60164B4FF482725A60144B00229A60C0
:100DEC00124B0022DA60114B00221A610F4B0022C9
:100DFC005A610E4B4FF400729A610C4B0022DA616F
:100E0C000A4B00221A62094B00225A62074B00223D
:100E1C009A62064B0A22DA62044802F0D1FB0346BE
:100E2C00002B01D0FFF7CAFF00BF80BDBC01002022
:100E3C000030014080B588B000AF786007F1100336
:100E4C0000221A605A609A60DA607B681B68154A47
:100E5C00934223D1144B9B69134A43F480539361FF
:100E6C00114B9B6903F48053FB60FB680E4B9B6931
:100E7C000D4A43F0040393610B4B9B6903F004038D
:100E8C00BB60BB68A0233B6102237B610323FB6136
:100E9C0007F110031946054801F04CFC00BF203740
:100EAC00BD4680BD003001400010024000080140EA
:100EBC0080B485B000AF154B9B69144A43F0010315
:100ECC009361124B9B6903F00103BB60BB680F4B32
:100EDC00DB690E4A43F08053D3610C4BDB6903F0A2
:100EEC0080537B607B680A4B5B68FB60FB6823F07C
:100EFC00E063FB60FB6843F00073FB60044AFB6833
:100F0C00536000BF1437BD4680BC704700100240D0
:100F1C000000014080B400AFFEE780B400AFFEE7F4
:100F2C0080B400AFFEE780B400AFFEE780B400AF42
:100F3C00FEE780B400AF00BFBD4680BC704780B4F4
:100F4C0000AF00BFBD4680BC704780B400AF00BF8F
:100F5C00BD4680BC704780B500AF00F0D5FA00BF2D
:100F6C0080BD000080B500AF024801F0AFFA00BFB1
:100F7C0080BD00BFC800002080B500AF024800F063
:100F8C0095FC00BF80BD00BF9800002080B500AF6D
:100F9C00024802F05BFE00BF80BD00BF18020020BB
:100FAC0080B586B000AF7860144A154BD31A7B61BC
:100FBC007B693B61134B1B68002B02D1114B124A0E
:100FCC001A60104B1A687B6813443A699A4207D22C
:100FDC0003F034FA03460C221A604FF0FF3309E099
:100FEC00084B1B68FB60074B1A687B681344054A67
:100FFC001360FB6818461837BD4680BD00500020B2
:10100C0000040000140200207002002080B400AF25
:10101C0000BFBD4680BC704780B500AF114B124A73
:10102C001A60104B4FF416525A600E4B00229A6005
:10103C000C4B0022DA600B4B00221A61094B0C227C
:10104C005A61084B00229A61064B0022DA6105486E
:10105C0002F01CFD0346002B01D0FFF7AFFE00BFD2
:10106C0080BD00BF180200200038014080B588B058
:10107C0000AF786007F1100300221A605A609A6082
:10108C00DA607B681B68204A934239D11F4B9B69FD
:10109C001E4A43F4804393611C4B9B6903F48043C9
:1010AC00FB60FB68194B9B69184A43F0040393617E
:1010BC00164B9B6903F00403BB60BB684FF40073D1
:1010CC003B6102237B610323FB6107F1100319468B
:1010DC000F4801F02FFB4FF480633B6100237B61D1
:1010EC000023BB6107F110031946094801F022FBEC
:1010FC0000220021252001F048F8252001F061F89C
:10110C0000BF2037BD4680BD0038014000100240B2
:10111C000008014080B582B000AF0346FB7100228D
:10112C0010210C4801F08AFC00220821094801F02A
:10113C0085FCF91D4FF47A730122074802F0C4FABA
:10114C0001221021034801F079FC00BF0837BD468D
:10115C0080BD00BF00080140BC01002080B582B0FA
:10116C0000AF0346FB71002210210C4801F066FC15
:10117C0001220821094801F061FCF91D4FF47A7332
:10118C000122074802F0A0FA01221021034801F0C5
:10119C0055FC00BF0837BD4680BD00BF00080140AC
:1011AC00BC01002080B582B000AF0346FB71FB7917
:1011BC000233FB71FB791B09DBB243F01003DBB28A
:1011CC001846FFF7A7FFFB7903F00F03DBB21846B5
:1011DC00FFF7A0FF00BF0837BD4680BD80B582B0C9
:1011EC0000AF0346FB71FB79503BDBB21846FFF7AF
:1011FC0091FF00BF0837BD4680BD80B582B000AFFF
:10120C000023FB7116E0FB791846FFF7E7FF00207F
:10121C00FFF7C8FF0023BB7105E00020FFF79EFF1E
:10122C00BB790133BB7197F90630002BF5DAFB79EA
:10123C000133FB71FB79072BE5D900BF00BF0837E1
:10124C00BD4680BD80B582B000AF0023FB7116E0B7
:10125C00FB791846FFF7C2FF0020FFF7A3FF00231E
:10126C00BB7105E0FF20FFF779FFBB790133BB7140
:10127C0097F90630002BF5DAFB790133FB71FB791A
:10128C00072BE5D900BF00BF0837BD4680BD000065
:10129C0080B582B000AF0023FB7108E0FB79084AEF
:1012AC00D35C1846FFF736FFFB790133FB71FB79F2
:1012BC00182BF3D900BF00BF0837BD4680BD00BF57
:1012CC003454000880B584B000AF0346FB710B4664
:1012DC00BB7113467B717B79203B7B71FB79013BA6
:1012EC00DBB25B00DBB21846FFF778FFBB79013B42
:1012FC00DBB2DB00DBB21846FFF754FF0023FB60C8
:10130C000BE07B791A01FB6813441A4AD35C18462C
:10131C00FFF724FFFB680133FB60FB68072BF0DD54
:10132C00FB79013BDBB25B00DBB20133DBB218466D
:10133C00FFF754FFBB79013BDBB2DB00DBB2184695
:10134C00FFF730FF0023BB600CE07B791A01BB6810
:10135C0013440833074AD35C1846FFF7FFFEBB68FB
:10136C000133BB60BB68072BEFDD00BF00BF10373C
:10137C00BD4680BD344E000880B584B000AF034636
:10138C003A60FB710B46BB710023FB6009E0FB6804
:10139C00D9B2FB7920221846FFF794FFFB68013382
:1013AC00FB60FB680F2BF2DD14E03B681A78B9790F
:1013BC00FB791846FFF786FF3B6801333B60BB792E
:1013CC000133BB71BB790F2B04D90023BB71FB79A3
:1013DC000133FB713B681B78002B07D03B681B78F3
:1013EC000D2B03D03B681B780A2BDED100BF1037C6
:1013FC00BD4680BD80B485B000AF78600023FB6033
:10140C000CE00023BB6002E0BB680133BB60BB682F
:10141C00B3F5617FF8D3FB680133FB60FA687B6836
:10142C009A42EED300BF00BF1437BD4680BC704754
:10143C000C480D490D4A002302E0D458C450043323
:10144C00C4188C42F9D30A4A0A4C002301E01360F9
:10145C000432A242FBD3FFF7D9FD02F0F5FFFFF7F0
:10146C0011FB7047000000207C000020885400080D
:10147C007C00002070020020FEE7000080B500AF69
:10148C00084B1B68074A43F010031360032000F05D
:10149C0071FE0F2000F008F8FFF70AFD0023184634
:1014AC0080BD00BF0020024080B582B000AF7860E4
:1014BC00124B1A68124B1B7819464FF47A73B3FB14
:1014CC00F1F3B2FBF3F3184600F089FE0346002B50
:1014DC0001D001230EE07B680F2B0AD8002279681B
:1014EC004FF0FF3000F051FE064A7B68136000237A
:1014FC0000E0012318460837BD4680BD0C000020D3
:10150C00140000201000002080B400AF054B1B78A5
:10151C001A46054B1B681344034A136000BFBD46B3
:10152C0080BC7047140000205C02002080B400AF27
:10153C00024B1B681846BD4680BC70475C020020FD
:10154C0080B586B000AF78600023FB7500233B614B
:10155C000023BB600023FB607B68002B01D10123BF
:10156C00BEE07B689B68002B7B689B6A002B09D1D3
:10157C007B680022DA627B68002283F8242078687A
:10158C00FFF732F9786800F0CBFB0346FB757B68FC
:10159C009B6A03F01003002B40F09980FB7D002B1D
:1015AC0040F095807B689B6A23F4885323F00203F8
:1015BC0043F002027B689A627B685A687B68DB693D
:1015CC001A437B681B7B5B001343BA681343BB60F5
:1015DC007B689B68B3F5807F03D07B689B68012B8D
:1015EC0002D14FF4807300E000233A6913433B614E
:1015FC007B681B7D012B19D17B681B7B002B09D1D0
:10160C007B689B69013B5A033B69134343F40063BA
:10161C003B610BE07B689B6A43F020027B689A621B
:10162C007B68DB6A43F001027B68DA627B681B68CB
:10163C005B6823F469417B681B683A690A435A600A
:10164C007B681B689A68284B13407A681268B968E3
:10165C000B4393607B689B68B3F5807F03D07B68FA
:10166C009B68012B04D17B681B69013B1B05FB604C
:10167C007B681B68DB6A23F470017B681B68FA6863
:10168C000A43DA627B681B689A68184B1340BA6885
:10169C009A420BD17B680022DA627B689B6A23F04A
:1016AC00030343F001027B689A6218E07B689B6A33
:1016BC0023F0120343F010027B689A627B68DB6AAA
:1016CC0043F001027B68DA620123FB7507E07B685B
:1016DC009B6A43F010027B689A620123FB75FB7DC9
:1016EC0018461837BD4680BDFDF7E1FFFE0E1FFF03
:1016FC0080B586B000AFF860B9607A600023FB75E6
:10170C00FB681B68644A934204D0FB681B68634AFD
:10171C00934206D1604B5B6803F47023002B40F0BE
:10172C00B380FB6893F82430012B01D10223AEE087
:10173C00FB68012283F82420F86800F097FA03462E
:10174C00FB75FB7D002B40F09A80FB689B6A23F4B1
:10175C00706323F0010343F48072FB689A62FB68A8
:10176C001B684E4A934205D14B4B5B6803F47023C4
:10177C00002B15D1FB689B6A23F48012FB689A62DC
:10178C00FB681B685B6803F48063002B26D0FB6846
:10179C009B6A23F4405343F48052FB689A621DE029
:1017AC00FB689B6A43F48012FB689A62FB681B68B7
:1017BC00394A934204D0FB681B68384A93420DD1D6
:1017CC00354B5B6803F48063002B07D0FB689B6A86
:1017DC0023F4405343F48052FB689A62FB689B6A83
:1017EC0003F48053002B06D0FB68DB6A23F006025F
:1017FC00FB68DA6202E0FB680022DA62FB68002216
:10180C0083F82420FB681B6A254A9A62FB681B6AD2
:10181C00244ADA62FB681B6A234A1A63FB681B685A
:10182C006FF002021A60FB681B689A68FB681B6801
:10183C0042F480729A60FB68186AFB681B684C3330
:10184C001946BA687B6800F031FDFB681B689B6821
:10185C0003F46023B3F5602F08D1FB681B689A680A
:10186C00FB681B6842F4A0029A600FE0FB681B68DF
:10187C009A68FB681B6842F480129A6006E0FB6869
:10188C00002283F8242001E00123FB75FB7D184620
:10189C001837BD4680BD00BF002401400028014020
:1018AC00AF1D00082B1E0008471E000880B582B033
:1018BC0000AF78607B681B685B6803F02003202B0B
:1018CC0040D17B681B681B6803F00203022B39D1E3
:1018DC007B689B6A03F01003002B05D17B689B6A25
:1018EC0043F400727B689A627B681B689B6803F404
:1018FC006023B3F5602F1DD17B681B7B002B19D1A6
:10190C007B681B685A687B681B6822F020025A604F
:10191C007B689B6A23F480727B689A627B689B6A03
:10192C0003F48053002B05D17B689B6A43F00102C2
:10193C007B689A62786800F07CF87B681B686FF0B3
:10194C0012021A607B681B685B6803F08003802BB3
:10195C004FD17B681B681B6803F00403042B48D130
:10196C007B689B6A03F01003002B05D17B689B6A94
:10197C0043F400527B689A627B681B689B6803F493
:10198C00E043B3F5E04F12D07B681B685B6803F44F
:10199C008063002B25D17B681B689B6803F4602354
:1019AC00B3F5602F1DD17B681B7B002B19D17B6895
:1019BC001B685A687B681B6822F080025A607B683F
:1019CC009B6A23F480527B689A627B689B6A03F45F
:1019DC008073002B05D17B689B6A43F001027B6806
:1019EC009A62786800F0F0FA7B681B686FF00C0262
:1019FC001A607B681B685B6803F04003402B14D1B2
:101A0C007B681B681B6803F00103012B0DD17B68FD
:101A1C009B6A43F480327B689A62786800F01BF80A
:101A2C007B681B686FF001021A6000BF0837BD4667
:101A3C0080BD80B483B000AF786000BF0C37BD466A
:101A4C0080BC704780B483B000AF786000BF0C37A7
:101A5C00BD4680BC704780B483B000AF786000BFD7
:101A6C000C37BD4680BC704780B483B000AF786043
:101A7C0000BF0C37BD4680BC7047000080B485B0F9
:101A8C0000AF786039600023FB730023BB607B6878
:101A9C0093F82430012B01D10223DCE07B68012276
:101AAC0083F824203B685B68062B1CD87B681B687A
:101ABC00596B3B685A6813469B001344053B1F2225
:101ACC0002FA03F3DB4319403B6818683B685A6819
:101ADC0013469B001344053B00FA03F27B681B681A
:101AEC000A435A633CE03B685B680C2B1CD87B6850
:101AFC001B68196B3B685A6813469B001344233BC5
:101B0C001F2202FA03F3DB4319403B6818683B6859
:101B1C005A6813469B001344233B00FA03F27B687C
:101B2C001B680A431A631BE07B681B68D96A3B6815
:101B3C005A6813469B001344413B1F2202FA03F3DD
:101B4C00DB4319403B6818683B685A6813469B0096
:101B5C001344413B00FA03F27B681B680A43DA62C8
:101B6C003B681B68092B1CD97B681B68D9683B68D0
:101B7C001A6813465B0013441E3B072202FA03F358
:101B8C00DB4319403B6898683B681A6813465B0056
:101B9C0013441E3B00FA03F27B681B680A43DA60AD
:101BAC0019E07B681B6819693B681A6813465B006F
:101BBC001344072202FA03F3DB4319403B6898688D
:101BCC003B681A6813465B00134400FA03F27B6807
:101BDC001B680A431A613B681B68102B03D03B68D7
:101BEC001B68112B32D17B681B681D4A934225D18F
:101BFC007B681B689B6803F40003002B26D17B6871
:101C0C001B689A687B681B6842F400029A603B6808
:101C1C001B68102B1AD1134B1B68134AA2FB03230E
:101C2C009A0C13469B0013445B00BB6002E0BB683C
:101C3C00013BBB60BB68002BF9D107E07B689B6A5A
:101C4C0043F020027B689A620123FB737B680022BD
:101C5C0083F82420FB7B18461437BD4680BC7047A4
:101C6C00002401400C00002083DE1B4380B584B0AF
:101C7C0000AF78600023FB600023BB607B681B68AF
:101C8C009B6803F00103012B40D07B681B689A68AA
:101C9C007B681B6842F001029A601F4B1B681F4A4D
:101CAC00A2FB03239B0CBB6002E0BB68013BBB6047
:101CBC00BB68002BF9D1FFF739FCF8601FE0FFF788
:101CCC0035FC0246FB68D31A022B18D97B681B68BB
:101CDC009B6803F00103012B11D07B689B6A43F0D6
:101CEC0010027B689A627B68DB6A43F001027B68B6
:101CFC00DA627B68002283F82420012307E07B68EA
:101D0C001B689B6803F00103012BD8D100231846F4
:101D1C001037BD4680BD00BF0C00002083DE1B4386
:101D2C0080B584B000AF78600023FB607B681B68D3
:101D3C009B6803F00103012B2ED17B681B689A680A
:101D4C007B681B6822F001029A60FFF7EFFBF860DA
:101D5C001BE0FFF7EBFB0246FB68D31A022B14D9EE
:101D6C007B681B689B6803F00103012B0DD17B681A
:101D7C009B6A43F010027B689A627B68DB6A43F0D3
:101D8C0001027B68DA62012307E07B681B689B68B1
:101D9C0003F00103012BDCD0002318461037BD469D
:101DAC0080BD80B584B000AF78607B685B6AFB60F7
:101DBC00FB689B6A03F05003002B27D1FB689B6ADE
:101DCC0043F40072FB689A62FB681B689B6803F41F
:101DDC006023B3F5602F15D1FB681B7B002B11D151
:101DEC00FB689B6A23F48072FB689A62FB689B6AAF
:101DFC0003F48053002B05D1FB689B6A43F001026E
:101E0C00FB689A62F868FFF714FE04E0FB681B6A33
:101E1C001B6B7868984700BF1037BD4680BD80B5F6
:101E2C0084B000AF78607B685B6AFB60F868FFF792
:101E3C0009FE00BF1037BD4680BD80B584B000AF31
:101E4C0078607B685B6AFB60FB689B6A43F04002CE
:101E5C00FB689A62FB68DB6A43F00402FB68DA6297
:101E6C00F868FFF701FE00BF1037BD4680BD0000CB
:101E7C0090B587B000AF78600023FB750023FB6042
:101E8C007B6893F82430012B01D1022395E07B6809
:101E9C00012283F824207868FFF742FF0346FB7584
:101EAC00FB7D002B40F084807B689B6A23F4885375
:101EBC0023F0020343F002027B689A62414B1C68D8
:101ECC00022001F0BDFA0346B4FBF3F35B00FB60A8
:101EDC0002E0FB68013BFB60FB68002BF9D17868E2
:101EEC00FFF7C4FE7B681B689A687B681B6842F02E
:101EFC0008029A60FFF71AFB38611BE0FFF716FB2C
:101F0C0002463B69D31A0A2B14D97B681B689B6861
:101F1C0003F00803002B0DD07B689B6A23F012039F
:101F2C0043F010027B689A627B68002283F82420BD
:101F3C00012342E07B681B689B6803F00803002BBD
:101F4C00DCD17B681B689A687B681B6842F00402D2
:101F5C009A60FFF7EBFA38611BE0FFF7E7FA0246ED
:101F6C003B69D31A0A2B14D97B681B689B6803F056
:101F7C000403002B0DD07B689B6A23F0120343F003
:101F8C0010027B689A627B68002283F8242001236C
:101F9C0013E07B681B689B6803F00403002BDCD107
:101FAC007B689B6A23F0030343F001027B689A620F
:101FBC007B68002283F82420FB7D18461C37BD4625
:101FCC0090BD00BF0C00002080B483B000AF7860DF
:101FDC0000BF0C37BD4680BC7047000080B485B094
:101FEC0000AF78607B6803F00703FB600C4BDB6889
:101FFC00BB60BA684FF6FF031340BB60FB681A0264
:10200C00BB68134343F0BF6343F40033BB60044A23
:10201C00BB68D36000BF1437BD4680BC704700BF9F
:10202C0000ED00E080B400AF044BDB681B0A03F04A
:10203C0007031846BD4680BC704700BF00ED00E0AA
:10204C0080B483B000AF0346FB7197F90730002BC7
:10205C000BDBFB7903F01F02064997F907305B098C
:10206C00012000FA02F241F8232000BF0C37BD46D4
:10207C0080BC704700E100E080B483B000AF034641
:10208C003960FB7197F90730002B0ADB3B68DAB239
:10209C000C4997F907301201D2B20B4483F8002394
:1020AC000AE03B68DAB20849FB7903F00F03043B02
:1020BC001201D2B20B441A7600BF0C37BD4680BC5D
:1020CC00704700BF00E100E000ED00E080B489B093
:1020DC0000AFF860B9607A60FB6803F00703FB613E
:1020EC00FB69C3F10703042B28BF0423BB61FB6905
:1020FC000433062B02D9FB69033B00E000237B6110
:10210C004FF0FF32BB6902FA03F3DA43BB681A40A3
:10211C007B699A404FF0FF317B6901FA03F3D94395
:10212C007B680B40134318462437BD4680BC704770
:10213C0080B582B000AF78607B68013BB3F1807FE3
:10214C0001D301230FE00A4A7B68013B53600F2146
:10215C004FF0FF30FFF790FF054B00229A60044BC5
:10216C0007221A60002318460837BD4680BD00BF01
:10217C0010E000E080B582B000AF78607868FFF7BF
:10218C002DFF00BF0837BD4680BD80B586B000AFBF
:10219C000346B9607A60FB7300237B61FFF742FF53
:1021AC0078617A68B9687869FFF790FF024697F909
:1021BC000F3011461846FFF75FFF00BF1837BD46BA
:1021CC0080BD80B582B000AF0346FB7197F9073034
:1021DC001846FFF735FF00BF0837BD4680BD80B5F8
:1021EC0082B000AF78607868FFF7A2FF034618460C
:1021FC000837BD4680BD000080B485B000AF786064
:10220C000023FB607B68002B01D1012343E07B683A
:10221C001B681A46224B1344224AA2FB03231B09B8
:10222C009A007B681A647B681F4ADA637B68022217
:10223C0083F821207B681B681B68FB60FB6823F418
:10224C007F5323F03003FB607B685A687B689B6884
:10225C001A437B68DB681A437B681B691A437B68EB
:10226C005B691A437B689B691A437B68DB69134380
:10227C00FA681343FB607B681B68FA681A607B681A
:10228C0000229A637B68012283F821207B6800225C
:10229C0083F82020002318461437BD4680BC7047B5
:1022AC00F8FFFDBFCDCCCCCC0000024080B586B091
:1022BC0000AFF860B9607A603B600023FB75FB6887
:1022CC0093F82030012B01D102234AE0FB68012254
:1022DC0083F82020FB6893F82130012B3AD1FB685E
:1022EC00022283F82120FB6800229A63FB681B689A
:1022FC001A68FB681B6822F001021A603B687A6856
:10230C00B968F86800F0E8F9FB68DB6A002B08D0C4
:10231C00FB681B681A68FB681B6842F00E021A60A7
:10232C000FE0FB681B681A68FB681B6822F004024C
:10233C001A60FB681B681A68FB681B6842F00A028B
:10234C001A60FB681B681A68FB681B6842F0010284
:10235C001A6005E0FB68002283F820200223FB753D
:10236C00FB7D18461837BD4680BD80B485B000AFE4
:10237C0078600023FB737B6893F82130022B08D024
:10238C007B6804229A637B68002283F82020012357
:10239C0020E07B681B681A687B681B6822F00E02C1
:1023AC001A607B681B681A687B681B6822F0010244
:1023BC001A607B681A6C7B68DB6B012101FA02F2F4
:1023CC005A607B68012283F821207B68002283F805
:1023DC002020FB7B18461437BD4680BC704700009C
:1023EC0080B584B000AF78600023FB737B6893F8F2
:1023FC002130022B05D07B6804229A630123FB73E6
:10240C0051E07B681B681A687B681B6822F00E021F
:10241C001A607B681B681A687B681B6822F00102D3
:10242C001A607B681B68224A934229D07B681B6820
:10243C00204A934222D07B681B681F4A93421AD0D1
:10244C007B681B681D4A934212D07B681B681C4A30
:10245C0093420AD07B681B681A4A934202D14FF40C
:10246C0080130EE04FF080730BE04FF4803308E0E4
:10247C004FF4805305E04FF4807302E0102300E02A
:10248C000123114A53607B68012283F821207B6869
:10249C00002283F820207B685B6B002B03D07B68C9
:1024AC005B6B78689847FB7B18461037BD4680BD40
:1024BC00080002401C000240300002404400024070
:1024CC00580002406C0002400000024080B584B00D
:1024DC0000AF78607B68DB6B1B68FB607B681B68FC
:1024EC001B68BB607B681B6C04229A40FB68134022
:1024FC00002B4FD0BB6803F00403002B4AD07B6841
:10250C001B681B6803F02003002B07D17B681B683A
:10251C001A687B681B6822F004021A607B681B68CF
:10252C00664A934229D07B681B68654A934222D045
:10253C007B681B68634A93421AD07B681B68624AAB
:10254C00934212D07B681B68604A93420AD07B6826
:10255C001B685F4A934202D14FF480030EE04FF0A8
:10256C0080630BE04FF4802308E04FF4804305E0D8
:10257C004FF4806302E0402300E00423554A53608B
:10258C007B68DB6A002B00F094807B68DB6A7868E0
:10259C0098478EE07B681B6C02229A40FB681340C4
:1025AC00002B56D0BB6803F00203002B51D07B6884
:1025BC001B681B6803F02003002B0BD17B681B6886
:1025CC001A687B681B6822F00A021A607B68012279
:1025DC0083F821207B681B68384A934229D07B689A
:1025EC001B68374A934222D07B681B68354A93425A
:1025FC001AD07B681B68344A934212D07B681B68E4
:10260C00324A93420AD07B681B68314A934202D10A
:10261C004FF400130EE04FF000730BE04FF4003357
:10262C0008E04FF4005305E04FF4007302E0202360
:10263C0000E00223274A53607B68002283F82020A5
:10264C007B689B6A002B34D07B689B6A78689847C0
:10265C002FE07B681B6C08229A40FB681340002B10
:10266C0028D0BB6803F00803002B23D07B681B68C1
:10267C001A687B681B6822F00E021A607B681A6C61
:10268C007B68DB6B012101FA02F25A607B68012244
:10269C009A637B68012283F821207B68002283F8EF
:1026AC0020207B681B6B002B04D07B681B6B78682D
:1026BC00984700BF00BF1037BD4680BD08000240E0
:1026CC001C0002403000024044000240580002400E
:1026DC006C0002400000024080B485B000AFF8608E
:1026EC00B9607A603B60FB681A6CFB68DB6B01219C
:1026FC0001FA02F25A60FB681B683A685A60FB6880
:10270C005B68102B08D1FB681B687A689A60FB68C1
:10271C001B68BA68DA6007E0FB681B68BA689A60E5
:10272C00FB681B687A68DA6000BF1437BD4680BC52
:10273C007047000080B48BB000AF78603960002324
:10274C007B6200233B6269E101227B6A02FA03F39C
:10275C00FB613B681B68FA691340BB61BA69FB6992
:10276C009A4240F058813B685B689A4A93425ED02B
:10277C00984A934275D8984A934258D0964A9342B5
:10278C006FD8964A934252D0944A934269D8944A4D
:10279C0093424CD0924A934263D8924A934246D089
:1027AC00904A93425DD8122B2AD8122B59D801A2E9
:1027BC0052F823F03B2800081528000827280008A9
:1027CC00692800086F2800086F2800086F28000887
:1027DC006F2800086F2800086F2800086F28000871
:1027EC006F2800086F2800086F2800086F28000861
:1027FC006F2800086F2800081D28000831280008E1
:10280C00794A934213D02CE03B68DB683B6229E0A9
:10281C003B68DB6804333B6224E03B68DB680833CD
:10282C003B621FE03B68DB680C333B621AE03B68A1
:10283C009B68002B02D104233B6213E03B689B682E
:10284C00012B05D108233B627B68FA691A6109E008
:10285C0008233B627B68FA695A6103E000233B6200
:10286C0000E000BFBB69FF2B01D87B6801E07B68EF
:10287C0004337B61BB69FF2B02D87B6A9B0002E0AF
:10288C007B6A083B9B003B617B691A680F213B69A3
:10289C0001FA03F3DB431A40396A3B6901FA03F38B
:1028AC001A437B691A603B685B6803F08053002B0A
:1028BC0000F0B1804D4B9B694C4A43F0010393618E
:1028CC004A4B9B6903F00103BB60BB68484A7B6AB7
:1028DC009B08023352F82330FB607B6A03F003033E
:1028EC009B000F2202FA03F3DB43FA681340FB60F0
:1028FC007B68404A934213D07B683F4A93420DD089
:10290C007B683E4A934207D07B683D4A934201D193
:10291C00032306E0042304E0022302E0012300E089
:10292C0000237A6A02F0030292009340FA68134380
:10293C00FB602F497B6A9B080233FA6841F823201D
:10294C003B685B6803F48033002B06D02D4B1A6870
:10295C002C49BB6913430B6006E02A4B1A68BB6910
:10296C00DB43284913400B603B685B6803F400337E
:10297C00002B06D0234B5A682249BB6913434B608A
:10298C0006E0204B5A68BB69DB431E4913404B6081
:10299C003B685B6803F48013002B06D0194B9A68D4
:1029AC001849BB6913438B6006E0164B9A68BB69E8
:1029BC00DB43144913408B603B685B6803F40013E2
:1029CC00002B21D00F4BDA680E49BB691343CB6047
:1029DC0021E000BF00003210000031100000221076
:1029EC000000211000001210000011100010024015
:1029FC000000014000080140000C014000100140A3
:102A0C0000140140000401400B4BDA68BB69DB4346
:102A1C0009491340CB607B6A01337B623B681A68BF
:102A2C007B6A22FA03F3002B7FF48EAE00BF00BF4B
:102A3C002C37BD4680BC70470004014080B483B085
:102A4C0000AF78600B467B8013467B707B78002B45
:102A5C0003D07A887B681A6103E07B881A047B6850
:102A6C001A6100BF0C37BD4680BC704780B485B07E
:102A7C0000AF78600B467B807B68DB68FB607A88F4
:102A8C00FB6813401A04FB68D9437B880B401A433C
:102A9C007B681A6100BF1437BD4680BC70470000CC
:102AAC0080B586B000AF78607B68002B01D1012324
:102ABC0072E27B681B6803F00103002B00F0878037
:102ACC00924B5B6803F00C03042B0CD08F4B5B68B0
:102ADC0003F00C03082B12D18C4B5B6803F480338E
:102AEC00B3F5803F0BD1894B1B6803F40033002BEB
:102AFC006CD07B685B68002B68D101234CE27B684F
:102B0C005B68B3F5803F06D1804B1B687F4A43F46A
:102B1C00803313602EE07B685B68002B0CD17B4B01
:102B2C001B687A4A23F480331360784B1B68774A0E
:102B3C0023F4802313601DE07B685B68B3F5A02F42
:102B4C000CD1724B1B68714A43F4802313606F4B9A
:102B5C001B686E4A43F4803313600BE06B4B1B68AD
:102B6C006A4A23F480331360684B1B68674A23F46A
:102B7C00802313607B685B68002B13D0FEF7D6FCB8
:102B8C00386108E0FEF7D2FC02463B69D31A642B8D
:102B9C0001D9032300E25D4B1B6803F40033002BC7
:102BAC00F0D014E0FEF7C2FC386108E0FEF7BEFC82
:102BBC0002463B69D31A642B01D90323ECE1534B36
:102BCC001B6803F40033002BF0D100E000BF7B68DE
:102BDC001B6803F00203002B63D04C4B5B6803F0C3
:102BEC000C03002B0BD0494B5B6803F00C03082B38
:102BFC001CD1464B5B6803F48033002B16D1434B3E
:102C0C001B6803F00203002B05D07B681B69012BAA
:102C1C0001D00123C0E13D4B1B6823F0F8027B6817
:102C2C005B69DB00394913430B603AE07B681B6935
:102C3C00002B20D0364B01221A60FEF777FC38614E
:102C4C0008E0FEF773FC02463B69D31A022B01D94C
:102C5C000323A1E12D4B1B6803F00203002BF0D0E2
:102C6C002A4B1B6823F0F8027B685B69DB00274961
:102C7C0013430B6015E0264B00221A60FEF756FC3E
:102C8C00386108E0FEF752FC02463B69D31A022B6E
:102C9C0001D9032380E11D4B1B6803F00203002BB9
:102CAC00F0D17B681B6803F00803002B3AD07B68DB
:102CBC009B69002B19D0174B01221A60FEF736FCCA
:102CCC00386108E0FEF732FC02463B69D31A022B4E
:102CDC0001D9032360E10D4B5B6A03F00203002B67
:102CEC00F0D0012000F0D8FA1CE00A4B00221A6048
:102CFC00FEF71CFC38610FE0FEF718FC02463B693E
:102D0C00D31A022B08D9032346E100BF001002405E
:102D1C000000424280044242924B5B6A03F0020381
:102D2C00002BE9D17B681B6803F00403002B00F037
:102D3C00A6800023FB758B4BDB6903F08053002BC3
:102D4C000DD1884BDB69874A43F08053D361854BA7
:102D5C00DB6903F08053BB60BB680123FB75824BBE
:102D6C001B6803F48073002B18D17F4B1B687E4AC1
:102D7C0043F480731360FEF7D9FB386108E0FEF76B
:102D8C00D5FB02463B69D31A642B01D9032303E11B
:102D9C00754B1B6803F48073002BF0D07B68DB68E9
:102DAC00012B06D16F4B1B6A6E4A43F00103136271
:102DBC002DE07B68DB68002B0CD16A4B1B6A694ADF
:102DCC0023F001031362674B1B6A664A23F004036A
:102DDC0013621CE07B68DB68052B0CD1614B1B6A12
:102DEC00604A43F0040313625E4B1B6A5D4A43F076
:102DFC00010313620BE05B4B1B6A5A4A23F001037D
:102E0C001362584B1B6A574A23F0040313627B6806
:102E1C00DB68002B15D0FEF789FB38610AE0FEF762
:102E2C0085FB02463B69D31A41F28832934201D9A1
:102E3C000323B1E04B4B1B6A03F00203002BEED0D3
:102E4C0014E0FEF773FB38610AE0FEF76FFB0246F5
:102E5C003B69D31A41F28832934201D903239BE098
:102E6C00404B1B6A03F00203002BEED1FB7D012BC0
:102E7C0005D13C4BDB693B4A23F08053D3617B6823
:102E8C00DB69002B00F08780364B5B6803F00C038A
:102E9C00082B61D07B68DB69022B46D1334B0022B7
:102EAC001A60FEF743FB386108E0FEF73FFB024671
:102EBC003B69D31A022B01D903236DE0294B1B6804
:102ECC0003F00073002BF0D17B681B6AB3F5803FD5
:102EDC0008D1244B5B6823F400327B689B68214942
:102EEC0013434B601F4B5B6823F474127B68196AA5
:102EFC007B685B6A0B431B4913434B601B4B0122E2
:102F0C001A60FEF713FB386108E0FEF70FFB024670
:102F1C003B69D31A022B01D903233DE0114B1B68EB
:102F2C0003F00073002BF0D035E0104B00221A6038
:102F3C00FEF7FCFA386108E0FEF7F8FA02463B6946
:102F4C00D31A022B01D9032326E0064B1B6803F08E
:102F5C000073002BF0D11EE07B68DB69012B07D1DD
:102F6C00012319E000100240007000406000424252
:102F7C000B4B5B68FB60FB6803F480327B681B6A5D
:102F8C009A4206D1FB6803F470127B685B6A9A4222
:102F9C0001D0012300E0002318461837BD4680BD40
:102FAC000010024080B584B000AF786039607B6857
:102FBC00002B01D10123D0E06A4B1B6803F00703FF
:102FCC003A689A4210D9674B1B6823F0070265498F
:102FDC003B6813430B60634B1B6803F007033A68B1
:102FEC009A4201D00123B8E07B681B6803F002030E
:102FFC00002B20D07B681B6803F00403002B05D04A
:10300C00594B5B68584A43F4E06353607B681B6818
:10301C0003F00803002B05D0534B5B68524A43F472
:10302C0060535360504B5B6823F0F0027B689B68E5
:10303C004D4913434B607B681B6803F00103002B65
:10304C0040D07B685B68012B07D1474B1B6803F4AE
:10305C000033002B15D101237FE07B685B68022BCA
:10306C0007D1414B1B6803F00073002B09D10123DE
:10307C0073E03D4B1B6803F00203002B01D10123CD
:10308C006BE0394B5B6823F003027B685B68364965
:10309C0013434B60FEF74AFAF8600AE0FEF746FA73
:1030AC000246FB68D31A41F28832934201D90323BA
:1030BC0053E02D4B5B6803F00C027B685B689B0054
:1030CC009A42EBD1274B1B6803F007033A689A42EC
:1030DC0010D2244B1B6823F0070222493B68134390
:1030EC000B60204B1B6803F007033A689A4201D02F
:1030FC00012332E07B681B6803F00403002B08D02B
:10310C00194B5B6823F4E0627B68DB681649134358
:10311C004B607B681B6803F00803002B09D0124B33
:10312C005B6823F460527B681B69DB000E49134318
:10313C004B6000F021F802460B4B5B681B0903F057
:10314C000F030A49CB5C22FA03F3094A1360094BBB
:10315C001B681846FEF7A8F9002318461037BD4621
:10316C0080BD00BF00200240001002401C4E000831
:10317C000C0000201000002090B48AB000AF294B46
:10318C003C1D0FCB84E80F0040F201233B80002351
:10319C00FB610023BB6100237B6200237B61002366
:1031AC003B62214B5B68FB61FB6903F00C03042B56
:1031BC0002D0082B03D02BE01C4B3B622BE0FB69AD
:1031CC009B0C03F00F0328333B4413F8243C7B6126
:1031DC00FB6903F48033002B12D0134B5B685B0C40
:1031EC0003F0010328333B4413F8283CBB617B6993
:1031FC000E4A03FB02F2BB69B2FBF3F37B6204E001
:10320C007B690B4A02FB03F37B627B6A3B6202E045
:10321C00064B3B6200BF3B6A18462837BD4690BC44
:10322C00704700BFFC4D00080010024000127A00ED
:10323C0000093D0080B400AF024B1B681846BD4628
:10324C0080BC70470C00002080B500AFFFF7F2FF88
:10325C000246054B5B681B0A03F007030349CB5C72
:10326C0022FA03F3184680BD001002402C4E0008D1
:10327C0080B500AFFFF7DEFF0246054B5B68DB0A4B
:10328C0003F007030349CB5C22FA03F3184680BD15
:10329C00001002402C4E000880B485B000AF78605E
:1032AC000A4B1B680A4AA2FB03235B0A7A6802FBDF
:1032BC0003F3FB6000BFFB685A1EFA60002BF9D1C8
:1032CC0000BF00BF1437BD4680BC70470C00002007
:1032DC00D34D621080B586B000AF786000233B619F
:1032EC000023FB607B681B6803F00103002B7DD07F
:1032FC000023FB754F4BDB6903F08053002B0DD182
:10330C004C4BDB694B4A43F08053D361494BDB692F
:10331C0003F08053BB60BB680123FB75464B1B68F5
:10332C0003F48073002B18D1434B1B68424A43F4BF
:10333C0080731360FEF7FAF8386108E0FEF7F6F8D0
:10334C0002463B69D31A642B01D903236DE03A4B37
:10335C001B6803F48073002BF0D0364B1B6A03F40C
:10336C004073FB60FB68002B2ED07B685B6803F41A
:10337C004073FA689A4227D02E4B1B6A23F4407391
:10338C00FB602E4B01221A602C4B00221A60294A3A
:10339C00FB681362FB6803F00103002B14D0FEF7EB
:1033AC00C5F838610AE0FEF7C1F802463B69D31A4A
:1033BC0041F28832934201D9032336E01D4B1B6A3C
:1033CC0003F00203002BEED01A4B1B6A23F440725D
:1033DC007B685B68174913430B62FB7D012B05D19E
:1033EC00144BDB69134A23F08053D3617B681B6851
:1033FC0003F00203002B08D00E4B5B6823F4404211
:10340C007B689B680B4913434B607B681B6803F01C
:10341C001003002B08D0074B5B6823F480027B68F9
:10342C00DB68044913434B60002318461837BD462C
:10343C0080BD00BF001002400070004040044242BA
:10344C0090B58DB000AF7860584B07F10C040FCBE2
:10345C0084E80F0040F201233B8100237B620023B0
:10346C00FB6200233B620023FB610023BB627B6891
:10347C00102B0AD07B68102B00F28E807B68012BFE
:10348C0049D07B68022B79D086E0494B5B68FB61A5
:10349C00474B1B6803F08073002B7FD0FB699B0CA0
:1034AC0003F00F0330333B4413F8243C3B62FB69BD
:1034BC0003F48033002B17D03D4B5B685B0C03F09F
:1034CC00010330333B4413F8283C7B62FB6903F463
:1034DC008033002B0DD0374A7B6AB2FBF3F23B6A88
:1034EC0002FB03F3FB6204E03B6A334A02FB03F387
:1034FC00FB622F4B5B6803F48003B3F5800F02D1A2
:10350C00FB6ABB624AE0FB6A5B002C4AA2FB03230A
:10351C005B08BB6242E0264B1B6AFB61FB6903F450
:10352C004073B3F5807F08D1FB6903F00203002BD5
:10353C0003D04FF40043BB621FE0FB6903F44073FC
:10354C00B3F5007F09D11A4B5B6A03F00203002B21
:10355C0003D049F64043BB620FE0FB6903F44073B0
:10356C00B3F5407F1CD1124B1B6803F40033002BC6
:10357C0016D04FF22443BB6212E011E0FFF778FE45
:10358C0002460B4B5B689B0B03F0030301335B00A0
:10359C00B2FBF3F3BB6204E000BF02E000BF00E04B
:1035AC0000BFBB6A18463437BD4690BD0C4E0008B0
:1035BC000010024000127A0000093D00ABAAAAAA32
:1035CC0080B582B000AF78607B68002B01D10123FD
:1035DC0076E07B685B6A002B08D17B685B68B3F58F
:1035EC00827F09D07B680022DA6105E07B680022CB
:1035FC001A617B6800225A617B6800229A627B68A0
:10360C0093F85130DBB2002B06D17B68002283F893
:10361C0050207868FDF70EFC7B68022283F851205D
:10362C007B681B681A687B681B6822F040021A6072
:10363C007B685B6803F482727B689B6803F40443C9
:10364C001A437B68DB6803F400631A437B681B69CD
:10365C0003F002031A437B685B6903F001031A430E
:10366C007B689B6903F400731A437B68DB6903F086
:10367C0038031A437B681B6A03F0800342EA030198
:10368C007B689B6A03F400527B681B680A431A60D0
:10369C007B689B691A0C7B681B6802F004025A60F9
:1036AC007B681B68DA697B681B6822F40062DA614C
:1036BC007B6800225A657B68012283F85120002325
:1036CC0018460837BD4680BD80B588B000AFF8609D
:1036DC00B9603B601346FB800023FB77FB6893F8D3
:1036EC005030012B01D1022326E1FB68012283F823
:1036FC005020FDF71BFFB861FB88FB82FB6893F839
:10370C005130DBB2012B02D00223FB770BE1BB68FB
:10371C00002B02D0FB88002B02D10123FB7702E1A6
:10372C00FB68032283F85120FB6800225A65FB6872
:10373C00BA681A63FB68FA889A86FB68FA88DA8694
:10374C00FB6800229A63FB6800229A87FB680022C0
:10375C00DA87FB6800225A64FB6800221A64FB6853
:10376C009B68B3F5004F0FD1FB681B681A68FB68A8
:10377C001B6822F040021A60FB681B681A68FB6821
:10378C001B6842F480421A60FB681B681B6803F0DC
:10379C004003402B07D0FB681B681A68FB681B684A
:1037AC0042F040021A60FB68DB68B3F5006F4BD146
:1037BC00FB685B68002B02D0FB8A012B3ED1FB68B7
:1037CC001B6B1A88FB681B68DA60FB681B6B9A1C06
:1037DC00FB681A63FB68DB8E9BB2013B9AB2FB68F9
:1037EC00DA862BE0FB681B689B6803F00203022B54
:1037FC0012D1FB681B6B1A88FB681B68DA60FB68CC
:10380C001B6B9A1CFB681A63FB68DB8E9BB2013B3B
:10381C009AB2FB68DA8611E0FDF788FE0246BB69B6
:10382C00D31A3A689A4203D83B68B3F1FF3F02D1EE
:10383C003B68002B02D10323FB7774E0FB68DB8E23
:10384C009BB2002BCED14CE0FB685B68002B02D006
:10385C00FB8A012B40D1FB681A6BFB681B680C338D
:10386C0012781A70FB681B6B5A1CFB681A63FB6896
:10387C00DB8E9BB2013B9AB2FB68DA862CE0FB68CC
:10388C001B689B6803F00203022B13D1FB681A6BB5
:10389C00FB681B680C3312781A70FB681B6B5A1C84
:1038AC00FB681A63FB68DB8E9BB2013B9AB2FB6828
:1038BC00DA8611E0FDF73AFE0246BB69D31A3A6884
:1038CC009A4203D83B68B3F1FF3F02D13B68002B0F
:1038DC0002D10323FB7726E0FB68DB8E9BB2002B27
:1038EC00CDD1BA693968F86800F0B2F80346002BFC
:1038FC0002D0FB6820225A65FB689B68002B0AD11A
:10390C0000233B61FB681B68DB683B61FB681B6841
:10391C009B683B613B69FB685B6D002B02D001230C
:10392C00FB7700E000BFFB68012283F85120FB68A5
:10393C00002283F85020FB7F18462037BD4680BDFF
:10394C0080B588B000AFF860B9603B601346FB717E
:10395C00FDF7ECFD0246BB6A9B1A3A681344FB6107
:10396C00FDF7E4FDB861394B1B685B011B0DFA696F
:10397C0002FB03F37B6154E03B68B3F1FF3F50D093
:10398C00FDF7D4FD0246BB69D31AFA699A4202D9F3
:10399C00FB69002B3DD1FB681B685A68FB681B68F0
:1039AC0022F0E0025A60FB685B68B3F5827F11D1AC
:1039BC00FB689B68B3F5004F04D0FB689B68B3F5BC
:1039CC00806F07D1FB681B681A68FB681B6822F0C4
:1039DC0040021A60FB689B6AB3F5005F0FD1FB686D
:1039EC001B681A68FB681B6822F400521A60FB689B
:1039FC001B681A68FB681B6842F400521A60FB686B
:103A0C00012283F85120FB68002283F85020032305
:103A1C0017E07B69002B01D10023FB617B69013B23
:103A2C007B61FB681B689A68BB681340BA689A4252
:103A3C000CBF01230023DBB21A46FB799A429BD1BF
:103A4C00002318462037BD4680BD00BF0C00002067
:103A5C0080B586B002AFF860B9607A607B6800937D
:103A6C00BB6800228021F868FFF76AFF0346002B31
:103A7C0007D0FB685B6D43F02002FB685A6503239B
:103A8C0000E0002318461037BD4680BD80B582B0DB
:103A9C0000AF78607B68002B01D101233FE07B688D
:103AAC0093F83D30DBB2002B06D17B68002283F803
:103ABC003C207868FDF7DAFA7B68242283F83D20F5
:103ACC007B681B68DA687B681B6822F40052DA603A
:103ADC00786800F025FC7B681B681A697B681B689A
:103AEC0022F490421A617B681B685A697B681B68D8
:103AFC0022F02A025A617B681B68DA687B681B68B3
:103B0C0042F40052DA607B6800221A647B6820223F
:103B1C0083F83D207B68202283F83E200023184642
:103B2C000837BD4680BD80B58AB002AFF860B96079
:103B3C003B601346FB8000237B61FB6893F83D30B0
:103B4C00DBB2202B7CD1BB68002B02D0FB88002B76
:103B5C0001D1012375E0FB6893F83C30012B01D1B6
:103B6C0002236EE0FB68012283F83C20FB680022F4
:103B7C001A64FB68212283F83D20FDF7D7FC78619D
:103B8C00FB68FA889A84FB68FA88DA84FB689B687D
:103B9C00B3F5805F08D1FB681B69002B04D10023AF
:103BAC00FB61BB68BB6103E0BB68FB610023BB61CD
:103BBC00FB68002283F83C202AE03B6800937B6979
:103BCC0000228021F86800F011FA0346002B01D086
:103BDC00032336E0FB69002B0BD1BB691B881A460B
:103BEC00FB681B68C2F308025A60BB690233BB61F5
:103BFC0007E0FB691A78FB681B685A60FB690133A4
:103C0C00FB61FB68DB8C9BB2013B9AB2FB68DA84EC
:103C1C00FB68DB8C9BB2002BCFD13B6800937B699C
:103C2C0000224021F86800F0E1F90346002B01D096
:103C3C00032306E0FB68202283F83D20002300E0EC
:103C4C00022318462037BD4680BD000080B58AB0DF
:103C5C0000AF78607B681B681B687B627B681B68A5
:103C6C00DB683B627B681B685B69FB610023BB61A3
:103C7C0000237B617B6A03F00F03BB61BB69002BE4
:103C8C000DD17B6A03F02003002B08D03B6A03F0B4
:103C9C002003002B03D0786800F099FA7BE1BB6914
:103CAC00002B00F0B180FB6903F00103002B05D160
:103CBC003B6A03F49073002B00F0A6807B6A03F040
:103CCC000103002B0AD03B6A03F48073002B05D050
:103CDC007B681B6C43F001027B681A647B6A03F0FF
:103CEC000403002B0AD0FB6903F00103002B05D061
:103CFC007B681B6C43F002027B681A647B6A03F0DE
:103D0C000203002B0AD0FB6903F00103002B05D042
:103D1C007B681B6C43F004027B681A647B6A03F0BB
:103D2C000803002B0FD03B6A03F02003002B04D1B7
:103D3C00FB6903F00103002B05D07B681B6C43F07F
:103D4C0008027B681A647B681B6C002B00F01E81D8
:103D5C007B6A03F02003002B07D03B6A03F020039F
:103D6C00002B02D0786800F032FA7B681B685B6924
:103D7C0003F04003002B14BF01230023DBB27B6153
:103D8C007B681B6C03F00803002B02D17B69002BB2
:103D9C0031D0786800F074F97B681B685B6903F0BC
:103DAC004003002B23D07B681B685A697B681B6817
:103DBC0022F040025A617B689B6B002B13D07B680E
:103DCC009B6B764A5A637B689B6B1846FEF708FB25
:103DDC000346002B16D07B689B6B5B6B7A68926BEF
:103DEC00104698470EE0786800F0ECF80AE0786826
:103DFC0000F0E8F806E0786800F0E4F87B68002250
:103E0C001A64C3E000BFC1E07B681B6B012B40F060
:103E1C00A1807B6A03F01003002B00F09B803B6AAF
:103E2C0003F01003002B00F095800023FB607B68EF
:103E3C001B681B68FB607B681B685B68FB60FB682E
:103E4C007B681B685B6903F04003002B4ED07B68DA
:103E5C009B6B1B685B683B823B8A002B00F0988055
:103E6C007B689B8D3A8A9A4280F092807B683A8A72
:103E7C00DA857B689B6B9B69202B2BD07B681B683E
:103E8C00DA687B681B6822F48072DA607B681B68D6
:103E9C005A697B681B6822F001025A617B681B68B7
:103EAC005A697B681B6822F040025A617B682022A9
:103EBC0083F83E207B6800221A637B681B68DA68F3
:103ECC007B681B6822F01002DA607B689B6B1846DB
:103EDC00FEF74BFA7B689A8D7B68DB8D9BB2D31A0D
:103EEC009BB21946786800F076F851E07B689A8DA1
:103EFC007B68DB8D9BB2D31A7B827B68DB8D9BB29C
:103F0C00002B47D07B8A002B44D07B681B68DA6877
:103F1C007B681B6822F49072DA607B681B685A69B4
:103F2C007B681B6822F001025A617B68202283F8AF
:103F3C003E207B6800221A637B681B68DA687B680A
:103F4C001B6822F01002DA607B8A1946786800F050
:103F5C0042F81FE07B6A03F08003002B08D03B6A19
:103F6C0003F08003002B03D0786800F0C9F812E04E
:103F7C007B6A03F04003002B0DD03B6A03F0400337
:103F8C00002B08D0786800F00AF904E000BF02E0CA
:103F9C0000BF00E000BF2837BD4680BDE5400008EB
:103FAC0080B483B000AF786000BF0C37BD4680BCD6
:103FBC00704780B483B000AF786000BF0C37BD464B
:103FCC0080BC704780B483B000AF786000BF0C3702
:103FDC00BD4680BC704780B483B000AF78600B46A0
:103FEC007B8000BF0C37BD4680BC704780B584B069
:103FFC0000AFF860B9603B601346FB712CE0BB6905
:10400C00B3F1FF3F28D0BB69002B07D0FDF78EFA28
:10401C0002463B68D31ABA699A421DD2FB681B68E8
:10402C00DA68FB681B6822F4D072DA60FB681B68E4
:10403C005A69FB681B6822F001025A61FB68202256
:10404C0083F83D20FB68202283F83E20FB68002289
:10405C0083F83C2003230FE0FB681B681A68BB68DD
:10406C001340BA689A420CBF01230023DBB21A46F4
:10407C00FB799A42C3D0002318461037BD4680BD49
:10408C0080B483B000AF78607B681B68DA687B68AB
:10409C001B6822F49072DA607B681B685A697B6833
:1040AC001B6822F001025A617B681B6B012B07D144
:1040BC007B681B68DA687B681B6822F01002DA6088
:1040CC007B68202283F83E207B6800221A6300BFA5
:1040DC000C37BD4680BC704780B584B000AF7860AB
:1040EC007B685B6AFB60FB680022DA85FB68002258
:1040FC00DA84F868FFF766FF00BF1037BD4680BD55
:10410C0080B485B000AF78607B6893F83D30DBB24B
:10411C00212B3ED17B689B68B3F5805F14D17B6803
:10412C001B69002B10D17B681B6AFB60FB681B882A
:10413C001A467B681B68C2F308025A607B681B6ACC
:10414C009A1C7B681A6208E07B681B6A591C7A68A7
:10415C0011621A787B681B685A607B68DB8C9BB297
:10416C00013B9BB27A681946D184002B0FD17B6836
:10417C001B68DA687B681B6822F08002DA607B6857
:10418C001B68DA687B681B6842F04002DA60002327
:10419C0000E0022318461437BD4680BC704780B53A
:1041AC0082B000AF78607B681B68DA687B681B683C
:1041BC0022F04002DA607B68202283F83D20786888
:1041CC00FFF7EEFE002318460837BD4680BD80B5CC
:1041DC0086B000AF78607B6893F83E30DBB2222B60
:1041EC0040F099807B689B68B3F5805F17D17B6842
:1041FC001B69002B13D100237B617B689B6A3B619D
:10420C007B681B685B689BB2C3F308039AB23B697B
:10421C001A807B689B6A9A1C7B689A6226E07B6892
:10422C009B6A7B6100233B617B689B68B3F5805F75
:10423C0007D07B689B68002B0AD17B681B69002B1D
:10424C0006D17B681B685B68DAB27B691A7008E080
:10425C007B681B685B68DBB203F07F03DAB27B69B7
:10426C001A707B689B6A5A1C7B689A627B68DB8D30
:10427C009BB2013B9BB27A681946D185002B48D181
:10428C007B681B68DA687B681B6822F02002DA60A6
:10429C007B681B68DA687B681B6822F48072DA60C2
:1042AC007B681B685A697B681B6822F001025A61A3
:1042BC007B68202283F83E207B681B6B012B23D16B
:1042CC007B6800221A637B681B68DA687B681B6852
:1042DC0022F01002DA607B681B681B6803F0100385
:1042EC00102B0AD10023FB607B681B681B68FB60EA
:1042FC007B681B685B68FB60FB687B689B8D194661
:10430C007868FFF768FE02E07868FFF752FE00233A
:10431C0002E0002300E0022318461837BD4680BD9A
:10432C0080B584B000AF78607B681B681B6923F490
:10433C0040517B68DA687B681B680A431A617B68AA
:10434C009A687B681B691A437B685B691343BB6083
:10435C007B681B68DB6823F4B05323F00C037A688A
:10436C001268B9680B43D3607B681B685B6923F4E4
:10437C0040717B689A697B681B680A435A617B6849
:10438C001B682C4A934203D1FEF772FFF86002E0DF
:10439C00FEF75AFFF860FA6813469B0013449A0024
:1043AC001A447B685B689B00B2FBF3F3224AA2FBC6
:1043BC0003235B091901FA6813469B0013449A0006
:1043CC001A447B685B689B00B2FBF3F21A4BA3FBAD
:1043DC0002035B09642000FB03F3D31A1B01323385
:1043EC00154AA2FB03235B0903F0F0031944FA6896
:1043FC0013469B0013449A001A447B685B689B002D
:10440C00B2FBF3F20C4BA3FB02035B09642000FB31
:10441C0003F3D31A1B013233074AA2FB03235B09B4
:10442C0003F00F027B681B680A449A6000BF1037C8
:10443C00BD4680BD003801401F85EB51014B18680B
:10444C00704700BF1800002070B500260C4D0D4CB5
:10445C00641BA410A64209D100F09CFC00260A4D56
:10446C000A4C641BA410A64205D170BD55F8043B40
:10447C0098470136EEE755F8043B98470136F2E7CA
:10448C0080540008805400088054000884540008AC
:10449C0003460244934200D1704703F8011BF9E72D
:1044AC000EB46FF0004100B59CB01DAB02900690AD
:1044BC00079104910848094953F8042B05910068A9
:1044CC0002A9019300F068F80022029B1A701CB03C
:1044DC005DF804EB03B07047180000200802FFFFE2
:1044EC002DE9F0478E6882469E420C4690461F4648
:1044FC0038D88A8912F4906F32D025680969013353
:10450C00A5EB010965694B4405EB450505EBD57534
:10451C006D109D4238BF1D46530531D5294600F01C
:10452C006FFB064650B90C234FF0FF30CAF8003031
:10453C00A38943F04003A381BDE8F0874A46216973
:10454C0000F0CEFAA38923F4906343F08003A38197
:10455C0026614E4426603E466561A5EB0905A560C3
:10456C00BE4200D93E4632464146206800F0C6FAAB
:10457C00A36800209B1BA360236833442360DBE704
:10458C002A4600F0B1FB06460028E1D150462169CD
:10459C0000F0CEFAC7E700002DE9F04F98468B8962
:1045AC0007461B060D4614469DB00ED50B6963B924
:1045BC00402100F025FB2860286120B90C233B60CA
:1045CC004FF0FF30D1E040236B610023099320238F
:1045DC008DF8293030234FF00109CDF80C80DFF82D
:1045EC00A4818DF82A3023469A4613F8012B0AB180
:1045FC00252AF9D1BAEB040B0BD05B46224629468F
:10460C003846FFF76DFF013000F0AA80099A5A4432
:10461C0009929AF80030002B00F0A28000234FF092
:10462C00FF32CDE905230AF1010A049307938DF8B3
:10463C0053301A935446052214F8011B514800F0CC
:10464C0041FA049AD8B9D00644BF20238DF85330D0
:10465C00110744BF2B238DF853309AF800302A2BC6
:10466C0015D0544600204FF00A0C079A214611F839
:10467C00013B303B092B4ED9B0B1079214E0A0EBB3
:10468C00080309FA03F31343A2460493D2E7039BEE
:10469C00191D1B680391002BBBBF5B4242F0020249
:1046AC0007930793B8BF049223782E2B0CD1637811
:1046BC002A2B35D1039B02341A1D1B680392002B45
:1046CC00B8BF4FF0FF330593DFF8BCA00322504670
:1046DC00217800F0F7F940B14023A0EB0A0003FA6F
:1046EC0000F0049B01340343049314F8011B0622CD
:1046FC0026488DF8281000F0E5F9002838D0244B16
:10470C001BBB039B073323F0070308330393099B5D
:10471C003344099367E70C4601200CFB0232A5E7F2
:10472C0000234FF00A0C194601340593204610F86B
:10473C00012B303A092A03D9002BC5D00591C3E7C8
:10474C00044601230CFB0121F0E703AB00932A463E
:10475C003846104B04A9AFF30080421C0646D6D154
:10476C00AB895B063FF52CAF09981DB0BDE8F08F07
:10477C0003AB00932A463846064B04A900F07CF89C
:10478C00EBE700BF4D540008535400085754000881
:10479C0000000000ED4400082DE9F047164699464C
:1047AC008A680B6907469342B8BF1346336091F889
:1047BC0043200C46DDF820800AB1013333602368B6
:1047CC00990642BF336802333360256815F006053D
:1047DC0006D104F1190AE36832689B1AAB4228DC53
:1047EC0094F84320131E226818BF012392062DD47F
:1047FC004946384604F14302C047013020D02368B3
:10480C00E56803F00603042B18BF002532684FF04F
:10481C000006A36808BFAD1A226908BF25EAE57532
:10482C009342C4BF9B1AED181A34B5421AD100201A
:10483C0008E00123524649463846C047013003D1AF
:10484C004FF0FF30BDE8F0870135C4E73020E118A8
:10485C0081F843005A1C94F845102244023382F824
:10486C004310C5E70123224649463846C04701306C
:10487C00E6D00136D9E700002DE9FF470F7E9146BF
:10488C00782F80460C469A460C9D01F1430207D8BE
:10489C00622F0AD8002F00F0D980582F00F0A48086
:1048AC0004F1420584F842703AE0A7F16303152B3A
:1048BC00F6D801A151F823F01D4900083149000830
:1048CC00AD480008AD480008AD480008AD480008E8
:1048DC0031490008AD480008AD480008AD48000853
:1048EC00AD4800083F4A000861490008214A000809
:1048FC00AD480008AD480008614A0008AD48000802
:10490C0061490008AD480008AD480008294A000874
:10491C002B681A1D1B682A6004F1420584F842308A
:10492C000123A4E020682968060601F104030AD5D6
:10493C000E682B60002E03DA2D23764284F8433068
:10494C000A235E4819E00E6810F0400F2B6018BF68
:10495C0036B2EFE72B682068191D2960010601D5D6
:10496C001E6802E04606FBD51E886F2F0CBF08237D
:10497C000A235248002184F843106568002DA8BF13
:10498C002168A560A4BF21F0040121600EB9002D9F
:10499C004DD01546B6FBF3F103FB1167C75D05F867
:1049AC00017D3746BB420E46F4D9082B0BD1236848
:1049BC00DE0708D5236961689942DEBF302305F80C
:1049CC00013C05F1FF35521B22614B462146404606
:1049DC00CDF800A003AAFFF7DFFE01304CD14FF059
:1049EC00FF3004B0BDE8F087344881F84570296881
:1049FC00236851F8046B29601D0614D5DF0744BFEA
:104A0C0043F0200323601EB9236823F020032360A6
:104A1C001023AFE7236843F0200323607823284852
:104A2C0084F84530E3E7590648BFB6B2E6E71546C9
:104A3C00BBE72B682668181D6169286035061B6862
:104A4C0001D5196002E07006FBD5198000231546CC
:104A5C002361BAE72B6800211A1D2A601D68626861
:104A6C00284600F02FF808B1401B60606368236192
:104A7C00002384F84330A8E72A4649464046236978
:104A8C00D0470130ABD023689B0713D4E068039B5D
:104A9C009842B8BF1846A4E701233246494640461F
:104AAC00D04701309BD00135E36803995B1AAB42C8
:104ABC00F2DCEBE7002504F11906F5E75E5400087B
:104ACC006F540008034610B5C9B20244934218460D
:104ADC0001D1002003E0047801338C42F6D110BDE3
:104AEC000A44914200F1FF3300D1704710B511F820
:104AFC00014B914203F8014FF9D110BD884210B51A
:104B0C0001EB020402D98442234607D8431EA1427A
:104B1C0008D011F8012B03F8012FF8E701460244E5
:104B2C008A4200D110BD13F8014D02F8014DF7E790
:104B3C0038B50546002940D051F8043C0C1F002B19
:104B4C00B8BFE41800F010F91C4A136833B963605D
:104B5C0014602846BDE8384000F00CB9A34208D9CF
:104B6C00206821188B4201BF19685B680918216005
:104B7C00EDE71A465B680BB1A342FAD911685018DD
:104B8C00A0420BD120680144501883421160E0D13F
:104B9C0018685B68014411605360DAE702D90C2392
:104BAC002B60D6E7206821188B4201BF19685B681F
:104BBC000918216063605460CBE738BD60020020A7
:104BCC0070B50E4E0C463168054611B900F0BCF8B4
:104BDC0030602146284600F0B7F8431C0AD0C41CAC
:104BEC0024F00304A04207D0211A284600F0ACF8A8
:104BFC00013001D14FF0FF34204670BD640200201B
:104C0C002DE9F041CD1C25F0030508350C2D38BFDE
:104C1C000C25002D074601DBA94205D90C230026E3
:104C2C003B603046BDE8F0812E4E00F09DF83368B5
:104C3C001C4634BB29463846FFF7C2FF431C0446CA
:104C4C004DD134682646002E40D123683146384673
:104C5C0004EB030800F078F880453AD1216803355D
:104C6C006D1A25F0030508350C2D38BF0C25384678
:104C7C002946FFF7A5FF01302BD023682B44236076
:104C8C000EE02268521B1ED40B2A16D96119A342BE
:104C9C00256018BF5960636808BF316062514B6072
:104CAC00384604F10B0600F065F826F00706231DC4
:104CBC00F21AB6D09B1BA350B3E76268A3420CBF99
:104CCC0032605A60ECE723466468B2E73446766893
:104CDC00B9E70C2338463B6000F04CF8A1E725609F
:104CEC00DEE700BF600200202DE9F041804614464B
:104CFC000E4621B91146BDE8F041FFF781BF2AB934
:104D0C00FFF716FF25462846BDE8F08100F038F87D
:104D1C008442074602D8B4EB500F12D821464046C5
:104D2C00FFF76EFF05460028EDD0BC422246314607
:104D3C0028BF3A46FFF7D4FE31464046FFF7F8FE4F
:104D4C00E1E73546DFE7000038B50023054D0446A2
:104D5C0008462B60FCF724F9431C02D12B6803B1E5
:104D6C00236038BD68020020014800F011B800BF74
:104D7C006C020020014800F00CB800BF6C0200204F
:104D8C0051F8043C181F002BBCBF0B58C0187047BF
:104D9C0070477047F8B500BFF8BC08BC9E4670471A
:0C4DAC00F8B500BFF8BC08BC9E4670477C
:104DB80048656C6C6F2C4550492100005631203DE8
:104DC8002025642E25642564205600005632203D97
:104DD8002025642E2564256420560D0A0000000055
:104DE8005761726D696E6721212100005361666504
:104DF8002E00000002030405060708090A0B0C0D23
:104E08000E0F101002030405060708090A0B0C0D03
:104E18000E0F101000000000000000000102030443
:104E28000607080900000000010203040000000052
:104E3800000000000000000000000000000000F872
:104E480000000000000000333000000000100C06D5
:104E5800100C0600000000000000000040C0784070
:104E6800C0784000043F04043F040400007088FC3C
:104E780008300000001820FF211E0000F008F00094
:104E8800E018000000211C031E211E0000F0088805
:104E9800700000001E2123241927211010160E006F
:104EA800000000000000000000000000000000E01A
:104EB800180402000000000718204000000204182F
:104EC800E00000000040201807000000404080F08B
:104ED800804040000202010F01020200000000F0C1
:104EE800000000000101011F010101000000000095
:104EF8000000000080B0700000000000000000000A
:104F08000000000000010101010101010000000092
:104F18000000000000303000000000000000000029
:104F280080601804006018060100000000E0100806
:104F38000810E000000F102020100F00001010F8DB
:104F4800000000000020203F20200000007008081A
:104F5800088870000030282422213000003008889A
:104F6800884830000018202020110E000000C020C2
:104F780010F8000000070424243F240000F80888E3
:104F8800880808000019212020110E0000E0108870
:104F980088180000000F112020110E0000380808A2
:104FA800C83808000000003F0000000000708808B2
:104FB80008887000001C222121221C0000E0100833
:104FC8000810E0000000312222110F00000000C08C
:104FD800C000000000000030300000000000008029
:104FE8000000000000008060000000000000804019
:104FF8002010080000010204081020004040404032
:105008004040400004040404040404000008102084
:1050180040800000002010080402010000704808C9
:105028000808F0000000003036010000C030C82831
:10503800E810E0000718272423140B000000C038EC
:10504800E0000000203C23020227382008F8888866
:1050580088700000203F202020110E00C030080872
:1050680008083800071820202010080008F8080849
:105078000810E000203F202020100F0008F8888842
:10508800E8081000203F20202320180008F888880E
:10509800E8081000203F200003000000C030080886
:1050A8000838000007182020221E020008F808000F
:1050B8000008F808203F210101213F20000808F8D6
:1050C800080800000020203F2020000000000808F9
:1050D800F8080800C08080807F00000008F888C0B9
:1050E80028180800203F20012638200008F808006A
:1050F80000000000203F20202020300008F8F800A1
:10510800F8F80800203F003F003F200008F830C0B2
:105118000008F808203F200007183F00E0100808A2
:105128000810E0000F10202020100F0008F80808D1
:105138000808F000203F210101010000E0100808E4
:105148000810E0000F18242438504F0008F8888809
:1051580088887000203F2000030C302000708808E9
:10516800080838000038202121221C00180808F8F7
:10517800080818000000203F2000000008F8080078
:105188000008F808001F202020201F000878880049
:1051980000C83808000007380E010000F80800F8B9
:1051A8000008F800033C0700073C03000818688063
:1051B8008068180820302C03032C30200838C800D9
:1051C800C83808000000203F200000001008080828
:1051D800C83808002038262120201800000000FECA
:1051E800020202000000007F40404000000C30C076
:1051F80000000000000000010638C00000020202A2
:10520800FE000000004040407F0000000000040253
:10521800020204000000000000000000000000007E
:10522800000000008080808080808080000202046E
:105238000000000000000000000000000000808066
:10524800808000000019242222223F2008F80080D4
:1052580080000000003F112020110E000000008097
:1052680080800000000E1120202011000000008026
:105278008088F800000E112020103F200000808058
:1052880080800000001F222222221300008080F06C
:10529800888888180020203F202000000000808097
:1052A80080808000006B94949493600008F80080DC
:1052B80080800000203F210000203F200080989837
:1052C800000000000020203F202000000000008097
:1052D8009898000000C08080807F000008F80000D7
:1052E80080808000203F24022D302000000808F82C
:1052F800000000000020203F2020000080808080E7
:1053080080808000203F20003F20003F8080008078
:1053180080800000203F210000203F200000808086
:1053280080800000001F202020201F008080008037
:105338008000000080FFA12020110E0000000080E6
:1053480080808000000E112020A0FF8080808000D7
:105358008080800020203F21200001000000808004
:10536800808080000033242424241900008080E0F9
:10537800808000000000001F2020000080800000C6
:1053880000808000001F202020103F2080808000A7
:105398000080808000010E300806010080800080B7
:1053A800008080800F300C030C300F0000808000DC
:1053B800808080000020312E0E3120008080800007
:1053C8000080808080818E701806010000808080B7
:1053D800808080000021302C222130000000000055
:1053E800807C020200000000003F404000000000F6
:1053F800FF00000000000000FF0000000002027C27
:10540800800000000040403F00000000000601014D
:10541800020204040000000000000000FFFFFFFF7C
:10542800FFFFFFFFFFFFFFFFFFFFFFFFAED590A8C5
:105438003FD300408D142002A1C8DA128166D9F149
:10544800DB30A4A6AF232D302B2000686C4C006500
:105458006667454647003031323334353637383998
:1054680041424344454600303132333435363738CB
:0854780039616263646566009E
:0454800031010008EE
:045484000D0100080E
:1054880048656C6C6F2C455049210A000024F400D3
:1054980010000000010000001C00002000000000B7
:1054A80000000000000000000000000000000000F4
:1054B80000000000000000000000000000000000E4
:1054C80000000000000000000000000000000000D4
:1054D80000000000000000000000000000000000C4
:1054E80000000000000000000000000000000000B4
:0C54F800000000000000000000000000A8
:040000050800143D9E
:00000001FF
