:020000040800F2
:10000000005000208108000861040008670400080F
:100010006D04000873040008790400080000000063
:100020000000000000000000000000007F04000845
:100030008B0400080000000097040008A3040008D7
:10004000C9080008C9080008C9080008C90800084C
:10005000C9080008C9080008C9080008C90800083C
:10006000C9080008C9080008C9080008C90800082C
:10007000C9080008C9080008C9080008C90800081C
:10008000C9080008C9080008C9080008C90800080C
:10009000C9080008C9080008C9080008C9080008FC
:1000A000C9080008B1040008C9080008C908000808
:1000B000C9080008C9080008C9080008C9080008DC
:1000C000C9080008C9080008C9080008C9080008CC
:1000D000C9080008C5040008C9080008C9080008C4
:1000E000C9080008C9080008C90800080000000085
:1000F0000000000000000000000000000000000000
:0C01000000000000000000005FF808F1A3
:10010C0010B5054C237833B9044B13B10448AFF345
:10011C0000800123237010BD0C00002000000000A3
:10012C00F42C000808B5034B1BB103490348AFF38B
:10013C00008008BD0000000010000020F42C000816
:10014C0080B588B000AF07F1100300221A605A6026
:10015C009A60DA60384B9B69374A43F0100393611D
:10016C00354B9B6903F01003FB60FB68324B9B69BA
:10017C00314A43F0200393612F4B9B6903F020031A
:10018C00BB60BB682C4B9B692B4A43F00403936107
:10019C00294B9B6903F004037B607B68264B9B69AE
:1001AC00254A43F008039361234B9B6903F0080332
:1001BC003B603B6801224FF40051204800F024FFC3
:1001CC0001225F211E4800F01FFF00224FF48061C6
:1001DC001C4800F019FF4FF400533B6101237B6175
:1001EC000123BB610323FB6107F11003194613487C
:1001FC0000F086FD5F233B6101237B610123BB6122
:10020C000323FB6107F1100319460D4800F078FD3C
:10021C004FF480633B6101237B610223BB610323A9
:10022C00FB6107F110031946064800F069FD00BF99
:10023C002037BD4680BD00BF0010024000100140B9
:10024C0000080140000C014080B500AF00F038FB05
:10025C0000F011F8FFF774FF00F056F800F0B4F955
:10026C0000F03AF900F0ECFA00F0C4FA00F09DFA54
:10027C0000F0C0FAFCE780B590B000AF07F11803AE
:10028C0028220021184602F027FD3B1D00221A608F
:10029C005A609A60DA601A610123BB614FF48033B3
:1002AC00FB6100233B620123BB6202237B634FF49F
:1002BC008033BB634FF40023FB6307F1180318462C
:1002CC0000F0BAFE0346002B01D000F018F80F2303
:1002DC007B600223BB600023FB6000233B61002397
:1002EC007B613B1D0121184601F028F90346002BC8
:1002FC0001D000F004F800BF4037BD4680BD80B48B
:10030C0000AF72B600BFFEE780B500AF174B184ABE
:10031C001A60164B4FF482725A60144B00229A608A
:10032C00124B0022DA60114B00221A610F4B002293
:10033C005A610E4B4FF400729A610C4B0022DA6139
:10034C000A4B00221A62094B00225A62074B002208
:10035C009A62064B0A22DA62044801F087FA0346D5
:10036C00002B01D0FFF7CBFF00BF80BD2800002081
:10037C000030014080B588B000AF786007F1100301
:10038C0000221A605A609A60DA607B681B68154A12
:10039C00934223D1144B9B69134A43F480539361CA
:1003AC00114B9B6903F48053FB60FB680E4B9B69FC
:1003BC000D4A43F0040393610B4B9B6903F0040358
:1003CC00BB60BB68A0233B6102237B610323FB6101
:1003DC0007F110031946054800F092FC00BF2037C6
:1003EC00BD4680BD003001400010024000080140B5
:1003FC0080B485B000AF154B9B69144A43F00103E0
:10040C009361124B9B6903F00103BB60BB680F4BFC
:10041C00DB690E4A43F08053D3610C4BDB6903F06C
:10042C0080537B607B680A4B5B68FB60FB6823F046
:10043C00E063FB60FB6843F00073FB60044AFB68FD
:10044C00536000BF1437BD4680BC7047001002409B
:10045C000000014080B400AFFEE780B400AFFEE7BF
:10046C0080B400AFFEE780B400AFFEE780B400AF0D
:10047C00FEE780B400AF00BFBD4680BC704780B4BF
:10048C0000AF00BFBD4680BC704780B400AF00BF5A
:10049C00BD4680BC704780B500AF00F057FA00BF76
:1004AC0080BD000080B500AF024801F094FC00BF95
:1004BC0080BD00BF8000002080B500AF024802F074
:1004CC0039F800BF80BD00BFC800002080B400AF69
:1004DC0000BFBD4680BC704780B586B000AF07F149
:1004EC00080300221A605A609A60DA603B460022C8
:1004FC001A605A601F4B204A1A601E4B40F2E732BA
:10050C005A601C4B00229A601A4B40F2CF72DA6090
:10051C00184B00221A61174B00225A61154B80228E
:10052C009A61144801F008FC0346002B01D0FFF738
:10053C00E6FE4FF48053BB6007F1080319460D48E3
:10054C0001F051FD0346002B01D0FFF7D8FE00232C
:10055C003B6000237B603B461946064801F02CFFAC
:10056C000346002B01D0FFF7CAFE00BF1837BD466B
:10057C0080BD00BF80000020002C014080B584B0FD
:10058C0000AF78607B681B680D4A934213D10D4B0A
:10059C009B690C4A43F4006393610A4B9B6903F417
:1005AC000063FB60FB6800220021192000F0C1FAF7
:1005BC00192000F0DAFA00BF1037BD4680BD00BF2D
:1005CC00002C01400010024080B500AF114B124AC4
:1005DC001A60104B4FF416525A600E4B00229A6060
:1005EC000C4B0022DA600B4B00221A61094B0C22D7
:1005FC005A61084B00229A61064B0022DA610548C9
:10060C0001F04AFF0346002B01D0FFF778FE00BF34
:10061C0080BD00BFC80000200038014080B588B004
:10062C0000AF786007F1100300221A605A609A60DC
:10063C00DA607B681B68204A934239D11F4B9B6957
:10064C001E4A43F4804393611C4B9B6903F4804323
:10065C00FB60FB68194B9B69184A43F004039361D8
:10066C00164B9B6903F00403BB60BB684FF400732B
:10067C003B6102237B610323FB6107F110031946E5
:10068C000F4800F03DFB4FF480633B6100237B611E
:10069C000023BB6107F110031946094800F030FB39
:1006AC0000220021252000F044FA252000F05DFAFC
:1006BC0000BF2037BD4680BD00380140001002400D
:1006CC000008014080B582B000AF0346FB710022E8
:1006DC0010210C4800F098FC00220821094800F079
:1006EC0093FCF91D4FF47A730122074801F042F98B
:1006FC0001221021034800F087FC00BF0837BD46DB
:10070C0080BD00BF000801402800002080B582B0E9
:10071C0000AF0346FB71002210210C4800F074FC62
:10072C0001220821094800F06FFCF91D4FF47A737F
:10073C000122074801F01EF901221021034800F0A4
:10074C0063FC00BF0837BD4680BD00BF00080140F8
:10075C002800002080B582B000AF0346FB71FB7906
:10076C000233FB71FB791B09DBB243F01003DBB2E4
:10077C001846FFF7A7FFFB7903F00F03DBB218460F
:10078C00FFF7A0FF00BF0837BD4680BD80B582B023
:10079C0000AF0346FB71FB79503BDBB21846FFF709
:1007AC0091FF00BF0837BD4680BD80B582B000AF59
:1007BC000023FB7116E0FB791846FFF7E7FF0020DA
:1007CC00FFF7C8FF0023BB7105E00020FFF79EFF79
:1007DC00BB790133BB7197F90630002BF5DAFB7945
:1007EC000133FB71FB79072BE5D900BF00BF08373C
:1007FC00BD4680BD80B582B000AF0023FB7116E012
:10080C00FB791846FFF7C2FF0020FFF7A3FF002378
:10081C00BB7105E0FF20FFF779FFBB790133BB719A
:10082C0097F90630002BF5DAFB790133FB71FB7974
:10083C00072BE5D900BF00BF0837BD4680BD0000BF
:10084C0080B582B000AF0023FB7108E0FB79084A49
:10085C00D35C1846FFF736FFFB790133FB71FB794C
:10086C00182BF3D900BF00BF0837BD4680BD00BFB1
:10087C00342D00080C480D490D4A002302E0D458D1
:10088C00C4500433C4188C42F9D30A4A0A4C0023CE
:10089C0001E013600432A242FBD3FFF717FE02F013
:1008AC00F7F9FFF7D1FC7047000000200C00002086
:1008BC00582D00080C00002010010020FEE700005D
:1008CC0080B500AF084B1B68074A43F01003136058
:1008DC00032000F023F90F2000F008F8FFF788FD43
:1008EC000023184680BD00BF0020024080B582B0B6
:1008FC0000AF7860124B1A68124B1B7819464FF4F4
:10090C007A73B3FBF1F3B2FBF3F3184600F03BF947
:10091C000346002B01D001230EE07B680F2B0AD875
:10092C00002279684FF0FF3000F003F9064A7B682B
:10093C001360002300E0012318460837BD4680BD34
:10094C0000000020080000200400002080B400AF4C
:10095C00054B1B781A46054B1B681344034A13605E
:10096C0000BFBD4680BC7047080000200C01002071
:10097C0080B400AF024B1B681846BD4680BC704764
:10098C000C01002080B485B000AF78607B6803F068
:10099C000703FB600C4BDB68BB60BA684FF6FF03C8
:1009AC001340BB60FB681A02BB68134343F0BF6380
:1009BC0043F40033BB60044ABB68D36000BF1437F8
:1009CC00BD4680BC704700BF00ED00E080B400AFB6
:1009DC00044BDB681B0A03F007031846BD4680BCBA
:1009EC00704700BF00ED00E080B483B000AF034659
:1009FC00FB7197F90730002B0BDBFB7903F01F021F
:100A0C00064997F907305B09012000FA02F241F818
:100A1C00232000BF0C37BD4680BC704700E100E0CE
:100A2C0080B483B000AF03463960FB7197F907308F
:100A3C00002B0ADB3B68DAB20C4997F9073012013C
:100A4C00D2B20B4483F800230AE03B68DAB20849BF
:100A5C00FB7903F00F03043B1201D2B20B441A765C
:100A6C0000BF0C37BD4680BC704700BF00E100E002
:100A7C0000ED00E080B489B000AFF860B9607A6036
:100A8C00FB6803F00703FB61FB69C3F10703042B4D
:100A9C0028BF0423BB61FB690433062B02D9FB6915
:100AAC00033B00E000237B614FF0FF32BB6902FA8D
:100ABC0003F3DA43BB681A407B699A404FF0FF316D
:100ACC007B6901FA03F3D9437B680B401343184647
:100ADC002437BD4680BC704780B582B000AF7860CB
:100AEC007B68013BB3F1807F01D301230FE00A4AFD
:100AFC007B68013B53600F214FF0FF30FFF790FFF5
:100B0C00054B00229A60044B07221A6000231846FA
:100B1C000837BD4680BD00BF10E000E080B582B054
:100B2C0000AF78607868FFF72DFF00BF0837BD462F
:100B3C0080BD80B586B000AF0346B9607A60FB73A8
:100B4C0000237B61FFF742FF78617A68B9687869A6
:100B5C00FFF790FF024697F90F3011461846FFF742
:100B6C005FFF00BF1837BD4680BD80B582B000AFB7
:100B7C000346FB7197F907301846FFF735FF00BFA6
:100B8C000837BD4680BD80B582B000AF786078680C
:100B9C00FFF7A2FF034618460837BD4680BD80B458
:100BAC0085B000AF78600023FB737B6893F821302D
:100BBC00022B08D07B6804229A637B68002283F89E
:100BCC002020012320E07B681B681A687B681B6867
:100BDC0022F00E021A607B681B681A687B681B681F
:100BEC0022F001021A607B681A6C7B68DB6B0121B6
:100BFC0001FA02F25A607B68012283F821207B689B
:100C0C00002283F82020FB7B18461437BD4680BC9D
:100C1C007047000080B584B000AF78600023FB7390
:100C2C007B6893F82130022B05D07B6804229A63F1
:100C3C000123FB7351E07B681B681A687B681B6897
:100C4C0022F00E021A607B681B681A687B681B68AE
:100C5C0022F001021A607B681B68224A934229D059
:100C6C007B681B68204A934222D07B681B681F4A12
:100C7C0093421AD07B681B681D4A934212D07B6842
:100C8C001B681C4A93420AD07B681B681A4A934221
:100C9C0002D14FF480130EE04FF080730BE04FF451
:100CAC00803308E04FF4805305E04FF4807302E08A
:100CBC00102300E00123114A53607B68012283F862
:100CCC0021207B68002283F820207B685B6B002B43
:100CDC0003D07B685B6B78689847FB7B18461037B2
:100CEC00BD4680BD080002401C000240300002409E
:100CFC0044000240580002406C00024000000240D8
:100D0C0080B48BB000AF7860396000237B62002325
:100D1C003B6269E101227B6A02FA03F3FB613B68E7
:100D2C001B68FA691340BB61BA69FB699A4240F0CF
:100D3C0058813B685B689A4A93425ED0984A9342CA
:100D4C0075D8984A934258D0964A93426FD8964A8F
:100D5C00934252D0944A934269D8944A93424CD0CD
:100D6C00924A934263D8924A934246D0904A934215
:100D7C005DD8122B2AD8122B59D801A252F823F085
:100D8C00070E0008E10D0008F30D0008350E0008F1
:100D9C003B0E00083B0E00083B0E00083B0E000803
:100DAC003B0E00083B0E00083B0E00083B0E0008F3
:100DBC003B0E00083B0E00083B0E00083B0E0008E3
:100DCC003B0E0008E90D0008FD0D0008794A93421E
:100DDC0013D02CE03B68DB683B6229E03B68DB68A6
:100DEC0004333B6224E03B68DB6808333B621FE062
:100DFC003B68DB680C333B621AE03B689B68002B5A
:100E0C0002D104233B6213E03B689B68012B05D1A4
:100E1C0008233B627B68FA691A6109E008233B628C
:100E2C007B68FA695A6103E000233B6200E000BF73
:100E3C00BB69FF2B01D87B6801E07B6804337B61C5
:100E4C00BB69FF2B02D87B6A9B0002E07B6A083BE4
:100E5C009B003B617B691A680F213B6901FA03F324
:100E6C00DB431A40396A3B6901FA03F31A437B6985
:100E7C001A603B685B6803F08053002B00F0B18074
:100E8C004D4B9B694C4A43F0010393614A4B9B6960
:100E9C0003F00103BB60BB68484A7B6A9B080233C2
:100EAC0052F82330FB607B6A03F003039B000F2294
:100EBC0002FA03F3DB43FA681340FB607B68404A99
:100ECC00934213D07B683F4A93420DD07B683E4AD5
:100EDC00934207D07B683D4A934201D1032306E03D
:100EEC00042304E0022302E0012300E000237A6AD9
:100EFC0002F0030292009340FA681343FB602F49FF
:100F0C007B6A9B080233FA6841F823203B685B68D4
:100F1C0003F48033002B06D02D4B1A682C49BB6987
:100F2C0013430B6006E02A4B1A68BB69DB43284964
:100F3C0013400B603B685B6803F40033002B06D056
:100F4C00234B5A682249BB6913434B6006E0204B84
:100F5C005A68BB69DB431E4913404B603B685B68B6
:100F6C0003F48013002B06D0194B9A681849BB69FF
:100F7C0013438B6006E0164B9A68BB69DB4314493C
:100F8C0013408B603B685B6803F40013002B21D08B
:100F9C000F4BDA680E49BB691343CB6021E000BFED
:100FAC00000032100000311000002210000021104F
:100FBC00000012100000111000100240000001404F
:100FCC0000080140000C01400010014000140140D9
:100FDC00000401400B4BDA68BB69DB430949134041
:100FEC00CB607B6A01337B623B681A687B6A22FAAE
:100FFC0003F3002B7FF48EAE00BF00BF2C37BD4631
:10100C0080BC70470004014080B483B000AF7860AE
:10101C000B467B8013467B707B78002B03D07A8841
:10102C007B681A6103E07B881A047B681A6100BF35
:10103C000C37BD4680BC704780B586B000AF786079
:10104C007B68002B01D1012372E27B681B6803F0E3
:10105C000103002B00F08780924B5B6803F00C03BC
:10106C00042B0CD08F4B5B6803F00C03082B12D1B4
:10107C008C4B5B6803F48033B3F5803F0BD1894B09
:10108C001B6803F40033002B6CD07B685B68002B6F
:10109C0068D101234CE27B685B68B3F5803F06D1D5
:1010AC00804B1B687F4A43F4803313602EE07B68CF
:1010BC005B68002B0CD17B4B1B687A4A23F4803382
:1010CC001360784B1B68774A23F4802313601DE070
:1010DC007B685B68B3F5A02F0CD1724B1B68714A0F
:1010EC0043F4802313606F4B1B686E4A43F48033C8
:1010FC0013600BE06B4B1B686A4A23F4803313605C
:10110C00684B1B68674A23F4802313607B685B6819
:10111C00002B13D0FFF72CFC386108E0FFF728FCFC
:10112C0002463B69D31A642B01D9032300E25D4BC1
:10113C001B6803F40033002BF0D014E0FFF718FC0D
:10114C00386108E0FFF714FC02463B69D31A642BA4
:10115C0001D90323ECE1534B1B6803F40033002B40
:10116C00F0D100E000BF7B681B6803F00203002B8A
:10117C0063D04C4B5B6803F00C03002B0BD0494B3A
:10118C005B6803F00C03082B1CD1464B5B6803F423
:10119C008033002B16D1434B1B6803F00203002B4A
:1011AC0005D07B681B69012B01D00123C0E13D4BAD
:1011BC001B6823F0F8027B685B69DB003949134339
:1011CC000B603AE07B681B69002B20D0364B012268
:1011DC001A60FFF7CDFB386108E0FFF7C9FB024648
:1011EC003B69D31A022B01D90323A1E12D4B1B68B8
:1011FC0003F00203002BF0D02A4B1B6823F0F802FB
:10120C007B685B69DB00274913430B6015E0264BB9
:10121C0000221A60FFF7ACFB386108E0FFF7A8FB6F
:10122C0002463B69D31A022B01D9032380E11D4BE3
:10123C001B6803F00203002BF0D17B681B6803F0E2
:10124C000803002B3AD07B689B69002B19D0174BF5
:10125C0001221A60FFF78CFB386108E0FFF788FB6E
:10126C0002463B69D31A022B01D9032360E10D4BD3
:10127C005B6A03F00203002BF0D0012000F0D8FAD7
:10128C001CE00A4B00221A60FFF772FB38610FE07A
:10129C00FFF76EFB02463B69D31A022B08D90323D6
:1012AC0046E100BF0010024000004242800442426E
:1012BC00924B5B6A03F00203002BE9D17B681B683D
:1012CC0003F00403002B00F0A6800023FB758B4B6E
:1012DC00DB6903F08053002B0DD1884BDB69874A07
:1012EC0043F08053D361854BDB6903F08053BB60C3
:1012FC00BB680123FB75824B1B6803F48073002BC6
:10130C0018D17F4B1B687E4A43F480731360FFF740
:10131C002FFB386108E0FFF72BFB02463B69D31A21
:10132C00642B01D9032303E1754B1B6803F4807311
:10133C00002BF0D07B68DB68012B06D16F4B1B6A4E
:10134C006E4A43F0010313622DE07B68DB68002BCF
:10135C000CD16A4B1B6A694A23F001031362674B79
:10136C001B6A664A23F0040313621CE07B68DB688B
:10137C00052B0CD1614B1B6A604A43F004031362CA
:10138C005E4B1B6A5D4A43F0010313620BE05B4B3F
:10139C001B6A5A4A23F001031362584B1B6A574AC3
:1013AC0023F0040313627B68DB68002B15D0FFF776
:1013BC00DFFA38610AE0FFF7DBFA02463B69D31A21
:1013CC0041F28832934201D90323B1E04B4B1B6AA3
:1013DC0003F00203002BEED014E0FFF7C9FA3861DA
:1013EC000AE0FFF7C5FA02463B69D31A41F288328C
:1013FC00934201D903239BE0404B1B6A03F0020389
:10140C00002BEED1FB7D012B05D13C4BDB693B4A1C
:10141C0023F08053D3617B68DB69002B00F087805D
:10142C00364B5B6803F00C03082B61D07B68DB69DF
:10143C00022B46D1334B00221A60FFF799FA386120
:10144C0008E0FFF795FA02463B69D31A022B01D943
:10145C0003236DE0294B1B6803F00073002BF0D1C4
:10146C007B681B6AB3F5803F08D1244B5B6823F47F
:10147C0000327B689B68214913434B601F4B5B68B0
:10148C0023F474127B68196A7B685B6A0B431B49F3
:10149C0013434B601B4B01221A60FFF769FA38614A
:1014AC0008E0FFF765FA02463B69D31A022B01D913
:1014BC0003233DE0114B1B6803F00073002BF0D0AD
:1014CC0035E0104B00221A60FFF752FA386108E041
:1014DC00FFF74EFA02463B69D31A022B01D90323BC
:1014EC0026E0064B1B6803F00073002BF0D11EE0C6
:1014FC007B68DB69012B07D1012319E00010024046
:10150C0000700040600042420B4B5B68FB60FB6864
:10151C0003F480327B681B6A9A4206D1FB6803F4A1
:10152C0070127B685B6A9A4201D0012300E00023B1
:10153C0018461837BD4680BD0010024080B584B0F7
:10154C0000AF786039607B68002B01D10123D0E0BB
:10155C006A4B1B6803F007033A689A4210D9674B31
:10156C001B6823F0070265493B6813430B60634B10
:10157C001B6803F007033A689A4201D00123B8E0D4
:10158C007B681B6803F00203002B20D07B681B6870
:10159C0003F00403002B05D0594B5B68584A43F405
:1015AC00E06353607B681B6803F00803002B05D0D5
:1015BC00534B5B68524A43F460535360504B5B6827
:1015CC0023F0F0027B689B684D4913434B607B68AA
:1015DC001B6803F00103002B40D07B685B68012B78
:1015EC0007D1474B1B6803F40033002B15D10123A3
:1015FC007FE07B685B68022B07D1414B1B6803F0D3
:10160C000073002B09D1012373E03D4B1B6803F0E1
:10161C000203002B01D101236BE0394B5B6823F0F3
:10162C0003027B685B68364913434B60FFF7A0F9F4
:10163C00F8600AE0FFF79CF90246FB68D31A41F206
:10164C008832934201D9032353E02D4B5B6803F09E
:10165C000C027B685B689B009A42EBD1274B1B68A2
:10166C0003F007033A689A4210D2244B1B6823F00C
:10167C00070222493B6813430B60204B1B6803F0A5
:10168C0007033A689A4201D0012332E07B681B6859
:10169C0003F00403002B08D0194B5B6823F4E062C1
:1016AC007B68DB68164913434B607B681B6803F04F
:1016BC000803002B09D0124B5B6823F460527B6843
:1016CC001B69DB000E4913434B6000F021F8024606
:1016DC000B4B5B681B0903F00F030A49CB5C22FA26
:1016EC0003F3094A1360094B1B681846FFF7FEF811
:1016FC00002318461037BD4680BD00BF00200240B5
:10170C00001002401C2D00080000002004000020E6
:10171C0090B48AB000AF294B3C1D0FCB84E80F006E
:10172C0040F201233B800023FB610023BB610023BB
:10173C007B6200237B6100233B62214B5B68FB6176
:10174C00FB6903F00C03042B02D0082B03D02BE015
:10175C001C4B3B622BE0FB699B0C03F00F03283303
:10176C003B4413F8243C7B61FB6903F48033002B6E
:10177C0012D0134B5B685B0C03F0010328333B4422
:10178C0013F8283CBB617B690E4A03FB02F2BB6970
:10179C00B2FBF3F37B6204E07B690B4A02FB03F3BD
:1017AC007B627B6A3B6202E0064B3B6200BF3B6A9A
:1017BC0018462837BD4690BC704700BF0C2D00085A
:1017CC000010024000127A0000093D0080B400AF06
:1017DC00024B1B681846BD4680BC704700000020B9
:1017EC0080B500AFFFF7F2FF0246054B5B681B0AA2
:1017FC0003F007030349CB5C22FA03F3184680BDC0
:10180C00001002402C2D000880B500AFFFF7DEFF62
:10181C000246054B5B68DB0A03F007030349CB5C0C
:10182C0022FA03F3184680BD001002402C2D00084C
:10183C0080B485B000AF78600A4B1B680A4AA2FBE3
:10184C0003235B0A7A6802FB03F3FB6000BFFB68AF
:10185C005A1EFA60002BF9D100BF00BF1437BD46E9
:10186C0080BC704700000020D34D621080B582B060
:10187C0000AF78607B68002B01D1012376E07B6898
:10188C005B6A002B08D17B685B68B3F5827F09D05B
:10189C007B680022DA6105E07B6800221A617B68B4
:1018AC0000225A617B6800229A627B6893F851305F
:1018BC00DBB2002B06D17B68002283F850207868BD
:1018CC00FEF758FD7B68022283F851207B681B6869
:1018DC001A687B681B6822F040021A607B685B68A0
:1018EC0003F482727B689B6803F404431A437B689D
:1018FC00DB6803F400631A437B681B6903F0020383
:10190C001A437B685B6903F001031A437B689B698C
:10191C0003F400731A437B68DB6903F038031A4342
:10192C007B681B6A03F0800342EA03017B689B6AB5
:10193C0003F400527B681B680A431A607B689B693E
:10194C001A0C7B681B6802F004025A607B681B68E7
:10195C00DA697B681B6822F40062DA617B6800221A
:10196C005A657B68012283F85120002318460837FA
:10197C00BD4680BD80B588B000AFF860B9603B60F3
:10198C001346FB800023FB77FB6893F85030012B48
:10199C0001D1022326E1FB68012283F85020FEF7D7
:1019AC00E7FFB861FB88FB82FB6893F85130DBB230
:1019BC00012B02D00223FB770BE1BB68002B02D07A
:1019CC00FB88002B02D10123FB7702E1FB68032289
:1019DC0083F85120FB6800225A65FB68BA681A63C9
:1019EC00FB68FA889A86FB68FA88DA86FB6800221C
:1019FC009A63FB6800229A87FB680022DA87FB68EF
:101A0C0000225A64FB6800221A64FB689B68B3F5D9
:101A1C00004F0FD1FB681B681A68FB681B6822F02B
:101A2C0040021A60FB681B681A68FB681B6842F46A
:101A3C0080421A60FB681B681B6803F04003402B54
:101A4C0007D0FB681B681A68FB681B6842F04002F1
:101A5C001A60FB68DB68B3F5006F4BD1FB685B6801
:101A6C00002B02D0FB8A012B3ED1FB681B6B1A8822
:101A7C00FB681B68DA60FB681B6B9A1CFB681A63BB
:101A8C00FB68DB8E9BB2013B9AB2FB68DA862BE0DB
:101A9C00FB681B689B6803F00203022B12D1FB68E6
:101AAC001B6B1A88FB681B68DA60FB681B6B9A1C43
:101ABC00FB681A63FB68DB8E9BB2013B9AB2FB6836
:101ACC00DA8611E0FEF754FF0246BB69D31A3A6876
:101ADC009A4203D83B68B3F1FF3F02D13B68002B1D
:101AEC0002D10323FB7774E0FB68DB8E9BB2002BE7
:101AFC00CED14CE0FB685B68002B02D0FB8A012B3B
:101B0C0040D1FB681A6BFB681B680C3312781A7097
:101B1C00FB681B6B5A1CFB681A63FB68DB8E9BB261
:101B2C00013B9AB2FB68DA862CE0FB681B689B6869
:101B3C0003F00203022B13D1FB681A6BFB681B68C2
:101B4C000C3312781A70FB681B6B5A1CFB681A63F7
:101B5C00FB68DB8E9BB2013B9AB2FB68DA8611E024
:101B6C00FEF706FF0246BB69D31A3A689A4203D8BD
:101B7C003B68B3F1FF3F02D13B68002B02D103233A
:101B8C00FB7726E0FB68DB8E9BB2002BCDD1BA69CC
:101B9C003968F86800F0B2F80346002B02D0FB68F5
:101BAC0020225A65FB689B68002B0AD100233B61FD
:101BBC00FB681B68DB683B61FB681B689B683B61CF
:101BCC003B69FB685B6D002B02D00123FB7700E0C7
:101BDC0000BFFB68012283F85120FB68002283F8C8
:101BEC005020FB7F18462037BD4680BD80B588B09D
:101BFC0000AFF860B9603B601346FB71FEF7B8FEAE
:101C0C000246BB6A9B1A3A681344FB61FEF7B0FEAE
:101C1C00B861394B1B685B011B0DFA6902FB03F3BE
:101C2C007B6154E03B68B3F1FF3F50D0FEF7A0FE60
:101C3C000246BB69D31AFA699A4202D9FB69002B96
:101C4C003DD1FB681B685A68FB681B6822F0E002F8
:101C5C005A60FB685B68B3F5827F11D1FB689B68A7
:101C6C00B3F5004F04D0FB689B68B3F5806F07D1C8
:101C7C00FB681B681A68FB681B6822F040021A603C
:101C8C00FB689B6AB3F5005F0FD1FB681B681A6891
:101C9C00FB681B6822F400521A60FB681B681A6808
:101CAC00FB681B6842F400521A60FB68012283F83F
:101CBC005120FB68002283F85020032317E07B6936
:101CCC00002B01D10023FB617B69013B7B61FB682D
:101CDC001B689A68BB681340BA689A420CBF012310
:101CEC000023DBB21A46FB799A429BD1002318469B
:101CFC002037BD4680BD00BF0000002080B586B0F7
:101D0C0002AFF860B9607A607B680093BB68002210
:101D1C008021F868FFF76AFF0346002B07D0FB68A9
:101D2C005B6D43F02002FB685A65032300E000233F
:101D3C0018461037BD4680BD80B582B000AF7860C4
:101D4C007B68002B01D1012341E07B6893F83D3087
:101D5C00DBB2002B06D17B68002283F83C2078682C
:101D6C00FEF70CFC7B68022283F83D207B681A6826
:101D7C007B6804331946104600F026FA7B68012272
:101D8C0083F846207B68012283F83E207B68012281
:101D9C0083F83F207B68012283F840207B68012276
:101DAC0083F841207B68012283F842207B68012262
:101DBC0083F843207B68012283F844207B6801224E
:101DCC0083F845207B68012283F83D2000231846C8
:101DDC000837BD4680BD80B582B000AF78607B68A7
:101DEC001B681B6903F00203022B22D17B681B6862
:101DFC00DB6803F00203022B1BD17B681B686FF0BE
:101E0C0002021A617B6801221A777B681B689B6946
:101E1C0003F00303002B03D0786800F0BAF905E057
:101E2C00786800F0ADF9786800F0BCF97B680022A6
:101E3C001A777B681B681B6903F00403042B22D1FF
:101E4C007B681B68DB6803F00403042B1BD17B68E5
:101E5C001B686FF004021A617B6802221A777B6898
:101E6C001B689B6903F44073002B03D0786800F067
:101E7C0090F905E0786800F083F9786800F092F941
:101E8C007B6800221A777B681B681B6903F00803C8
:101E9C00082B22D17B681B68DB6803F00803082B36
:101EAC001BD17B681B686FF008021A617B680422E7
:101EBC001A777B681B68DB6903F00303002B03D0E4
:101ECC00786800F066F905E0786800F059F97868F0
:101EDC0000F068F97B6800221A777B681B681B6925
:101EEC0003F01003102B22D17B681B68DB6803F016
:101EFC001003102B1BD17B681B686FF010021A614A
:101F0C007B6808221A777B681B68DB6903F44073D3
:101F1C00002B03D0786800F03CF905E0786800F0FD
:101F2C002FF9786800F03EF97B6800221A777B68FD
:101F3C001B681B6903F00103012B0ED17B681B6826
:101F4C00DB6803F00103012B07D17B681B686FF082
:101F5C0001021A61786800F00AF97B681B681B693A
:101F6C0003F08003802B0ED17B681B68DB6803F0C9
:101F7C008003802B07D17B681B686FF080021A618D
:101F8C00786800F080FA7B681B681B6903F04003DB
:101F9C00402B0ED17B681B68DB6803F04003402BA1
:101FAC0007D17B681B686FF040021A61786800F0FB
:101FBC0002F97B681B681B6903F02003202B0ED1F0
:101FCC007B681B68DB6803F02003202B07D17B6840
:101FDC001B686FF020021A61786800F04BFA00BFA2
:101FEC000837BD4680BD80B584B000AF78603960DD
:101FFC007B6893F83C30012B01D10223B3E07B6862
:10200C00012283F83C207B68022283F83D207B6808
:10201C001B689B68FB60FB6823F07703FB60FB6825
:10202C0023F47F43FB607B681B68FA689A603B680B
:10203C001B68B3F5005F3ED0B3F5005F00F28780FC
:10204C00B3F5805F00F08580B3F5805F7FD8702B8F
:10205C001AD0702B7BD8602B50D0602B77D8502B9C
:10206C003CD0502B73D8402B58D0402B6FD8302BF2
:10207C0064D0302B6BD8202B60D0202B67D8002B52
:10208C005CD0102B5AD062E07B6818683B6899686A
:10209C003B685A683B68DB6800F06FF97B681B682B
:1020AC009B68FB60FB6843F07703FB607B681B68F5
:1020BC00FA689A604EE07B6818683B6899683B68E0
:1020CC005A683B68DB6800F058F97B681B689A68B3
:1020DC007B681B6842F480429A603BE07B6818681E
:1020EC003B6859683B68DB681A4600F0CFF87B68A0
:1020FC001B685021184600F026F92BE07B68186805
:10210C003B6859683B68DB681A4600F0EDF87B6861
:10211C001B686021184600F016F91BE07B681868F4
:10212C003B6859683B68DB681A4600F0AFF87B687F
:10213C001B684021184600F006F90BE07B681A6812
:10214C003B681B681946104600F0FDF802E000BF22
:10215C0000E000BF7B68012283F83D207B680022F1
:10216C0083F83C20002318461037BD4680BD80B450
:10217C0083B000AF786000BF0C37BD4680BC7047A1
:10218C0080B483B000AF786000BF0C37BD4680BC14
:10219C00704780B483B000AF786000BF0C37BD4689
:1021AC0080BC704780B483B000AF786000BF0C3740
:1021BC00BD4680BC704780B483B000AF786000BF70
:1021CC000C37BD4680BC704780B485B000AF7860DA
:1021DC0039607B681B68FB607B68294A93420BD093
:1021EC007B68B3F1804F07D07B68264A934203D0BB
:1021FC007B68254A934208D1FB6823F07003FB608F
:10220C003B685B68FA681343FB607B681C4A93422B
:10221C000BD07B68B3F1804F07D07B68194A93428F
:10222C0003D07B68184A934208D1FB6823F44073AF
:10223C00FB603B68DB68FA681343FB60FB6823F0C8
:10224C0080023B685B691343FB607B68FA681A6029
:10225C003B689A687B68DA623B681A687B689A62AA
:10226C007B68074A934203D13B681A697B681A63FF
:10227C007B6801225A6100BF1437BD4680BC704791
:10228C00002C0140000400400008004080B487B0DE
:10229C0000AFF860B9607A60FB681B6A7B61FB6811
:1022AC001B6A23F00102FB681A62FB689B693B61A5
:1022BC003B6923F0F0033B617B681B013A691343D4
:1022CC003B617B6923F00A037B617A69BB6813432A
:1022DC007B61FB683A699A61FB687A691A6200BF94
:1022EC001C37BD4680BC704780B487B000AFF86027
:1022FC00B9607A60FB681B6A23F01002FB681A62F3
:10230C00FB689B697B61FB681B6A3B617B6923F4FF
:10231C0070437B617B681B037A6913437B613B6968
:10232C0023F0A0033B61BB681B013A6913433B617B
:10233C00FB687A699A61FB683A691A6200BF1C37BC
:10234C00BD4680BC704780B485B000AF7860396002
:10235C007B689B68FB60FB6823F07003FB603A684A
:10236C00FB68134343F00703FB607B68FA689A60D1
:10237C0000BF1437BD4680BC704780B487B000AF37
:10238C00F860B9607A603B60FB689B687B617B6935
:10239C0023F47F437B613B681A027B681A43BB685A
:1023AC0013437A6913437B61FB687A699A6000BFB7
:1023BC001C37BD4680BC704780B485B000AF7860D8
:1023CC0039607B6893F83C30012B01D1022346E045
:1023DC007B68012283F83C207B68022283F83D2035
:1023EC007B681B685B68FB607B681B689B68BB60D9
:1023FC00FB6823F07003FB603B681B68FA681343AF
:10240C00FB607B681B68FA685A607B681B68164A1D
:10241C0093420ED07B681B68B3F1804F09D07B6868
:10242C001B68124A934204D07B681B68104A934283
:10243C000CD1BB6823F08003BB603B685B68BA6857
:10244C001343BB607B681B68BA689A607B68012287
:10245C0083F83D207B68002283F83C20002318463B
:10246C001437BD4680BC7047002C0140000400406E
:10247C000008004080B483B000AF786000BF0C3718
:10248C00BD4680BC704780B483B000AF786000BF9D
:10249C000C37BD4680BC704780B582B000AF786009
:1024AC007B68002B01D101233FE07B6893F83D3022
:1024BC00DBB2002B06D17B68002283F83C207868C5
:1024CC00FEF7ACF87B68242283F83D207B681B6800
:1024DC00DA687B681B6822F40052DA60786800F0D6
:1024EC0049FB7B681B681A697B681B6822F4904265
:1024FC001A617B681B685A697B681B6822F02A0288
:10250C005A617B681B68DA687B681B6842F400526E
:10251C00DA607B6800221A647B68202283F83D20F5
:10252C007B68202283F83E20002318460837BD46DE
:10253C0080BD000080B58AB000AF78607B681B68F6
:10254C001B687B627B681B68DB683B627B681B6873
:10255C005B69FB610023BB6100237B617B6A03F039
:10256C000F03BB61BB69002B0DD17B6A03F0200309
:10257C00002B08D03B6A03F02003002B03D07868B3
:10258C0000F04FFA7BE1BB69002B00F0B180FB69D6
:10259C0003F00103002B05D13B6A03F49073002B6D
:1025AC0000F0A6807B6A03F00103002B0AD03B6A83
:1025BC0003F48073002B05D07B681B6C43F0010285
:1025CC007B681A647B6A03F00403002B0AD0FB6956
:1025DC0003F00103002B05D07B681B6C43F0020257
:1025EC007B681A647B6A03F00203002B0AD0FB6938
:1025FC0003F00103002B05D07B681B6C43F0040235
:10260C007B681A647B6A03F00803002B0FD03B6ACB
:10261C0003F02003002B04D1FB6903F00103002B12
:10262C0005D07B681B6C43F008027B681A647B68DE
:10263C001B6C002B00F01E817B6A03F02003002B27
:10264C0007D03B6A03F02003002B02D0786800F01F
:10265C00E8F97B681B685B6903F04003002B14BF2F
:10266C0001230023DBB27B617B681B6C03F0080346
:10267C00002B02D17B69002B31D0786800F02AF94D
:10268C007B681B685B6903F04003002B23D07B68DD
:10269C001B685A697B681B6822F040025A617B6890
:1026AC009B6B002B13D07B689B6B764A5A637B68C1
:1026BC009B6B1846FEF7AEFA0346002B16D07B68D0
:1026CC009B6B5B6B7A68926B104698470EE0786850
:1026DC0000F0ECF80AE0786800F0E8F806E07868BA
:1026EC0000F0E4F87B6800221A64C3E000BFC1E08C
:1026FC007B681B6B012B40F0A1807B6A03F01003FD
:10270C00002B00F09B803B6A03F01003002B00F0C1
:10271C0095800023FB607B681B681B68FB607B68F3
:10272C001B685B68FB60FB687B681B685B6903F07C
:10273C004003002B4ED07B689B6B1B685B683B8215
:10274C003B8A002B00F098807B689B8D3A8A9A42DA
:10275C0080F092807B683A8ADA857B689B6B9B69F8
:10276C00202B2BD07B681B68DA687B681B6822F4F3
:10277C008072DA607B681B685A697B681B6822F080
:10278C0001025A617B681B685A697B681B6822F0DE
:10279C0040025A617B68202283F83E207B6800222D
:1027AC001A637B681B68DA687B681B6822F010026E
:1027BC00DA607B689B6B1846FEF7F1F97B689A8DA3
:1027CC007B68DB8D9BB2D31A9BB21946786800F0FC
:1027DC0076F851E07B689A8D7B68DB8D9BB2D31ABF
:1027EC007B827B68DB8D9BB2002B47D07B8A002BD6
:1027FC0044D07B681B68DA687B681B6822F4907293
:10280C00DA607B681B685A697B681B6822F00102DE
:10281C005A617B68202283F83E207B6800221A6371
:10282C007B681B68DA687B681B6822F01002DA6030
:10283C007B8A1946786800F042F81FE07B6A03F047
:10284C008003002B08D03B6A03F08003002B03D0DD
:10285C00786800F07FF812E07B6A03F04003002BED
:10286C000DD03B6A03F04003002B08D0786800F0D1
:10287C00C0F804E000BF02E000BF00E000BF283752
:10288C00BD4680BD3929000880B483B000AF7860A4
:10289C0000BF0C37BD4680BC704780B483B000AF1E
:1028AC00786000BF0C37BD4680BC704780B483B0E5
:1028BC0000AF786000BF0C37BD4680BC704780B459
:1028CC0083B000AF78600B467B8000BF0C37BD46F1
:1028DC0080BC704780B483B000AF78607B681B68A5
:1028EC00DA687B681B6822F49072DA607B681B687C
:1028FC005A697B681B6822F001025A617B681B6B6A
:10290C00012B07D17B681B68DA687B681B6822F097
:10291C001002DA607B68202283F83E207B6800225C
:10292C001A6300BF0C37BD4680BC704780B584B0BD
:10293C0000AF78607B685B6AFB60FB680022DA851D
:10294C00FB680022DA84F868FFF7B0FF00BF10378D
:10295C00BD4680BD80B485B000AF78607B6893F8CD
:10296C003D30DBB2212B3ED17B689B68B3F5805F99
:10297C0014D17B681B69002B10D17B681B6AFB6030
:10298C00FB681B881A467B681B68C2F308025A60F6
:10299C007B681B6A9A1C7B681A6208E07B681B6A5E
:1029AC00591C7A6811621A787B681B685A607B68BC
:1029BC00DB8C9BB2013B9BB27A681946D184002B0D
:1029CC000FD17B681B68DA687B681B6822F0800279
:1029DC00DA607B681B68DA687B681B6842F040022F
:1029EC00DA60002300E0022318461437BD4680BC91
:1029FC00704780B582B000AF78607B681B68DA687E
:102A0C007B681B6822F04002DA607B68202283F826
:102A1C003D207868FFF738FF002318460837BD467D
:102A2C0080BD80B586B000AF78607B6893F83E308F
:102A3C00DBB2222B40F099807B689B68B3F5805FFA
:102A4C0017D17B681B69002B13D100237B617B683A
:102A5C009B6A3B617B681B685B689BB2C3F3080392
:102A6C009AB23B691A807B689B6A9A1C7B689A6253
:102A7C0026E07B689B6A7B6100233B617B689B68DB
:102A8C00B3F5805F07D07B689B68002B0AD17B680D
:102A9C001B69002B06D17B681B685B68DAB27B690B
:102AAC001A7008E07B681B685B68DBB203F07F037D
:102ABC00DAB27B691A707B689B6A5A1C7B689A62D3
:102ACC007B68DB8D9BB2013B9BB27A681946D18542
:102ADC00002B48D17B681B68DA687B681B6822F086
:102AEC002002DA607B681B68DA687B681B6822F45A
:102AFC008072DA607B681B685A697B681B6822F0FD
:102B0C0001025A617B68202283F83E207B681B6B94
:102B1C00012B23D17B6800221A637B681B68DA685F
:102B2C007B681B6822F01002DA607B681B681B68EC
:102B3C0003F01003102B0AD10023FB607B681B6889
:102B4C001B68FB607B681B685B68FB60FB687B68D1
:102B5C009B8D19467868FFF7B2FE02E07868FFF7A4
:102B6C009CFE002302E0002300E0022318461837E5
:102B7C00BD4680BD80B584B000AF78607B681B68B3
:102B8C001B6923F440517B68DA687B681B680A4335
:102B9C001A617B689A687B681B691A437B685B695E
:102BAC001343BB607B681B68DB6823F4B05323F0D2
:102BBC000C037A681268B9680B43D3607B681B6896
:102BCC005B6923F440717B689A697B681B680A43D4
:102BDC005A617B681B682C4A934203D1FEF714FEA2
:102BEC00F86002E0FEF7FCFDF860FA6813469B0003
:102BFC0013449A001A447B685B689B00B2FBF3F3A6
:102C0C00224AA2FB03235B091901FA6813469B00B5
:102C1C0013449A001A447B685B689B00B2FBF3F286
:102C2C001A4BA3FB02035B09642000FB03F3D31ACA
:102C3C001B013233154AA2FB03235B0903F0F0039B
:102C4C001944FA6813469B0013449A001A447B6893
:102C5C005B689B00B2FBF3F20C4BA3FB02035B091A
:102C6C00642000FB03F3D31A1B013233074AA2FB87
:102C7C0003235B0903F00F027B681B680A449A600C
:102C8C0000BF1037BD4680BD003801401F85EB5199
:102C9C0070B500260C4D0D4C641BA410A64209D136
:102CAC0000F022F800260A4D0A4C641BA410A64220
:102CBC0005D170BD55F8043B98470136EEE755F841
:102CCC00043B98470136F2E7502D0008502D0008C0
:102CDC00502D0008542D000803460244934200D1A5
:102CEC00704703F8011BF9E7F8B500BFF8BC08BC46
:102CFC009E467047F8B500BFF8BC08BC9E467047AE
:102D0C0002030405060708090A0B0C0D0E0F101020
:102D1C00000000000000000001020304060708097F
:102D2C000000000001020304AED590A83FD3004080
:102D3C008D142002A1C8DA128166D9F1DB30A4A669
:042D4C00AF000000D4
:042D50003101000845
:042D54000D01000865
:0C2D58000024F400100000000100000046
:040000050800088166
:00000001FF
