:020000040800F2
:1000000000000120850600084D0400085304000884
:10001000590400085F04000865040008000000009F
:100020000000000000000000000000006B04000859
:100030007704000800000000830400088F04000813
:10004000CD060008CD060008CD060008CD06000844
:10005000CD060008CD060008CD060008CD06000834
:10006000CD060008CD060008CD060008CD06000824
:10007000CD060008CD060008CD060008CD06000814
:10008000CD060008CD060008CD060008CD06000804
:10009000CD060008CD060008CD060008CD060008F4
:1000A000CD060008CD060008CD060008CD060008E4
:1000B0009D040008B1040008CD060008CD06000824
:1000C000CD060008CD060008CD060008CD060008C4
:1000D000CD060008CD060008CD060008CD060008B4
:1000E000CD060008CD060008CD060008CD060008A4
:1000F000CD060008CD060008CD060008CD06000894
:10010000CD060008CD060008CD060008CD06000883
:10011000CD060008CD060008CD060008CD06000873
:10012000CD060008CD060008CD060008CD06000863
:1001300000000000000000000000000000000000BF
:1001400000000000000000000000000000000000AF
:10015000000000000000000000000000000000009F
:10016000000000000000000000000000000000008F
:10017000000000000000000000000000000000007F
:10018000000000000000000000000000000000006F
:10019000000000000000000000000000000000005F
:1001A000000000000000000000000000000000004F
:1001B000000000000000000000000000000000003F
:1001C000000000000000000000000000000000002F
:1001D000000000000000000000000000000000001F
:0401E0005FF8E0F1F3
:1001E40010B5054C237833B9044B13B10448AFF36D
:1001F40000800123237010BD0C00002000000000CB
:10020400C01D000808B5034B1BB103490348AFF3F5
:10021400008008BD0000000010000020C01D000880
:1002240080B588B000AF07F1100300221A605A604D
:100234009A60DA60264B9B69254A43F04003936138
:10024400234B9B6903F04003FB60FB68204B9B69D5
:100254001F4A43F0100393611D4B9B6903F0100385
:10026400BB60BB681A4B9B69194A43F0080393614E
:10027400174B9B6903F008037B607B6801222021F4
:10028400144800F027FD01222021134800F022FD2C
:1002940020233B6101237B610123BB610323FB61B9
:1002A40007F1100319460B4800F080FB20233B6143
:1002B40001237B610123BB610323FB6107F110036D
:1002C4001946054800F072FB00BF2037BD4680BDCB
:1002D4000010024000180140000C014080B582B0BB
:1002E40000AF78607B681B68B3F1804F04D1202194
:1002F400084800F007FD08E07B681B68064A934243
:1003040003D12021054800F0FDFC00BF0837BD469D
:1003140080BD00BF000C01400004004000180140F3
:1003240080B500AF00F0D2F900F012F8FFF778FFC3
:1003340000F0CCF800F016F9034801F035F9034851
:1003440001F032F9FEE700BF280000207000002011
:1003540080B590B000AF07F1180328220021184699
:1003640001F024FD3B1D00221A605A609A60DA6095
:100374001A610123BB614FF48033FB6100233B62AC
:100384000123BB6202237B634FF48033BB634FF4CE
:100394000023FB6307F11803184600F0CDFC034665
:1003A400002B01D000F018F80F237B600223BB6000
:1003B4000023FB6000233B6100237B613B1D012183
:1003C400184600F03BFF0346002B01D000F004F870
:1003D40000BF4037BD4680BD80B400AF72B600BFD9
:1003E400FEE7000080B485B000AF154B9B69144A4A
:1003F40043F001039361124B9B6903F00103BB605B
:10040400BB680F4BDB690E4A43F08053D3610C4B3E
:10041400DB6903F080537B607B680A4B5B68FB609D
:10042400FB6823F0E063FB60FB6843F08063FB60E0
:10043400044AFB68536000BF1437BD4680BC704754
:10044400001002400000014080B400AFFEE780B419
:1004540000AFFEE780B400AFFEE780B400AFFEE774
:1004640080B400AFFEE780B400AF00BFBD4680BCDF
:10047400704780B400AF00BFBD4680BC704780B4F5
:1004840000AF00BFBD4680BC704780B500AF00F030
:1004940063F900BF80BD000080B500AF024801F0E1
:1004A400E3F800BF80BD00BF2800002080B500AF86
:1004B400024801F0D9F800BF80BD00BF70000020E1
:1004C40080B400AF00BFBD4680BC704780B586B025
:1004D40000AF07F1080300221A605A609A60DA60DC
:1004E4003B4600221A605A601D4B4FF080421A604E
:1004F4001B4B47F6FF425A60194B00229A60184B77
:10050400C722DA60164B00221A61154B00229A6149
:10051400134800F0F9FF0346002B01D0FFF75CFFFE
:100524004FF48053BB6007F1080319460C4801F0EF
:10053400A3F90346002B01D0FFF74EFF00233B60D5
:1005440000237B603B461946054801F08DFB0346BA
:10055400002B01D0FFF740FF00BF1837BD4680BD18
:100564002800002080B586B000AF07F10803002200
:100574001A605A609A60DA603B4600221A605A6038
:100584001D4B1E4A1A601C4B47F6FF425A601A4B19
:1005940000229A60184B40F2E732DA60164B0022D0
:1005A4001A61154B00229A61134800F0ADFF03460F
:1005B400002B01D0FFF710FF4FF48053BB6007F10D
:1005C400080319460C4801F057F90346002B01D0E3
:1005D400FFF702FF00233B6000237B603B46194684
:1005E400054801F041FB0346002B01D0FFF7F4FE60
:1005F40000BF1837BD4680BD7000002000040040D5
:1006040080B584B000AF78607B681B68B3F1804F1D
:1006140014D1194BDB69184A43F00103D361164B1B
:10062400DB6903F00103FB60FB68002200211C204E
:1006340000F085F91C2000F09EF918E07B681B6827
:100644000E4A934213D10C4BDB690B4A43F002036D
:10065400D361094BDB6903F00203BB60BB68002272
:1006640000211D2000F06BF91D2000F084F900BF6B
:100674001037BD4680BD00BF00100240000400409A
:100684000C480D490D4A002302E0D458C4500433E9
:10069400C4188C42F9D30A4A0A4C002301E01360BF
:1006A4000432A242FBD3FFF70BFF01F05BFBFFF721
:1006B40037FE7047000000200C000020001E0008D8
:1006C4000C000020BC000020FEE7000080B500AF55
:1006D400084B1B68074A43F010031360032000F023
:1006E40023F90F2000F008F8FFF77CFE00231846DA
:1006F40080BD00BF0020024080B582B000AF7860AA
:10070400124B1A68124B1B7819464FF47A73B3FBD9
:10071400F1F3B2FBF3F3184600F03BF90346002B68
:1007240001D001230EE07B680F2B0AD800227968E0
:100734004FF0FF3000F003F9064A7B681360002392
:1007440000E0012318460837BD4680BD00000020A4
:10075400080000200400002080B400AF054B1B7883
:100764001A46054B1B681344034A136000BFBD4679
:1007740080BC704708000020B800002080B400AF9F
:10078400024B1B681846BD4680BC7047B800002069
:1007940080B485B000AF78607B6803F00703FB602A
:1007A4000C4BDB68BB60BA684FF6FF031340BB60B9
:1007B400FB681A02BB68134343F0BF6343F400337E
:1007C400BB60044ABB68D36000BF1437BD4680BC1D
:1007D400704700BF00ED00E080B400AF044BDB685D
:1007E4001B0A03F007031846BD4680BC704700BFD0
:1007F40000ED00E080B483B000AF0346FB7197F9CD
:100804000730002B0BDBFB7903F01F02064997F935
:1008140007305B09012000FA02F241F8232000BFEF
:100824000C37BD4680BC704700E100E080B483B063
:1008340000AF03463960FB7197F90730002B0ADBE0
:100844003B68DAB20C4997F907301201D2B20B4473
:1008540083F800230AE03B68DAB20849FB7903F025
:100864000F03043B1201D2B20B441A7600BF0C37BB
:10087400BD4680BC704700BF00E100E000ED00E031
:1008840080B489B000AFF860B9607A60FB6803F0A7
:100894000703FB61FB69C3F10703042B28BF04238F
:1008A400BB61FB690433062B02D9FB69033B00E0FF
:1008B40000237B614FF0FF32BB6902FA03F3DA4392
:1008C400BB681A407B699A404FF0FF317B6901FA9B
:1008D40003F3D9437B680B40134318462437BD46C2
:1008E40080BC704780B582B000AF78607B68013B04
:1008F400B3F1807F01D301230FE00A4A7B68013BF7
:1009040053600F214FF0FF30FFF790FF054B00229B
:100914009A60044B07221A60002318460837BD4624
:1009240080BD00BF10E000E080B582B000AF786009
:100934007868FFF72DFF00BF0837BD4680BD80B53E
:1009440086B000AF0346B9607A60FB7300237B6115
:10095400FFF742FF78617A68B9687869FFF790FF1A
:10096400024697F90F3011461846FFF75FFF00BFA4
:100974001837BD4680BD80B582B000AF0346FB7119
:1009840097F907301846FFF735FF00BF0837BD4613
:1009940080BD80B582B000AF78607868FFF7A2FFB1
:1009A400034618460837BD4680BD000080B48BB0AE
:1009B40000AF7860396000237B6200233B6279E1F9
:1009C40001227B6A02FA03F3FB613B681B68FA6944
:1009D4001340BB61BA69FB699A4240F068813B6885
:1009E4005B68964A93425ED0944A934275D8944A7F
:1009F400934258D0924A93426FD8924A934252D02B
:100A0400904A934269D8904A93424CD08E4A93427A
:100A140063D88E4A934246D08C4A93425DD8122BB7
:100A24002AD8122B59D801A252F823F0AB0A000895
:100A3400850A0008970A0008D90A0008DF0A000896
:100A4400DF0A0008DF0A0008DF0A0008DF0A0008DE
:100A5400DF0A0008DF0A0008DF0A0008DF0A0008CE
:100A6400DF0A0008DF0A0008DF0A0008DF0A0008BE
:100A74008D0A0008A10A0008754A934213D02CE09D
:100A84003B68DB683B6229E03B68DB6804333B621C
:100A940024E03B68DB6808333B621FE03B68DB68AB
:100AA4000C333B621AE03B689B68002B02D10423A1
:100AB4003B6213E03B689B68012B05D108233B6232
:100AC4007B68FA691A6109E008233B627B68FA696A
:100AD4005A6103E000233B6200E000BFBB69FF2BC7
:100AE40001D87B6801E07B6804337B61BB69FF2B21
:100AF40002D87B6A9B0002E07B6A083B9B003B6157
:100B04007B691A680F213B6901FA03F3DB431A403E
:100B1400396A3B6901FA03F31A437B691A603B683B
:100B24005B6803F08053002B00F0C180494B9B6944
:100B3400484A43F001039361464B9B6903F0010368
:100B4400BB60BB68444A7B6A9B08023352F823307B
:100B5400FB607B6A03F003039B000F2202FA03F39A
:100B6400DB43FA681340FB607B683C4A93421FD026
:100B74007B683B4A934219D07B683A4A934213D02C
:100B84007B68394A93420DD07B68384A934207D038
:100B94007B68374A934201D105230AE0062308E023
:100BA400042306E0032304E0022302E0012300E01F
:100BB40000237A6A02F0030292009340FA68134316
:100BC400FB6025497B6A9B080233FA6841F82320BD
:100BD4003B685B6803F48033002B06D0254B1A680E
:100BE4002449BB6913430B6006E0224B1A68BB69B6
:100BF400DB43204913400B603B685B6803F400331C
:100C0400002B06D01B4B5A681A49BB6913434B602F
:100C140006E0184B5A68BB69DB43164913404B6026
:100C24003B685B6803F48013002B25D0114B9A6852
:100C34001049BB6913438B6025E000BF00003210EC
:100C440000003110000022100000211000001210DA
:100C54000000111000100240000001400008014093
:100C6400000C014000100140001401400018014034
:100C7400001C014000040140154B9A68BB69DB432A
:100C8400134913408B603B685B6803F40013002B2B
:100C940006D00F4BDA680E49BB691343CB6006E0FC
:100CA4000B4BDA68BB69DB4309491340CB607B6AB1
:100CB40001337B623B681A687B6A22FA03F3002BD8
:100CC4007FF47EAE00BF00BF2C37BD4680BC7047AA
:100CD4000004014080B483B000AF78600B467B8091
:100CE40013467B707B78002B03D07A887B681A616B
:100CF40003E07B881A047B681A6100BF0C37BD4689
:100D040080BC704780B485B000AF78600B467B80B0
:100D14007B68DB68FB607A88FB6813401A04FB6815
:100D2400D9437B880B401A437B681A6100BF143790
:100D3400BD4680BC7047000080B586B000AF7860C7
:100D44007B68002B01D1012372E27B681B6803F0EE
:100D54000103002B00F08780924B5B6803F00C03C7
:100D6400042B0CD08F4B5B6803F00C03082B12D1BF
:100D74008C4B5B6803F48033B3F5803F0BD1894B14
:100D84001B6803F40033002B6CD07B685B68002B7A
:100D940068D101234CE27B685B68B3F5803F06D1E0
:100DA400804B1B687F4A43F4803313602EE07B68DA
:100DB4005B68002B0CD17B4B1B687A4A23F480338D
:100DC4001360784B1B68774A23F4802313601DE07B
:100DD4007B685B68B3F5A02F0CD1724B1B68714A1A
:100DE40043F4802313606F4B1B686E4A43F48033D3
:100DF40013600BE06B4B1B686A4A23F48033136067
:100E0400684B1B68674A23F4802313607B685B6824
:100E1400002B13D0FFF7B2FC386108E0FFF7AEFCFB
:100E240002463B69D31A642B01D9032300E25D4BCC
:100E34001B6803F40033002BF0D014E0FFF79EFC92
:100E4400386108E0FFF79AFC02463B69D31A642B29
:100E540001D90323ECE1534B1B6803F40033002B4B
:100E6400F0D100E000BF7B681B6803F00203002B95
:100E740063D04C4B5B6803F00C03002B0BD0494B45
:100E84005B6803F00C03082B1CD1464B5B6803F42E
:100E94008033002B16D1434B1B6803F00203002B55
:100EA40005D07B681B69012B01D00123C0E13D4BB8
:100EB4001B6823F0F8027B685B69DB003949134344
:100EC4000B603AE07B681B69002B20D0364B012273
:100ED4001A60FFF753FC386108E0FFF74FFC024645
:100EE4003B69D31A022B01D90323A1E12D4B1B68C3
:100EF40003F00203002BF0D02A4B1B6823F0F80206
:100F04007B685B69DB00274913430B6015E0264BC4
:100F140000221A60FFF732FC386108E0FFF72EFC6C
:100F240002463B69D31A022B01D9032380E11D4BEE
:100F34001B6803F00203002BF0D17B681B6803F0ED
:100F44000803002B3AD07B689B69002B19D0174B00
:100F540001221A60FFF712FC386108E0FFF70EFC6B
:100F640002463B69D31A022B01D9032360E10D4BDE
:100F74005B6A03F00203002BF0D0012000F0A6FA14
:100F84001CE00A4B00221A60FFF7F8FB38610FE0FF
:100F9400FFF7F4FB02463B69D31A022B08D903235B
:100FA40046E100BF00100240000042428004424279
:100FB400924B5B6A03F00203002BE9D17B681B6848
:100FC40003F00403002B00F0A6800023FB758B4B79
:100FD400DB6903F08053002B0DD1884BDB69874A12
:100FE40043F08053D361854BDB6903F08053BB60CE
:100FF400BB680123FB75824B1B6803F48073002BD1
:1010040018D17F4B1B687E4A43F480731360FFF74B
:10101400B5FB386108E0FFF7B1FB02463B69D31A20
:10102400642B01D9032303E1754B1B6803F480731C
:10103400002BF0D07B68DB68012B06D16F4B1B6A59
:101044006E4A43F0010313622DE07B68DB68002BDA
:101054000CD16A4B1B6A694A23F001031362674B84
:101064001B6A664A23F0040313621CE07B68DB6896
:10107400052B0CD1614B1B6A604A43F004031362D5
:101084005E4B1B6A5D4A43F0010313620BE05B4B4A
:101094001B6A5A4A23F001031362584B1B6A574ACE
:1010A40023F0040313627B68DB68002B15D0FFF781
:1010B40065FB38610AE0FFF761FB02463B69D31A1E
:1010C40041F28832934201D90323B1E04B4B1B6AAE
:1010D40003F00203002BEED014E0FFF74FFB38615E
:1010E4000AE0FFF74BFB02463B69D31A41F2883210
:1010F400934201D903239BE0404B1B6A03F0020394
:10110400002BEED1FB7D012B05D13C4BDB693B4A27
:1011140023F08053D3617B68DB69002B00F0878068
:10112400364B5B6803F00C03082B61D07B68DB69EA
:10113400022B46D1334B00221A60FFF71FFB3861A4
:1011440008E0FFF71BFB02463B69D31A022B01D9C7
:1011540003236DE0294B1B6803F00073002BF0D1CF
:101164007B681B6AB3F5803F08D1244B5B6823F48A
:1011740000327B689B68214913434B601F4B5B68BB
:1011840023F474127B68196A7B685B6A0B431B49FE
:1011940013434B601B4B01221A60FFF7EFFA3861CF
:1011A40008E0FFF7EBFA02463B69D31A022B01D998
:1011B40003233DE0114B1B6803F00073002BF0D0B8
:1011C40035E0104B00221A60FFF7D8FA386108E0C6
:1011D400FFF7D4FA02463B69D31A022B01D9032341
:1011E40026E0064B1B6803F00073002BF0D11EE0D1
:1011F4007B68DB69012B07D1012319E00010024051
:1012040000700040600042420B4B5B68FB60FB686F
:1012140003F480327B681B6A9A4206D1FB6803F4AC
:1012240070127B685B6A9A4201D0012300E00023BC
:1012340018461837BD4680BD0010024080B584B002
:1012440000AF786039607B68002B01D10123D0E0C6
:101254006A4B1B6803F007033A689A4210D9674B3C
:101264001B6823F0070265493B6813430B60634B1B
:101274001B6803F007033A689A4201D00123B8E0DF
:101284007B681B6803F00203002B20D07B681B687B
:1012940003F00403002B05D0594B5B68584A43F410
:1012A400E06353607B681B6803F00803002B05D0E0
:1012B400534B5B68524A43F460535360504B5B6832
:1012C40023F0F0027B689B684D4913434B607B68B5
:1012D4001B6803F00103002B40D07B685B68012B83
:1012E40007D1474B1B6803F40033002B15D10123AE
:1012F4007FE07B685B68022B07D1414B1B6803F0DE
:101304000073002B09D1012373E03D4B1B6803F0EC
:101314000203002B01D101236BE0394B5B6823F0FE
:1013240003027B685B68364913434B60FFF726FA78
:10133400F8600AE0FFF722FA0246FB68D31A41F28A
:101344008832934201D9032353E02D4B5B6803F0A9
:101354000C027B685B689B009A42EBD1274B1B68AD
:1013640003F007033A689A4210D2244B1B6823F017
:10137400070222493B6813430B60204B1B6803F0B0
:1013840007033A689A4201D0012332E07B681B6864
:1013940003F00403002B08D0194B5B6823F4E062CC
:1013A4007B68DB68164913434B607B681B6803F05A
:1013B4000803002B09D0124B5B6823F460527B684E
:1013C4001B69DB000E4913434B6000F021F8024611
:1013D4000B4B5B681B0903F00F030A49CB5C22FA31
:1013E40003F3094A1360094B1B681846FFF784F995
:1013F400002318461037BD4680BD00BF00200240C0
:1014040000100240E81D0008000000200400002035
:1014140090B48AB000AF294B3C1D0FCB84E80F0079
:1014240040F201233B800023FB610023BB610023C6
:101434007B6200237B6100233B62214B5B68FB6181
:10144400FB6903F00C03042B02D0082B03D02BE020
:101454001C4B3B622BE0FB699B0C03F00F0328330E
:101464003B4413F8243C7B61FB6903F48033002B79
:1014740012D0134B5B685B0C03F0010328333B442D
:1014840013F8283CBB617B690E4A03FB02F2BB697B
:10149400B2FBF3F37B6204E07B690B4A02FB03F3C8
:1014A4007B627B6A3B6202E0064B3B6200BF3B6AA5
:1014B40018462837BD4690BC704700BFD81D0008A9
:1014C4000010024000127A0000093D0080B485B08B
:1014D40000AF78600A4B1B680A4AA2FB03235B0A2D
:1014E4007A6802FB03F3FB6000BFFB685A1EFA60D4
:1014F400002BF9D100BF00BF1437BD4680BC704734
:1015040000000020D34D621080B582B000AF786037
:101514007B68002B01D1012341E07B6893F83D30C7
:10152400DBB2002B06D17B68002283F83C2078686C
:10153400FFF766F87B68022283F83D207B681A680F
:101544007B6804331946104600F07EFA7B6801225A
:1015540083F846207B68012283F83E207B680122C1
:1015640083F83F207B68012283F840207B680122B6
:1015740083F841207B68012283F842207B680122A2
:1015840083F843207B68012283F844207B6801228E
:1015940083F845207B68012283F83D200023184608
:1015A4000837BD4680BD000080B485B000AF7860C8
:1015B4007B6893F83D30DBB2012B01D0012344E07A
:1015C4007B68022283F83D207B681B68DA687B68AD
:1015D4001B6842F00102DA607B681B681D4A934273
:1015E40018D07B681B681C4A934213D07B681B6825
:1015F400B3F1804F0ED07B681B68184A934209D020
:101604007B681B68164A934204D07B681B68154AA2
:10161400934211D17B681B689B6803F00703FB604E
:10162400FB68062B10D07B681B681A687B681B68F4
:1016340042F001021A6007E07B681B681A687B6845
:101644001B6842F001021A60002318461437BD4695
:1016540080BC7047002C014000340140000400406D
:1016640000080040000C004080B582B000AF7860F4
:101674007B681B681B6903F00203022B22D17B6881
:101684001B68DB6803F00203022B1BD17B681B6819
:101694006FF002021A617B6801221A777B681B686B
:1016A4009B6903F00303002B03D0786800F0B1F9C1
:1016B40005E0786800F0A4F9786800F0B3F97B6875
:1016C40000221A777B681B681B6903F00403042B50
:1016D40022D17B681B68DB6803F00403042B1BD155
:1016E4007B681B686FF004021A617B6802221A7718
:1016F4007B681B689B6903F44073002B03D07868F4
:1017040000F087F905E0786800F07AF9786800F06D
:1017140089F97B6800221A777B681B681B6903F0D0
:101724000803082B22D17B681B68DB6803F00803DD
:10173400082B1BD17B681B686FF008021A617B6859
:1017440004221A777B681B68DB6903F00303002B10
:1017540003D0786800F05DF905E0786800F050F98E
:10176400786800F05FF97B6800221A777B681B6851
:101774001B6903F01003102B22D17B681B68DB6804
:1017840003F01003102B1BD17B681B686FF0100251
:101794001A617B6808221A777B681B68DB6903F48B
:1017A4004073002B03D0786800F033F905E07868C3
:1017B40000F026F9786800F035F97B6800221A7782
:1017C4007B681B681B6903F00103012B0ED17B6846
:1017D4001B68DB6803F00103012B07D17B681B68DE
:1017E4006FF001021A617868FEF778FD7B681B6868
:1017F4001B6903F08003802B0ED17B681B68DB68B8
:1018040003F08003802B07D17B681B686FF0800294
:101814001A61786800F09DFA7B681B681B6903F005
:101824004003402B0ED17B681B68DB6803F0400348
:10183400402B07D17B681B686FF040021A617868FF
:1018440000F0F9F87B681B681B6903F02003202B68
:101854000ED17B681B68DB6803F02003202B07D1C3
:101864007B681B686FF020021A61786800F068FAE0
:1018740000BF0837BD4680BD80B584B000AF786036
:1018840039607B6893F83C30012B01D10223B3E02B
:101894007B68012283F83C207B68022283F83D2088
:1018A4007B681B689B68FB60FB6823F07703FB6025
:1018B400FB6823F47F43FB607B681B68FA689A60CB
:1018C4003B681B68B3F5005F3ED0B3F5005F00F2E0
:1018D4008780B3F5805F00F08580B3F5805F7FD8A3
:1018E400702B1AD0702B7BD8602B50D0602B77D8FC
:1018F400502B3CD0502B73D8402B58D0402B6FD852
:10190400302B64D0302B6BD8202B60D0202B67D8A1
:10191400002B5CD0102B5AD062E07B6818683B68BF
:1019240099683B685A683B68DB6800F07EF97B681D
:101934001B689B68FB60FB6843F07703FB607B6874
:101944001B68FA689A604EE07B6818683B6899687F
:101954003B685A683B68DB6800F067F97B681B6882
:101964009A687B681B6842F480429A603BE07B681B
:1019740018683B6859683B68DB681A4600F0DEF873
:101984007B681B685021184600F035F92BE07B6812
:1019940018683B6859683B68DB681A4600F0FCF835
:1019A4007B681B686021184600F025F91BE07B6802
:1019B40018683B6859683B68DB681A4600F0BEF853
:1019C4007B681B684021184600F015F90BE07B6822
:1019D4001A683B681B681946104600F00CF902E0CF
:1019E40000BF00E000BF7B68012283F83D207B68D4
:1019F400002283F83C20002318461037BD4680BDE2
:101A040080B483B000AF786000BF0C37BD4680BCA3
:101A1400704780B483B000AF786000BF0C37BD4618
:101A240080BC704780B483B000AF786000BF0C37CF
:101A3400BD4680BC704780B483B000AF786000BFFF
:101A44000C37BD4680BC704780B485B000AF786069
:101A540039607B681B68FB607B68334A934213D010
:101A64007B68324A93420FD07B68B3F1804F0BD02E
:101A74007B682F4A934207D07B682E4A934203D057
:101A84007B682D4A934208D1FB6823F07003FB6006
:101A94003B685B68FA681343FB607B68224A9342A5
:101AA40013D07B68214A93420FD07B68B3F1804FF7
:101AB4000BD07B681E4A934207D07B681D4A934231
:101AC40003D07B681C4A934208D1FB6823F440731B
:101AD400FB603B68DB68FA681343FB60FB6823F038
:101AE40080023B685B691343FB607B68FA681A6099
:101AF4003B689A687B68DA623B681A687B689A621A
:101B04007B68094A934203D07B68084A934203D115
:101B14003B681A697B681A637B6801225A6100BFBB
:101B24001437BD4680BC7047002C0140003401408E
:101B34000004004000080040000C004080B487B05E
:101B440000AFF860B9607A60FB681B6A7B61FB6870
:101B54001B6A23F00102FB681A62FB689B693B6104
:101B64003B6923F0F0033B617B681B013A69134333
:101B74003B617B6923F00A037B617A69BB68134389
:101B84007B61FB683A699A61FB687A691A6200BFF3
:101B94001C37BD4680BC704780B487B000AFF86086
:101BA400B9607A60FB681B6A23F01002FB681A6252
:101BB400FB689B697B61FB681B6A3B617B6923F45F
:101BC40070437B617B681B037A6913437B613B69C8
:101BD40023F0A0033B61BB681B013A6913433B61DB
:101BE400FB687A699A61FB683A691A6200BF1C371C
:101BF400BD4680BC704780B485B000AF7860396062
:101C04007B689B68FB60FB6823F07003FB603A68A9
:101C1400FB68134343F00703FB607B68FA689A6030
:101C240000BF1437BD4680BC704780B487B000AF96
:101C3400F860B9607A603B60FB689B687B617B6994
:101C440023F47F437B613B681A027B681A43BB68B9
:101C540013437A6913437B61FB687A699A6000BF16
:101C64001C37BD4680BC704780B485B000AF786037
:101C740039607B6893F83C30012B01D1022350E09A
:101C84007B68012283F83C207B68022283F83D2094
:101C94007B681B685B68FB607B681B689B68BB6038
:101CA400FB6823F07003FB603B681B68FA6813430E
:101CB400FB607B681B68FA685A607B681B681B4A78
:101CC400934218D07B681B68194A934213D07B68EF
:101CD4001B68B3F1804F0ED07B681B68154A934292
:101CE40009D07B681B68144A934204D07B681B6844
:101CF400124A93420CD1BB6823F08003BB603B685B
:101D04005B68BA681343BB607B681B68BA689A60F7
:101D14007B68012283F83D207B68002283F83C2005
:101D2400002318461437BD4680BC7047002C014080
:101D3400003401400004004000080040000C004052
:101D440080B483B000AF786000BF0C37BD4680BC60
:101D5400704780B483B000AF786000BF0C37BD46D5
:101D640080BC704770B500260C4D0D4C641BA4104C
:101D7400A64209D100F022F800260A4D0A4C641B41
:101D8400A410A64205D170BD55F8043B984701360E
:101D9400EEE755F8043B98470136F2E7F81D0008D2
:101DA400F81D0008F81D0008FC1D00080346024445
:101DB400934200D1704703F8011BF9E7F8B500BF5F
:101DC400F8BC08BC9E467047F8B500BFF8BC08BC18
:041DD4009E46704770
:101DD80002030405060708090A0B0C0D0E0F101064
:101DE80000000000000000000102030406070809C3
:041DF80009020008D4
:041DFC00E5010008F5
:0C1E00000024F4001000000001000000AD
:040000050800068564
:00000001FF
