:020000040800F2
:1000000000000120D9040008550400085B04000822
:1000100061040008670400086D0400080000000087
:100020000000000000000000000000007304000851
:100030007F040008000000008B04000897040008FB
:1000400021050008210500082105000821050008F8
:1000500021050008210500082105000821050008E8
:10006000A3040008B1040008BF040008210500082B
:1000700021050008210500082105000821050008C8
:1000800021050008210500082105000821050008B8
:1000900021050008210500082105000821050008A8
:1000A0002105000821050008210500082105000898
:1000B0002105000821050008210500082105000888
:1000C0002105000821050008210500082105000878
:1000D0002105000821050008210500082105000868
:1000E0002105000821050008210500082105000858
:1000F0002105000821050008210500082105000848
:100100002105000821050008210500082105000837
:100110002105000821050008210500082105000827
:100120002105000821050008210500082105000817
:1001300000000000000000000000000000000000BF
:1001400000000000000000000000000000000000AF
:10015000000000000000000000000000000000009F
:10016000000000000000000000000000000000008F
:10017000000000000000000000000000000000007F
:10018000000000000000000000000000000000006F
:10019000000000000000000000000000000000005F
:1001A000000000000000000000000000000000004F
:1001B000000000000000000000000000000000003F
:1001C000000000000000000000000000000000002F
:1001D000000000000000000000000000000000001F
:0401E0005FF8E0F1F3
:1001E40010B5054C237833B9044B13B10448AFF36D
:1001F40000800123237010BD0C00002000000000CB
:10020400C813000808B5034B1BB103490348AFF3F7
:10021400008008BD0000000010000020C813000882
:1002240080B588B000AF07F1100300221A605A604D
:100234009A60DA603E4B9B693D4A43F04003936108
:100244003B4B9B6903F04003FB60FB68384B9B69A5
:10025400374A43F010039361354B9B6903F0100355
:10026400BB60BB68324B9B69314A43F0080393611E
:100274002F4B9B6903F008037B607B6801222021DC
:100284002C4800F051FC012220212B4800F04CFCAA
:1002940004233B61294B7B610123BB6107F11003FC
:1002A4001946244800F0ACFA18233B61244B7B61C7
:1002B4000123BB6107F1100319461E4800F0A0FAA0
:1002C40020233B6101237B610123BB610323FB6189
:1002D40007F110031946174800F092FA20233B61F6
:1002E40001237B610123BB610323FB6107F110033D
:1002F4001946114800F084FA00220021082000F079
:1003040048FA082000F061FA00220021092000F0D8
:1003140040FA092000F059FA002200210A2000F0D6
:1003240038FA0A2000F051FA00BF2037BD4680BDDC
:100334000010024000180140000C01400000211090
:100344000000111080B500AF00F0EAF800F003F8E7
:10035400FFF766FFFEE780B590B000AF07F1180322
:1003640028220021184601F025F83B1D00221A60BE
:100374005A609A60DA601A610123BB614FF48033DA
:10038400FB6100233B620123BB6202237B634FF4C6
:100394008033BB634FF4E013FB6307F11803184683
:1003A40000F0FCFB0346002B01D000F019F80F23EA
:1003B4007B600223BB600023FB604FF480633B61DE
:1003C40000237B613B1D0221184600F069FE0346B1
:1003D400002B01D000F004F800BF4037BD4680BDBB
:1003E40080B400AF72B600BFFEE7000080B485B0F1
:1003F40000AF154B9B69144A43F001039361124B00
:100404009B6903F00103BB60BB680F4BDB690E4AB9
:1004140043F08053D3610C4BDB6903F080537B6062
:100424007B680A4B5B68FB60FB6823F0E063FB605E
:10043400FB6843F08063FB60044AFB68536000BFC1
:100444001437BD4680BC70470010024000000140D4
:1004540080B400AFFEE780B400AFFEE780B400AF25
:10046400FEE780B400AFFEE780B400AFFEE780B4DF
:1004740000AF00BFBD4680BC704780B400AF00BF72
:10048400BD4680BC704780B400AF00BFBD4680BC91
:10049400704780B500AF00F089F800BF80BD80B51B
:1004A40000AF042000F058FB00BF80BD80B500AF52
:1004B400082000F051FB00BF80BD80B500AF1020C4
:1004C40000F04AFB00BF80BD80B400AF00BFBD4652
:1004D40080BC70470C480D490D4A002302E0D458F3
:1004E400C4500433C4188C42F9D30A4A0A4C00237A
:1004F40001E013600432A242FBD3FFF7E5FF00F0F2
:1005040035FFFFF71FFF7047000000200C0000209C
:10051400081400080C0000202C000020FEE7000056
:1005240080B500AF084B1B68074A43F01003136003
:10053400032000F023F90F2000F008F8FFF756FF1E
:100544000023184680BD00BF0020024080B582B061
:1005540000AF7860124B1A68124B1B7819464FF49F
:100564007A73B3FBF1F3B2FBF3F3184600F03BF9F3
:100574000346002B01D001230EE07B680F2B0AD821
:10058400002279684FF0FF3000F003F9064A7B68D7
:100594001360002300E0012318460837BD4680BDE0
:1005A40000000020080000200400002080B400AFF8
:1005B400054B1B781A46054B1B681344034A13600A
:1005C40000BFBD4680BC7047080000202800002002
:1005D40080B400AF024B1B681846BD4680BC704710
:1005E4002800002080B485B000AF78607B6803F0F9
:1005F4000703FB600C4BDB68BB60BA684FF6FF0374
:100604001340BB60FB681A02BB68134343F0BF632B
:1006140043F40033BB60044ABB68D36000BF1437A3
:10062400BD4680BC704700BF00ED00E080B400AF61
:10063400044BDB681B0A03F007031846BD4680BC65
:10064400704700BF00ED00E080B483B000AF034604
:10065400FB7197F90730002B0BDBFB7903F01F02CA
:10066400064997F907305B09012000FA02F241F8C4
:10067400232000BF0C37BD4680BC704700E100E07A
:1006840080B483B000AF03463960FB7197F907303B
:10069400002B0ADB3B68DAB20C4997F907301201E8
:1006A400D2B20B4483F800230AE03B68DAB208496B
:1006B400FB7903F00F03043B1201D2B20B441A7608
:1006C40000BF0C37BD4680BC704700BF00E100E0AE
:1006D40000ED00E080B489B000AFF860B9607A60E2
:1006E400FB6803F00703FB61FB69C3F10703042BF9
:1006F40028BF0423BB61FB690433062B02D9FB69C1
:10070400033B00E000237B614FF0FF32BB6902FA38
:1007140003F3DA43BB681A407B699A404FF0FF3118
:100724007B6901FA03F3D9437B680B4013431846F2
:100734002437BD4680BC704780B582B000AF786076
:100744007B68013BB3F1807F01D301230FE00A4AA8
:100754007B68013B53600F214FF0FF30FFF790FFA0
:10076400054B00229A60044B07221A6000231846A6
:100774000837BD4680BD00BF10E000E080B582B000
:1007840000AF78607868FFF72DFF00BF0837BD46DB
:1007940080BD80B586B000AF0346B9607A60FB7354
:1007A40000237B61FFF742FF78617A68B968786952
:1007B400FFF790FF024697F90F3011461846FFF7EE
:1007C4005FFF00BF1837BD4680BD80B582B000AF63
:1007D4000346FB7197F907301846FFF735FF00BF52
:1007E4000837BD4680BD80B582B000AF78607868B8
:1007F400FFF7A2FF034618460837BD4680BD000038
:1008040080B48BB000AF7860396000237B62002332
:100814003B6279E101227B6A02FA03F3FB613B68E4
:100824001B68FA691340BB61BA69FB699A4240F0DC
:1008340068813B685B68964A93425ED0944A9342CF
:1008440075D8944A934258D0924A93426FD8924AA8
:10085400934252D0904A934269D8904A93424CD0E2
:100864008E4A934263D88E4A934246D08C4A93422E
:100874005DD8122B2AD8122B59D801A252F823F092
:10088400FF080008D9080008EB0800082D09000833
:100894003309000833090008330900083309000844
:1008A4003309000833090008330900083309000834
:1008B4003309000833090008330900083309000824
:1008C40033090008E1080008F5080008754A934256
:1008D40013D02CE03B68DB683B6229E03B68DB68B3
:1008E40004333B6224E03B68DB6808333B621FE06F
:1008F4003B68DB680C333B621AE03B689B68002B67
:1009040002D104233B6213E03B689B68012B05D1B1
:1009140008233B627B68FA691A6109E008233B6299
:100924007B68FA695A6103E000233B6200E000BF80
:10093400BB69FF2B01D87B6801E07B6804337B61D2
:10094400BB69FF2B02D87B6A9B0002E07B6A083BF1
:100954009B003B617B691A680F213B6901FA03F331
:10096400DB431A40396A3B6901FA03F31A437B6992
:100974001A603B685B6803F08053002B00F0C18071
:10098400494B9B69484A43F001039361464B9B6979
:1009940003F00103BB60BB68444A7B6A9B080233D3
:1009A40052F82330FB607B6A03F003039B000F22A1
:1009B40002FA03F3DB43FA681340FB607B683C4AAA
:1009C40093421FD07B683B4A934219D07B683A4AD2
:1009D400934213D07B68394A93420DD07B68384ADE
:1009E400934207D07B68374A934201D105230AE03A
:1009F400062308E0042306E0032304E0022302E0C4
:100A0400012300E000237A6A02F00302920093407B
:100A1400FA681343FB6025497B6A9B080233FA6832
:100A240041F823203B685B6803F48033002B06D035
:100A3400254B1A682449BB6913430B6006E0224B1B
:100A44001A68BB69DB43204913400B603B685B6851
:100A540003F40033002B06D01B4B5A681A49BB69B8
:100A640013434B6006E0184B5A68BB69DB431649D5
:100A740013404B603B685B6803F48013002B25D064
:100A8400114B9A681049BB6913438B6025E000BF82
:100A9400000032100000311000002210000021106C
:100AA400000012100000111000100240000001406C
:100AB40000080140000C01400010014000140140F6
:100AC40000180140001C014000040140154B9A68C5
:100AD400BB69DB43134913408B603B685B6803F4D9
:100AE4000013002B06D00F4BDA680E49BB69134381
:100AF400CB6006E00B4BDA68BB69DB430949134062
:100B0400CB607B6A01337B623B681A687B6A22FA9A
:100B140003F3002B7FF47EAE00BF00BF2C37BD462D
:100B240080BC70470004014080B483B000AF78609B
:100B34000B467B8013467B707B78002B03D07A882E
:100B44007B681A6103E07B881A047B681A6100BF22
:100B54000C37BD4680BC704780B582B000AF0346F9
:100B6400FB80084B5A69FB881340002B06D0054ACA
:100B7400FB885361FB88184600F006F800BF08376D
:100B8400BD4680BD0004014080B483B000AF03467D
:100B9400FB8000BF0C37BD4680BC704780B586B073
:100BA40000AF78607B68002B01D1012372E27B687F
:100BB4001B6803F00103002B00F08780924B5B68F5
:100BC40003F00C03042B0CD08F4B5B6803F00C0375
:100BD400082B12D18C4B5B6803F48033B3F5803F50
:100BE4000BD1894B1B6803F40033002B6CD07B685A
:100BF4005B68002B68D101234CE27B685B68B3F52A
:100C0400803F06D1804B1B687F4A43F480331360D6
:100C14002EE07B685B68002B0CD17B4B1B687A4A07
:100C240023F480331360784B1B68774A23F48023C2
:100C340013601DE07B685B68B3F5A02F0CD1724B89
:100C44001B68714A43F4802313606F4B1B686E4A20
:100C540043F4803313600BE06B4B1B686A4A23F444
:100C640080331360684B1B68674A23F48023136046
:100C74007B685B68002B13D0FFF7AAFC386108E09F
:100C8400FFF7A6FC02463B69D31A642B01D9032360
:100C940000E25D4B1B6803F40033002BF0D014E03A
:100CA400FFF796FC386108E0FFF792FC02463B69C7
:100CB400D31A642B01D90323ECE1534B1B6803F4CF
:100CC4000033002BF0D100E000BF7B681B6803F009
:100CD4000203002B63D04C4B5B6803F00C03002B26
:100CE4000BD0494B5B6803F00C03082B1CD1464B1B
:100CF4005B6803F48033002B16D1434B1B6803F06D
:100D04000203002B05D07B681B69012B01D0012352
:100D1400C0E13D4B1B6823F0F8027B685B69DB0094
:100D2400394913430B603AE07B681B69002B20D0E0
:100D3400364B01221A60FFF74BFC386108E0FFF7DD
:100D440047FC02463B69D31A022B01D90323A1E1D4
:100D54002D4B1B6803F00203002BF0D02A4B1B68B9
:100D640023F0F8027B685B69DB00274913430B60BF
:100D740015E0264B00221A60FFF72AFC386108E0D0
:100D8400FFF726FC02463B69D31A022B01D9032341
:100D940080E11D4B1B6803F00203002BF0D17B683C
:100DA4001B6803F00803002B3AD07B689B69002B77
:100DB40019D0174B01221A60FFF70AFC386108E0CA
:100DC400FFF706FC02463B69D31A022B01D9032321
:100DD40060E10D4B5B6A03F00203002BF0D00120AD
:100DE40000F0A6FA1CE00A4B00221A60FFF7F0FBA1
:100DF40038610FE0FFF7ECFB02463B69D31A022B84
:100E040008D9032346E100BF00100240000042421B
:100E140080044242924B5B6A03F00203002BE9D147
:100E24007B681B6803F00403002B00F0A6800023FA
:100E3400FB758B4BDB6903F08053002B0DD1884B82
:100E4400DB69874A43F08053D361854BDB6903F048
:100E54008053BB60BB680123FB75824B1B6803F4A2
:100E64008073002B18D17F4B1B687E4A43F4807338
:100E74001360FFF7ADFB386108E0FFF7A9FB0246FA
:100E84003B69D31A642B01D9032303E1754B1B6817
:100E940003F48073002BF0D07B68DB68012B06D150
:100EA4006F4B1B6A6E4A43F0010313622DE07B68AB
:100EB400DB68002B0CD16A4B1B6A694A23F00103DF
:100EC4001362674B1B6A664A23F0040313621CE037
:100ED4007B68DB68052B0CD1614B1B6A604A43F0CD
:100EE400040313625E4B1B6A5D4A43F00103136201
:100EF4000BE05B4B1B6A5A4A23F001031362584B05
:100F04001B6A574A23F0040313627B68DB68002BD7
:100F140015D0FFF75DFB38610AE0FFF759FB024685
:100F24003B69D31A41F28832934201D90323B1E0D9
:100F34004B4B1B6A03F00203002BEED014E0FFF7C7
:100F440047FB38610AE0FFF743FB02463B69D31ACB
:100F540041F28832934201D903239BE0404B1B6A40
:100F640003F00203002BEED1FB7D012B05D13C4B9A
:100F7400DB693B4A23F08053D3617B68DB69002B38
:100F840000F08780364B5B6803F00C03082B61D0BC
:100F94007B68DB69022B46D1334B00221A60FFF7D2
:100FA40017FB386108E0FFF713FB02463B69D31ACD
:100FB400022B01D903236DE0294B1B6803F0007356
:100FC400002BF0D17B681B6AB3F5803F08D1244B1A
:100FD4005B6823F400327B689B68214913434B60B0
:100FE4001F4B5B6823F474127B68196A7B685B6A25
:100FF4000B431B4913434B601B4B01221A60FFF741
:10100400E7FA386108E0FFF7E3FA02463B69D31ACE
:10101400022B01D903233DE0114B1B6803F000733D
:10102400002BF0D035E0104B00221A60FFF7D0FA05
:10103400386108E0FFF7CCFA02463B69D31A022B69
:1010440001D9032326E0064B1B6803F00073002B31
:10105400F0D11EE07B68DB69012B07D1012319E085
:101064000010024000700040600042420B4B5B687D
:10107400FB60FB6803F480327B681B6A9A4206D1EA
:10108400FB6803F470127B685B6A9A4201D0012307
:1010940000E0002318461837BD4680BD001002400A
:1010A40080B584B000AF786039607B68002B01D1D3
:1010B4000123D0E06A4B1B6803F007033A689A42A5
:1010C40010D9674B1B6823F0070265493B6813433B
:1010D4000B60634B1B6803F007033A689A4201D024
:1010E4000123B8E07B681B6803F00203002B20D0C7
:1010F4007B681B6803F00403002B05D0594B5B6825
:10110400584A43F4E06353607B681B6803F00803A8
:10111400002B05D0534B5B68524A43F46053536031
:10112400504B5B6823F0F0027B689B684D49134386
:101134004B607B681B6803F00103002B40D07B6885
:101144005B68012B07D1474B1B6803F40033002B6A
:1011540015D101237FE07B685B68022B07D1414BEB
:101164001B6803F00073002B09D1012373E03D4B8E
:101174001B6803F00203002B01D101236BE0394B00
:101184005B6823F003027B685B68364913434B605A
:10119400FFF71EFAF8600AE0FFF71AFA0246FB6846
:1011A400D31A41F28832934201D9032353E02D4BE1
:1011B4005B6803F00C027B685B689B009A42EBD18E
:1011C400274B1B6803F007033A689A4210D2244B5A
:1011D4001B6823F0070222493B6813430B60204B32
:1011E4001B6803F007033A689A4201D0012332E0F6
:1011F4007B681B6803F00403002B08D0194B5B6861
:1012040023F4E0627B68DB68164913434B607B6818
:101214001B6803F00803002B09D0124B5B6823F40E
:1012240060527B681B69DB000E4913434B6000F07E
:1012340021F802460B4B5B681B0903F00F030A49B4
:10124400CB5C22FA03F3094A1360094B1B68184666
:10125400FFF77CF9002318461037BD4680BD00BF58
:101264000020024000100240F0130008000000209B
:101274000400002090B48AB000AF294B3C1D0FCB72
:1012840084E80F0040F201233B800023FB6100232C
:10129400BB6100237B6200237B6100233B62214B03
:1012A4005B68FB61FB6903F00C03042B02D0082B81
:1012B40003D02BE01C4B3B622BE0FB699B0C03F03F
:1012C4000F0328333B4413F8243C7B61FB6903F48C
:1012D4008033002B12D0134B5B685B0C03F00103CB
:1012E40028333B4413F8283CBB617B690E4A03FB5B
:1012F40002F2BB69B2FBF3F37B6204E07B690B4A45
:1013040002FB03F37B627B6A3B6202E0064B3B62B7
:1013140000BF3B6A18462837BD4690BC704700BFE3
:10132400E01300080010024000127A0000093D009A
:1013340080B485B000AF78600A4B1B680A4AA2FBF0
:1013440003235B0A7A6802FB03F3FB6000BFFB68BC
:101354005A1EFA60002BF9D100BF00BF1437BD46F6
:1013640080BC704700000020D34D621070B5002689
:101374000C4D0D4C641BA410A64209D100F022F8B8
:1013840000260A4D0A4C641BA410A64205D170BD68
:1013940055F8043B98470136EEE755F8043B984767
:1013A4000136F2E7001400080014000800140008D5
:1013B4000414000803460244934200D1704703F822
:1013C400011BF9E7F8B500BFF8BC08BC9E4670479E
:0C13D400F8B500BFF8BC08BC9E4670478E
:1013E00002030405060708090A0B0C0D0E0F101066
:1013F00000000000000000000102030406070809C5
:0414000009020008D5
:04140400E5010008F6
:0C1408000024F4001000000001000000AF
:04000005080004D912
:00000001FF
