:020000040800F2
:10000000000001204D050008F1040008F704000875
:10001000FD040008030500080905000800000000B1
:100020000000000000000000000000000F050008B4
:100030001B05000800000000270500083305000824
:100040009505000895050008950500089505000828
:100050009505000895050008950500089505000818
:100060009505000895050008950500089505000808
:1000700095050008950500089505000895050008F8
:1000800095050008950500089505000895050008E8
:1000900095050008950500089505000895050008D8
:1000A00095050008950500089505000895050008C8
:1000B00095050008950500089505000895050008B8
:1000C00095050008950500089505000895050008A8
:1000D0009505000895050008950500089505000898
:1000E0009505000895050008950500089505000888
:1000F0009505000895050008950500089505000878
:100100009505000895050008950500089505000867
:100110009505000895050008950500089505000857
:100120009505000895050008950500089505000847
:1001300000000000000000000000000000000000BF
:1001400000000000000000000000000000000000AF
:10015000000000000000000000000000000000009F
:10016000000000000000000000000000000000008F
:10017000000000000000000000000000000000007F
:10018000000000000000000000000000000000006F
:10019000000000000000000000000000000000005F
:1001A000000000000000000000000000000000004F
:1001B000000000000000000000000000000000003F
:1001C000000000000000000000000000000000002F
:1001D000000000000000000000000000000000001F
:0401E0005FF8E0F1F3
:1001E40010B5054C237833B9044B13B10448AFF36D
:1001F40000800123237010BD0C00002000000000CB
:10020400D019000808B5034B1BB103490348AFF3E9
:10021400008008BD0000000010000020D019000874
:1002240080B588B000AF07F1100300221A605A604D
:100234009A60DA602C4B9B692B4A43F0400393612C
:10024400294B9B6903F04003FB60FB68264B9B69C9
:10025400254A43F010039361234B9B6903F0100379
:10026400BB60BB68204B9B691F4A43F00403936146
:100274001D4B9B6903F004037B607B681A4B9B69ED
:10028400194A43F008039361174B9B6903F0080371
:100294003B603B6801222021144800F079FC0122D4
:1002A4002021134800F074FC20233B6101237B616F
:1002B4000023BB610323FB6107F1100319460B48BC
:1002C40000F0D2FA20233B6101237B610023BB6150
:1002D4000323FB6107F110031946054800F0C4FA33
:1002E40000BF2037BD4680BD001002400018014009
:1002F400000C014080B500AF00F04CF900F024F888
:10030400FFF78EFF00F084F8012220210C4800F052
:100314003FFC002220210B4800F03AFC4FF4FA7015
:1003240000F09AF92021064800F04AFC20210548F3
:1003340000F046FC4FF4FA7000F08EF9E4E700BFD9
:10034400000C01400018014080B596B000AF07F1E1
:10035400300328220021184601F030FB07F11C036A
:1003640000221A605A609A60DA601A613B1D00220A
:100374001A605A609A60DA601A615A6109233B6311
:100384004FF480337B630023BB6301233B6401236D
:10039400BB640223FB644FF480333B654FF4E013EA
:1003A4007B6507F13003184600F030FC0346002B50
:1003B40001D000F028F80F23FB6102233B620023E5
:1003C4007B624FF48063BB620023FB6207F11C0372
:1003D4000221184600F09CFE0346002B01D000F0D9
:1003E40012F801237B604FF40073BB603B1D184679
:1003F40001F012F80346002B01D000F004F800BF0E
:100404005837BD4680BD80B400AF72B600BFFEE76A
:1004140080B500AF0A4B0B4A1A60094B4FF0FF320C
:100424005A60074B4FF480729A60054801F08EF9C8
:100434000346002B01D0FFF7E6FF00BF80BD00BFDD
:10044400280000200028004080B584B000AF786008
:100454007B681B680B4A934210D100F0CBFB0A4B1C
:10046400DB69094A43F00063D361074BDB6903F09E
:100474000063FB60FB68054B01221A6000BF103764
:10048400BD4680BD00280040001002403C044242AA
:1004940080B485B000AF134B9B69124A43F001034B
:1004A4009361104B9B6903F00103BB60BB680D4B68
:1004B400DB690C4A43F08053D3610A4BDB6903F0D8
:1004C40080537B607B68084B5B68FB60FB6823F0B0
:1004D400E063FB60044AFB68536000BF1437BD4609
:1004E40080BC7047001002400000014080B400AF9F
:1004F400FEE780B400AFFEE780B400AFFEE780B44F
:1005040000AFFEE780B400AFFEE780B400AF00BFE9
:10051400BD4680BC704780B400AF00BFBD4680BC00
:10052400704780B400AF00BFBD4680BC704780B543
:1005340000AF00F075F800BF80BD80B400AF00BF0D
:10054400BD4680BC704700000C480D490D4A00238D
:1005540002E0D458C4500433C4188C42F9D30A4A74
:100564000A4C002301E013600432A242FBD3FFF7DC
:10057400E4FF01F0FFF9FFF7BDFE70470000002023
:100584000C000020281A00080C0000204000002065
:10059400FEE7000080B500AF084B1B68074A43F034
:1005A40010031360032000F02BF90F2000F008F86B
:1005B400FFF76EFF0023184680BD00BF00200240F5
:1005C40080B582B000AF7860124B1A68124B1B786A
:1005D40019464FF47A73B3FBF1F3B2FBF3F3184605
:1005E40000F035F90346002B01D001230EE07B68AF
:1005F4000F2B0AD8002279684FF0FF3000F00BF976
:10060400064A7B681360002300E00123184608377C
:10061400BD4680BD0000002008000020040000202A
:1006240080B400AF054B1B781A46054B1B68134476
:10063400034A136000BFBD4680BC70470800002019
:100644003C00002080B400AF024B1B681846BD4636
:1006540080BC70473C00002080B584B000AF786057
:10066400FFF7F0FFB8607B68FB60FB68B3F1FF3F06
:1006740005D00A4B1B781A46FB681344FB6000BF85
:10068400FFF7E0FF0246BB68D31AFA689A42F7D82C
:1006940000BF00BF1037BD4680BD00BF080000206A
:1006A40080B485B000AF78607B6803F00703FB601B
:1006B4000C4BDB68BB60BA684FF6FF031340BB60AA
:1006C400FB681A02BB68134343F0BF6343F400336F
:1006D400BB60044ABB68D36000BF1437BD4680BC0E
:1006E400704700BF00ED00E080B400AF044BDB684E
:1006F4001B0A03F007031846BD4680BC704700BFC1
:1007040000ED00E080B483B000AF03463960FB71B4
:1007140097F90730002B0ADB3B68DAB20C4997F9EA
:1007240007301201D2B20B4483F800230AE03B687D
:10073400DAB20849FB7903F00F03043B1201D2B289
:100744000B441A7600BF0C37BD4680BC704700BF0F
:1007540000E100E000ED00E080B489B000AFF86093
:10076400B9607A60FB6803F00703FB61FB69C3F1BE
:100774000703042B28BF0423BB61FB690433062B46
:1007840002D9FB69033B00E000237B614FF0FF3299
:10079400BB6902FA03F3DA43BB681A407B699A40E7
:1007A4004FF0FF317B6901FA03F3D9437B680B40B7
:1007B400134318462437BD4680BC704780B582B0C9
:1007C40000AF78607B68013BB3F1807F01D30123E4
:1007D4000FE00A4A7B68013B53600F214FF0FF3062
:1007E400FFF790FF054B00229A60044B07221A6022
:1007F400002318460837BD4680BD00BF10E000E066
:1008040080B582B000AF78607868FFF749FF00BF19
:100814000837BD4680BD80B586B000AF0346B960D9
:100824007A60FB7300237B61FFF75EFF78617A686F
:10083400B9687869FFF790FF024697F90F301146BF
:100844001846FFF75FFF00BF1837BD4680BD80B56F
:1008540082B000AF78607868FFF7B0FF03461846AF
:100864000837BD4680BD000080B48BB000AF78600F
:10087400396000237B6200233B6279E101227B6AB9
:1008840002FA03F3FB613B681B68FA691340BB611E
:10089400BA69FB699A4240F068813B685B68964A92
:1008A40093425ED0944A934275D8944A934258D066
:1008B400924A93426FD8924A934252D0904A9342BA
:1008C40069D8904A93424CD08E4A934263D88E4A58
:1008D400934246D08C4A93425DD8122B2AD8122BCD
:1008E40059D801A252F823F0670900084109000809
:1008F40053090008950900089B0900089B09000892
:100904009B0900089B0900089B0900089B09000833
:100914009B0900089B0900089B0900089B09000823
:100924009B0900089B0900089B0900084909000865
:100934005D090008754A934213D02CE03B68DB68DC
:100944003B6229E03B68DB6804333B6224E03B689C
:10095400DB6808333B621FE03B68DB680C333B62B7
:100964001AE03B689B68002B02D104233B6213E02E
:100974003B689B68012B05D108233B627B68FA69BD
:100984001A6109E008233B627B68FA695A6103E053
:1009940000233B6200E000BFBB69FF2B01D87B68EA
:1009A40001E07B6804337B61BB69FF2B02D87B6A5F
:1009B4009B0002E07B6A083B9B003B617B691A68F1
:1009C4000F213B6901FA03F3DB431A40396A3B699F
:1009D40001FA03F31A437B691A603B685B6803F00E
:1009E4008053002B00F0C180494B9B69484A43F077
:1009F40001039361464B9B6903F00103BB60BB6831
:100A0400444A7B6A9B08023352F82330FB607B6ABA
:100A140003F003039B000F2202FA03F3DB43FA689B
:100A24001340FB607B683C4A93421FD07B683B4A7F
:100A3400934219D07B683A4A934213D07B68394A6F
:100A440093420DD07B68384A934207D07B68374A7B
:100A5400934201D105230AE0062308E0042306E0BB
:100A6400032304E0022302E0012300E000237A6A66
:100A740002F0030292009340FA681343FB60254995
:100A84007B6A9B080233FA6841F823203B685B6861
:100A940003F48033002B06D0254B1A682449BB6924
:100AA40013430B6006E0224B1A68BB69DB43204901
:100AB40013400B603B685B6803F40033002B06D0E3
:100AC4001B4B5A681A49BB6913434B6006E0184B29
:100AD4005A68BB69DB43164913404B603B685B684B
:100AE40003F48013002B25D0114B9A681049BB697D
:100AF40013438B6025E000BF00003210000031106A
:100B0400000022100000211000001210000011103B
:100B1400001002400000014000080140000C0140A8
:100B2400001001400014014000180140001C014065
:100B340000040140154B9A68BB69DB431349134019
:100B44008B603B685B6803F40013002B06D00F4BEB
:100B5400DA680E49BB691343CB6006E00B4BDA68D5
:100B6400BB69DB4309491340CB607B6A01337B6279
:100B74003B681A687B6A22FA03F3002B7FF47EAE8B
:100B840000BF00BF2C37BD4680BC70470004014045
:100B940080B483B000AF78600B467B8013467B70D3
:100BA4007B78002B03D07A887B681A6103E07B880A
:100BB4001A047B681A6100BF0C37BD4680BC7047BD
:100BC40080B485B000AF78600B467B807B68DB68BF
:100BD400FB607A88FB6813401A04FB68D9437B885E
:100BE4000B401A437B681A6100BF1437BD4680BCB2
:100BF4007047000080B400AF034B01221A6000BFAD
:100C0400BD4680BC704700BF20000E4280B586B050
:100C140000AF78607B68002B01D1012372E27B680E
:100C24001B6803F00103002B00F08780924B5B6884
:100C340003F00C03042B0CD08F4B5B6803F00C0304
:100C4400082B12D18C4B5B6803F48033B3F5803FDF
:100C54000BD1894B1B6803F40033002B6CD07B68E9
:100C64005B68002B68D101234CE27B685B68B3F5B9
:100C7400803F06D1804B1B687F4A43F48033136066
:100C84002EE07B685B68002B0CD17B4B1B687A4A97
:100C940023F480331360784B1B68774A23F4802352
:100CA40013601DE07B685B68B3F5A02F0CD1724B19
:100CB4001B68714A43F4802313606F4B1B686E4AB0
:100CC40043F4803313600BE06B4B1B686A4A23F4D4
:100CD40080331360684B1B68674A23F480231360D6
:100CE4007B685B68002B13D0FFF7ACFC386108E02D
:100CF400FFF7A8FC02463B69D31A642B01D90323EE
:100D040000E25D4B1B6803F40033002BF0D014E0C9
:100D1400FFF798FC386108E0FFF794FC02463B6952
:100D2400D31A642B01D90323ECE1534B1B6803F45E
:100D34000033002BF0D100E000BF7B681B6803F098
:100D44000203002B63D04C4B5B6803F00C03002BB5
:100D54000BD0494B5B6803F00C03082B1CD1464BAA
:100D64005B6803F48033002B16D1434B1B6803F0FC
:100D74000203002B05D07B681B69012B01D00123E2
:100D8400C0E13D4B1B6823F0F8027B685B69DB0024
:100D9400394913430B603AE07B681B69002B20D070
:100DA400364B01221A60FFF74DFC386108E0FFF76B
:100DB40049FC02463B69D31A022B01D90323A1E162
:100DC4002D4B1B6803F00203002BF0D02A4B1B6849
:100DD40023F0F8027B685B69DB00274913430B604F
:100DE40015E0264B00221A60FFF72CFC386108E05E
:100DF400FFF728FC02463B69D31A022B01D90323CF
:100E040080E11D4B1B6803F00203002BF0D17B68CB
:100E14001B6803F00803002B3AD07B689B69002B06
:100E240019D0174B01221A60FFF70CFC386108E057
:100E3400FFF708FC02463B69D31A022B01D90323AE
:100E440060E10D4B5B6A03F00203002BF0D001203C
:100E540000F0C4FA1CE00A4B00221A60FFF7F2FB10
:100E640038610FE0FFF7EEFB02463B69D31A022B11
:100E740008D9032346E100BF0010024000004242AB
:100E840080044242924B5B6A03F00203002BE9D1D7
:100E94007B681B6803F00403002B00F0A68000238A
:100EA400FB758B4BDB6903F08053002B0DD1884B12
:100EB400DB69874A43F08053D361854BDB6903F0D8
:100EC4008053BB60BB680123FB75824B1B6803F432
:100ED4008073002B18D17F4B1B687E4A43F48073C8
:100EE4001360FFF7AFFB386108E0FFF7ABFB024686
:100EF4003B69D31A642B01D9032303E1754B1B68A7
:100F040003F48073002BF0D07B68DB68012B06D1DF
:100F14006F4B1B6A6E4A43F0010313622DE07B683A
:100F2400DB68002B0CD16A4B1B6A694A23F001036E
:100F34001362674B1B6A664A23F0040313621CE0C6
:100F44007B68DB68052B0CD1614B1B6A604A43F05C
:100F5400040313625E4B1B6A5D4A43F00103136290
:100F64000BE05B4B1B6A5A4A23F001031362584B94
:100F74001B6A574A23F0040313627B68DB68002B67
:100F840015D0FFF75FFB38610AE0FFF75BFB024611
:100F94003B69D31A41F28832934201D90323B1E069
:100FA4004B4B1B6A03F00203002BEED014E0FFF757
:100FB40049FB38610AE0FFF745FB02463B69D31A57
:100FC40041F28832934201D903239BE0404B1B6AD0
:100FD40003F00203002BEED1FB7D012B05D13C4B2A
:100FE400DB693B4A23F08053D3617B68DB69002BC8
:100FF40000F08780364B5B6803F00C03082B61D04C
:101004007B68DB69022B46D1334B00221A60FFF761
:1010140019FB386108E0FFF715FB02463B69D31A58
:10102400022B01D903236DE0294B1B6803F00073E5
:10103400002BF0D17B681B6AB3F5803F08D1244BA9
:101044005B6823F400327B689B68214913434B603F
:101054001F4B5B6823F474127B68196A7B685B6AB4
:101064000B431B4913434B601B4B01221A60FFF7D0
:10107400E9FA386108E0FFF7E5FA02463B69D31A5A
:10108400022B01D903233DE0114B1B6803F00073CD
:10109400002BF0D035E0104B00221A60FFF7D2FA93
:1010A400386108E0FFF7CEFA02463B69D31A022BF7
:1010B40001D9032326E0064B1B6803F00073002BC1
:1010C400F0D11EE07B68DB69012B07D1012319E015
:1010D4000010024000700040600042420B4B5B680D
:1010E400FB60FB6803F480327B681B6A9A4206D17A
:1010F400FB6803F470127B685B6A9A4201D0012397
:1011040000E0002318461837BD4680BD0010024099
:1011140080B584B000AF786039607B68002B01D162
:101124000123D0E06A4B1B6803F007033A689A4234
:1011340010D9674B1B6823F0070265493B681343CA
:101144000B60634B1B6803F007033A689A4201D0B3
:101154000123B8E07B681B6803F00203002B20D056
:101164007B681B6803F00403002B05D0594B5B68B4
:10117400584A43F4E06353607B681B6803F0080338
:10118400002B05D0534B5B68524A43F460535360C1
:10119400504B5B6823F0F0027B689B684D49134316
:1011A4004B607B681B6803F00103002B40D07B6815
:1011B4005B68012B07D1474B1B6803F40033002BFA
:1011C40015D101237FE07B685B68022B07D1414B7B
:1011D4001B6803F00073002B09D1012373E03D4B1E
:1011E4001B6803F00203002B01D101236BE0394B90
:1011F4005B6823F003027B685B68364913434B60EA
:10120400FFF720FAF8600AE0FFF71CFA0246FB68D1
:10121400D31A41F28832934201D9032353E02D4B70
:101224005B6803F00C027B685B689B009A42EBD11D
:10123400274B1B6803F007033A689A4210D2244BE9
:101244001B6823F0070222493B6813430B60204BC1
:101254001B6803F007033A689A4201D0012332E085
:101264007B681B6803F00403002B08D0194B5B68F0
:1012740023F4E0627B68DB68164913434B607B68A8
:101284001B6803F00803002B09D0124B5B6823F49E
:1012940060527B681B69DB000E4913434B6000F00E
:1012A40021F802460B4B5B681B0903F00F030A4944
:1012B400CB5C22FA03F3094A1360094B1B681846F6
:1012C400FFF77EF9002318461037BD4680BD00BFE6
:1012D4000020024000100240081A0008000000200C
:1012E4000400002090B48AB000AF294B3C1D0FCB02
:1012F40084E80F0040F201233B800023FB610023BC
:10130400BB6100237B6200237B6100233B62214B92
:101314005B68FB61FB6903F00C03042B02D0082B10
:1013240003D02BE01C4B3B622BE0FB699B0C03F0CE
:101334000F0328333B4413F8243C7B61FB6903F41B
:101344008033002B12D0134B5B685B0C03F001035A
:1013540028333B4413F8283CBB617B690E4A03FBEA
:1013640002F2BB69B2FBF3F37B6204E07B690B4AD4
:1013740002FB03F37B627B6A3B6202E0064B3B6247
:1013840000BF3B6A18462837BD4690BC704700BF73
:10139400E81900080010024000127A0000093D001C
:1013A40080B400AF024B1B681846BD4680BC704732
:1013B4000000002080B500AFFFF7F2FF0246054BA6
:1013C4005B68DB0A03F007030349CB5C22FA03F3EF
:1013D400184680BD00100240181A000880B485B079
:1013E40000AF78600A4B1B680A4AA2FB03235B0A1E
:1013F4007A6802FB03F3FB6000BFFB685A1EFA60C5
:10140400002BF9D100BF00BF1437BD4680BC704724
:1014140000000020D34D621080B586B000AF786024
:1014240000233B610023FB607B681B6803F001031E
:10143400002B7DD00023FB754F4BDB6903F08053F9
:10144400002B0DD14C4BDB694B4A43F08053D361E5
:10145400494BDB6903F08053BB60BB680123FB7518
:10146400464B1B6803F48073002B18D1434B1B6855
:10147400424A43F480731360FFF7E4F8386108E0EC
:10148400FFF7E0F802463B69D31A642B01D9032322
:101494006DE03A4B1B6803F48073002BF0D0364B9D
:1014A4001B6A03F44073FB60FB68002B2ED07B683F
:1014B4005B6803F44073FA689A4227D02E4B1B6A88
:1014C40023F44073FB602E4B01221A602C4B002244
:1014D4001A60294AFB681362FB6803F00103002BBE
:1014E40014D0FFF7AFF838610AE0FFF7ABF8024613
:1014F4003B69D31A41F28832934201D9032336E07F
:101504001D4B1B6A03F00203002BEED01A4B1B6A1F
:1015140023F440727B685B68174913430B62FB7DBD
:10152400012B05D1144BDB69134A23F08053D3619B
:101534007B681B6803F00203002B08D00E4B5B682A
:1015440023F440427B689B680B4913434B607B68E0
:101554001B6803F01003002B08D0074B5B6823F4CF
:1015640080027B685B69044913434B60002318467F
:101574001837BD4680BD00BF001002400070004017
:101584004004424290B58DB000AF78606A4B07F1D9
:101594000C040FCB84E80F0040F201233B810023AD
:1015A4007B620023FB6200233B620023FB61002378
:1015B400BB627B68013B0F2B00F2B48001A252F89E
:1015C40023F000BFA71600080D170008291700080C
:1015D400971600082917000829170008291700087A
:1015E4009F16000829170008291700082917000862
:1015F40029170008291700082917000829170008C7
:10160400091600084D4B5B68FB614C4B1B6803F0EB
:101614008073002B00F08880FB699B0C03F00F03A0
:1016240030333B4413F8243C3B62FB6903F48033BE
:10163400002B17D0414B5B685B0C03F00103303384
:101644003B4413F8283C7B62FB6903F48033002B92
:101654000DD03B4A7B6AB2FBF3F23B6A02FB03F315
:10166400FB6204E03B6A374A02FB03F3FB62334B41
:101674005B6803F48003B3F5800F02D1FB6ABB629D
:1016840052E0FB6A5B00304AA2FB03235B08BB62A7
:101694004AE0FFF727FEB86249E0FFF723FEB8628D
:1016A40045E0264B1B6AFB61FB6903F44073B3F509
:1016B400807F08D1FB6903F00203002B03D04FF4B1
:1016C4000043BB621FE0FB6903F44073B3F5007F82
:1016D40009D11A4B5B6A03F00203002B03D049F6CD
:1016E4004043BB620FE0FB6903F44073B3F5407FF2
:1016F4001CD1124B1B6803F40033002B16D04FF29D
:101704002443BB6212E011E0FFF754FE02460B4B88
:101714005B689B0B03F0030301335B00B2FBF3F341
:10172400BB6204E000BF02E000BF00E000BFBB6A90
:1017340018463437BD4690BDF81900080010024021
:1017440000127A0000093D00ABAAAAAA80B584B0B1
:1017540000AF78600023FB607B68002B01D101237C
:1017640084E07B685B7CDBB2002B05D17B680022C4
:101774001A747868FEF768FE7B6802225A747868E7
:1017840000F07AF80346002B04D07B6804225A74D4
:1017940001236BE0786800F09CF80346002B04D02A
:1017A4007B6804225A74012360E07B681B685A68D2
:1017B4007B681B6822F007025A607B689B68002BD9
:1017C40005D02C4B1B6B2B4A23F001031363294BCD
:1017D400DB6A23F460727B689B6826491343CB62FF
:1017E4007B685B68B3F1FF3F03D07B685B68FB6099
:1017F4000EE00120FFF7C6FEF860FB68002B04D161
:101804007B6804225A74012330E0FB68013BFB60CF
:101814007B681B689B6823F00F01FB681A0C7B68CC
:101824001B680A439A607B681B68DB681B0C1B04FB
:10183400FA6891B27A6812680B43D360786800F052
:1018440070F80346002B04D07B6804225A740123E9
:101854000CE07B680022DA737B6801225A737B6890
:1018640001229A737B6801225A74002318461037A8
:10187400BD4680BD006C004080B584B000AF786088
:101884000023FB607B68002B01D101231DE07B68F2
:101894001B685A687B681B6822F008025A60FEF7CE
:1018A400D1FEF86009E0FEF7CDFE0246FB68D31ACC
:1018B400B3F57A7F01D9032307E07B681B685B6873
:1018C40003F00803002BEED0002318461037BD4662
:1018D40080BD80B584B000AF78600023FB60FEF764
:1018E400B1FEF86009E0FEF7ADFE0246FB68D31ACC
:1018F400B3F57A7F01D903230FE07B681B685B682B
:1019040003F02003002BEED07B681B685A687B68C9
:101914001B6842F010025A60002318461037BD4677
:1019240080BD80B584B000AF78600023FB607B6825
:101934001B685A687B681B6822F010025A60FEF725
:1019440081FEF86009E0FEF77DFE0246FB68D31ACB
:10195400B3F57A7F01D9032307E07B681B685B68D2
:1019640003F02003002BEED0002318461037BD46A9
:1019740080BD000070B500260C4D0D4C641BA410F6
:10198400A64209D100F022F800260A4D0A4C641B35
:10199400A410A64205D170BD55F8043B9847013602
:1019A400EEE755F8043B98470136F2E7201A0008A1
:1019B400201A0008201A0008241A000803460244CA
:1019C400934200D1704703F8011BF9E7F8B500BF53
:1019D400F8BC08BC9E467047F8B500BFF8BC08BC0C
:0419E4009E46704764
:1019E80002030405060708090A0B0C0D0E0F101058
:1019F80002030405060708090A0B0C0D0E0F101048
:101A080000000000000000000102030406070809A6
:081A18000000000001020304BC
:041A200009020008AF
:041A2400E5010008D0
:0C1A28000024F400100000000100000089
:040000050800054D9D
:00000001FF
